{
  "contractName": "Academic",
  "abi": [
    {
      "inputs": [
        {
          "internalType": "address",
          "name": "",
          "type": "address"
        },
        {
          "internalType": "uint256",
          "name": "",
          "type": "uint256"
        }
      ],
      "name": "disciplineRecords",
      "outputs": [
        {
          "internalType": "address",
          "name": "studentAddress",
          "type": "address"
        },
        {
          "internalType": "string",
          "name": "description",
          "type": "string"
        }
      ],
      "stateMutability": "view",
      "type": "function"
    },
    {
      "inputs": [
        {
          "internalType": "address",
          "name": "_studentAddress",
          "type": "address"
        },
        {
          "internalType": "string",
          "name": "_description",
          "type": "string"
        }
      ],
      "name": "recordDiscipline",
      "outputs": [],
      "stateMutability": "nonpayable",
      "type": "function"
    }
  ],
  "bytecode": "0x6080806040523461001657610532908161001c8239f35b600080fdfe6040608081526004908136101561001557600080fd5b6000907c0100000000000000000000000000000000000000000000000000000000823504806303d56f74146102d95763e83b682a1461005357600080fd5b346102d557806003193601126102d55761006b610426565b60249167ffffffffffffffff918335918383116102d157366023840112156102d15782870135928484116102bc57815195602092601f1995601f936100b6868987850116018b6104c1565b818a52368483830101116102b857818b9285889301838d01378a01015273ffffffffffffffffffffffffffffffffffffffff80951694858a52898552818a2095825192808401908482108b8311176102a25752825284820198895285546801000000000000000081101561028d5761013590600197888201815561044e565b9290926102795790869291511673ffffffffffffffffffffffffffffffffffffffff198254161781550196519889519687116102655750506101778654610483565b818111610224575b5081938186116001146101bf57505050508394829394926101b4575b5050816002029160080260020a60001904191617905580f35b01519050388061019b565b85949192939516978688528388209388905b8a821061020d57505084600296979899106101f2575b505050500201905580f35b0151908316600802840a6000190419169055388080806101e7565b8088859782949686015181550196019301906101d1565b868852828820838381818a0104830193828a1061025c575b0104019084905b82811061025157505061017f565b898155018490610243565b9350829361023c565b6041899160e060020a634e487b7102835252fd5b838b808e60e060020a634e487b7102825252fd5b838b60418e60e060020a634e487b7102835252fd5b50848c60418f60e060020a634e487b7102835252fd5b8a80fd5b858760418a60e060020a634e487b7102835252fd5b8580fd5b5080fd5b50346102d557806003193601126102d5576102f2610426565b9160243573ffffffffffffffffffffffffffffffffffffffff80941682526020908282528383208054821015610422579061032c9161044e565b509384541693600180910184518092859083549361034985610483565b948585528783821691826000146104015750506001146103c5575b5050610378925096949295939603856104c1565b81519485938452828185015284518093850152815b8381106103ae57505060608094508284010152601f80199101168101030190f35b80860182015187820160600152869450810161038d565b86925087528187209087915b8583106103e957505061037893508201018880610364565b805483880185015286945087939092019181016103d1565b925093505061037894915060ff191682840152151581028201018880610364565b8380fd5b6004359073ffffffffffffffffffffffffffffffffffffffff8216820361044957565b600080fd5b805482101561046a576000526002602060002091020190600090565b60e060020a634e487b7102600052603260045260246000fd5b90600160028304921680156104b7575b602083101461049e57565b60e060020a634e487b7102600052602260045260246000fd5b91607f1691610493565b90601f8019910116810190811067ffffffffffffffff8211176104e357604052565b60e060020a634e487b7102600052604160045260246000fdfea26469706673582212206dd9b5db5605bc59ca24eca21d3059aaa903a5588f2535c90aab99733ae2fe3364736f6c63430008130033",
  "immutableReferences": {},
  "source": "// SPDX-License-Identifier: MIT\npragma solidity ^0.8.19;\n\ncontract Academic {\n    struct StudentDiscipline {\n        address studentAddress;\n        string description;\n        // Add more fields as needed\n    }\n\n    mapping(address => StudentDiscipline[]) public disciplineRecords;\n\n    function recordDiscipline(address _studentAddress, string memory _description) public {\n        disciplineRecords[_studentAddress].push(StudentDiscipline({\n            studentAddress: _studentAddress,\n            description: _description\n        }));\n    }\n\n    // Add more functions for recording student discipline\n}",
  "sourcePath": "/home/zeflojujo/school_management_system/Eazy_School/contracts/Academics.sol",
  "compiler": {
    "name": "solc",
    "version": "0.8.19+commit.7dd6d404.Emscripten.clang"
  },
  "schemaVersion": "3.4.16",
  "updatedAt": "2024-04-24T10:47:32.134Z",
  "devdoc": {
    "kind": "dev",
    "methods": {},
    "version": 1
  },
  "userdoc": {
    "kind": "user",
    "methods": {},
    "version": 1
  }
}