{
  "contractName": "Accountants",
  "abi": [
    {
      "anonymous": false,
      "inputs": [
        {
          "indexed": true,
          "internalType": "address",
          "name": "accountantAddress",
          "type": "address"
        }
      ],
      "name": "deletedAccountant",
      "type": "event"
    },
    {
      "inputs": [
        {
          "internalType": "address",
          "name": "",
          "type": "address"
        }
      ],
      "name": "accountants",
      "outputs": [
        {
          "internalType": "address",
          "name": "accountantAddress",
          "type": "address"
        },
        {
          "internalType": "string",
          "name": "name",
          "type": "string"
        },
        {
          "internalType": "string",
          "name": "email",
          "type": "string"
        },
        {
          "internalType": "string",
          "name": "phoneNumber",
          "type": "string"
        },
        {
          "internalType": "string",
          "name": "password",
          "type": "string"
        },
        {
          "internalType": "bool",
          "name": "isRegistered",
          "type": "bool"
        },
        {
          "internalType": "bool",
          "name": "isLogin",
          "type": "bool"
        },
        {
          "internalType": "bool",
          "name": "isDeleted",
          "type": "bool"
        }
      ],
      "stateMutability": "view",
      "type": "function"
    },
    {
      "inputs": [
        {
          "internalType": "address",
          "name": "_accountantAddress",
          "type": "address"
        },
        {
          "internalType": "string",
          "name": "_name",
          "type": "string"
        },
        {
          "internalType": "string",
          "name": "_email",
          "type": "string"
        },
        {
          "internalType": "string",
          "name": "_phoneNumber",
          "type": "string"
        },
        {
          "internalType": "string",
          "name": "_password",
          "type": "string"
        }
      ],
      "name": "registerAccountant",
      "outputs": [],
      "stateMutability": "nonpayable",
      "type": "function"
    },
    {
      "inputs": [
        {
          "internalType": "address",
          "name": "_accountantAddress",
          "type": "address"
        }
      ],
      "name": "deleteAccountant",
      "outputs": [],
      "stateMutability": "nonpayable",
      "type": "function"
    },
    {
      "inputs": [
        {
          "internalType": "address",
          "name": "_accountantAddress",
          "type": "address"
        },
        {
          "internalType": "string",
          "name": "_password",
          "type": "string"
        }
      ],
      "name": "accountantLogin",
      "outputs": [],
      "stateMutability": "nonpayable",
      "type": "function"
    },
    {
      "inputs": [],
      "name": "getAccountantArray",
      "outputs": [
        {
          "internalType": "address[]",
          "name": "",
          "type": "address[]"
        }
      ],
      "stateMutability": "view",
      "type": "function"
    },
    {
      "inputs": [
        {
          "internalType": "address",
          "name": "_accountantAddress",
          "type": "address"
        }
      ],
      "name": "getAccountant",
      "outputs": [
        {
          "internalType": "address",
          "name": "accountantAddress",
          "type": "address"
        },
        {
          "internalType": "string",
          "name": "name",
          "type": "string"
        },
        {
          "internalType": "string",
          "name": "email",
          "type": "string"
        },
        {
          "internalType": "string",
          "name": "phoneNumber",
          "type": "string"
        },
        {
          "internalType": "bool",
          "name": "isDeleted",
          "type": "bool"
        }
      ],
      "stateMutability": "view",
      "type": "function"
    }
  ],
  "bytecode": "0x608080604052346100285760008054600160a060020a03191633179055610eac908161002e8239f35b600080fdfe604060808152600436101561001357600080fd5b7c0100000000000000000000000000000000000000000000000000000000600035048063124b3c21146105c75780633568ecfa146104d557806344dc7515146103365780636535ffc31461022b578063d7258396146101655763f707fb4a1461007b57600080fd5b3461016057602036600319011261016057600160a060020a03908161009e610c89565b16600052600160205280600020918254169060ff620100006100c260018601610dd1565b928261013e6100d360028901610dd1565b976101306100e360038301610dd1565b61012260056100f460048601610dd1565b9401549680519c8d9c8d528c6101166101009d8e806020850152830190610d58565b92818403910152610d58565b908a820360608c0152610d58565b9088820360808a0152610d58565b94818316151560a0880152820416151560c08601520416151560e08301520390f35b600080fd5b50346101605760003660031901126101605780519081600254908181526020809101809260026000527f405787fa12a823e0f2b7631cc41b3ba8828b3321ca811111fa75cd3aa3bb5ace9060005b81811061020e57505050846101c9910385610cbc565b8251818152935181850181905284938401929160005b8281106101ee57505050500390f35b8351600160a060020a0316855286955093810193928101926001016101df565b8254600160a060020a0316845292840192600192830192016101b3565b503461016057602036600319011261016057600160a060020a03908161024f610c89565b1660005260016020528060002061032c82519161026b83610c9f565b84815416835261031e61028060018301610dd1565b946020850195865261029460028401610dd1565b9681860197885260ff6201000060056102af60038801610dd1565b9660608a019788526102c360048201610dd1565b60808b01520154828116151560a08a015282610100820416151560c08a015204161515958660e08201525116955196519251926103118251988998895260a060208a015260a0890190610d58565b9187830390880152610d58565b908482036060860152610d58565b9060808301520390f35b503461016057806003193601126101605761034f610c89565b60243567ffffffffffffffff811161016057610377600160a060020a03913690600401610cde565b91168060005260209160018352600160ff6005866000200154161515036104785781600052600183526103af60048560002001610dd1565b84516103d78582816103ca8183019687815193849201610d35565b8101038084520182610cbc565b5190209084516103f68582816103ca8183019687815193849201610d35565b5190200361041b576000908152600190915220600501805461ff001916610100179055005b5060649151907f08c379a00000000000000000000000000000000000000000000000000000000082526004820152601b60248201527f496e76616c69642061646472657373206f722070617373776f726400000000006044820152fd5b6064838551907f08c379a00000000000000000000000000000000000000000000000000000000082526004820152601860248201527f596f7572206e6f742072656769737465726564207965742100000000000000006044820152fd5b503461016057602036600319011261016057600160a060020a036104f7610c89565b1690816000526001602052620100009060ff826005836000200154041661056a5782600052600160205260002090600582019062ff000019825416179055600160a060020a031981541690557fcf38c1769d07df6073cd3eb8a861eccbe972dc6dc43b04d4a0f62177a53ce2a2600080a2005b606490517f08c379a000000000000000000000000000000000000000000000000000000000815260206004820152601660248201527f5465616368657220646f6573206e6f74206578697374000000000000000000006044820152fd5b50346101605760a0366003190112610160576105e1610c89565b9060243567ffffffffffffffff811161016057610602903690600401610cde565b9060443567ffffffffffffffff811161016057610623903690600401610cde565b9160643567ffffffffffffffff811161016057610644903690600401610cde565b9160843567ffffffffffffffff811161016057610665903690600401610cde565b81519361067185610c9f565b600160a060020a03958688168652602086019485528386015260608501526080840152600160a0840152600060c0840152600060e08401528385166000526001602052806000209184845116600160a060020a03198454161783555180519067ffffffffffffffff821161091c5781906106ee6001860154610d7d565b601f8111610c36575b50602090601f8311600114610bc257600092610bb7575b5050816002029160080260020a6000190419161760018301555b82015180519067ffffffffffffffff821161091c57819061074c6002850154610d7d565b601f8111610b64575b50602090601f8311600114610af057600092610ae5575b5050816002029160080260020a6000190419161760028201555b606082015180519067ffffffffffffffff821161091c5781906107ac6003850154610d7d565b601f8111610a92575b50602090601f8311600114610a1e57600092610a13575b5050816002029160080260020a6000190419161760038201555b608082015180519067ffffffffffffffff821161091c5761080a6004840154610d7d565b601f81116109cc575b50602090601f83116001146109565760059392916000918361094b575b5050816002029160080260020a6000190419161760048201555b019060a0810151151590825460ff62ff00006201000060e061ff0061010060c0880151151502169501511515021693169062ffffff191617171790556002546801000000000000000081101561091c5760018101806002558110156108ed577f405787fa12a823e0f2b7631cc41b3ba8828b3321ca811111fa75cd3aa3bb5ace01805473ffffffffffffffffffffffffffffffffffffffff191691909216179055005b7f4e487b7100000000000000000000000000000000000000000000000000000000600052603260045260246000fd5b7f4e487b7100000000000000000000000000000000000000000000000000000000600052604160045260246000fd5b015190503880610830565b906004840160005260206000209160005b601f19851681106109b45750926001926002926005969583601f19811610610999575b5050500201600482015561084a565b01516008601f841602840a600019041916905538808061098a565b91926020600181928685015181550194019201610967565b6004840160005260206000206020601f850104810160208510610a0c575b6020601f84010482018110610a00575050610813565b600081556001016109ea565b50806109ea565b0151905038806107cc565b91506003840160005260206000209160005b601f1985168110610a7a5750918391600293600195601f19811610610a5f575b505050020160038201556107e6565b01516008601f841602840a6000190419169055388080610a50565b91926020600181928685015181550194019201610a30565b9091506003840160005260206000206020601f850104810160208510610ade575b90849392915b6020601f84010482018110610acf5750506107b5565b60008155859450600101610ab9565b5080610ab3565b01519050388061076c565b91506002840160005260206000209160005b601f1985168110610b4c5750918391600293600195601f19811610610b31575b50505002016002820155610786565b01516008601f841602840a6000190419169055388080610b22565b91926020600181928685015181550194019201610b02565b9091506002840160005260206000206020601f850104810160208510610bb0575b90849392915b6020601f84010482018110610ba1575050610755565b60008155859450600101610b8b565b5080610b85565b01519050388061070e565b91506001850160005260206000209160005b601f1985168110610c1e5750918391600293600195601f19811610610c03575b50505002016001830155610728565b01516008601f841602840a6000190419169055388080610bf4565b91926020600181928685015181550194019201610bd4565b9091506001850160005260206000206020601f850104810160208510610c82575b90849392915b6020601f84010482018110610c735750506106f7565b60008155859450600101610c5d565b5080610c57565b60043590600160a060020a038216820361016057565b610100810190811067ffffffffffffffff82111761091c57604052565b90601f8019910116810190811067ffffffffffffffff82111761091c57604052565b81601f820112156101605780359067ffffffffffffffff821161091c5760405192610d13601f8401601f191660200185610cbc565b8284526020838301011161016057816000926020809301838601378301015290565b60005b838110610d485750506000910152565b8181015183820152602001610d38565b90602091610d7181518092818552858086019101610d35565b601f01601f1916010190565b9060016002830492168015610dc7575b6020831014610d9857565b7f4e487b7100000000000000000000000000000000000000000000000000000000600052602260045260246000fd5b91607f1691610d8d565b9060405191826000825492610de584610d7d565b908184526001948581169081600014610e545750600114610e11575b5050610e0f92500383610cbc565b565b9093915060005260209081600020936000915b818310610e3c575050610e0f93508201013880610e01565b85548884018501529485019487945091830191610e24565b915050610e0f94506020925060ff191682840152151581028201013880610e0156fea2646970667358221220c719a735b673cac4ab1119b3f3d33c7cf10ebd1335cb8667c10344051f339a8d64736f6c63430008130033",
  "immutableReferences": {},
  "source": "// SPDX-License-Identifier: MIT\npragma solidity ^0.8.19;\nimport \"./AccessControl.sol\";\n\ncontract Accountants is AccessControl{\n\n    event deletedAccountant(address indexed accountantAddress);\n\n    struct Accountant {\n        address accountantAddress;\n        string name;\n        string email;\n        string phoneNumber;\n        string password;\n        bool isRegistered;\n        bool isLogin;\n        bool isDeleted;\n    }\n\n    mapping(address => Accountant) public accountants;\n\n    address[] private accountantAddressArray;\n\n    function registerAccountant(address _accountantAddress, string memory _name, string memory _email, string memory _phoneNumber, string memory _password) public {\n        accountants[_accountantAddress] = Accountant({\n            accountantAddress: _accountantAddress,\n            name: _name,\n            email: _email,\n            phoneNumber: _phoneNumber,\n            password: _password,\n            isRegistered: true,\n            isLogin: false,\n            isDeleted: false\n        });\n        accountantAddressArray.push(_accountantAddress);\n    }\n\n    function deleteAccountant(address _accountantAddress) external {\n        require(!accountants[_accountantAddress].isDeleted, \"Teacher does not exist\");\n        Accountant storage accountant = accountants[_accountantAddress];\n        accountant.isDeleted = true;\n        delete(accountant.accountantAddress);\n        // accountants[_accountantAddress] = accountant;\n        emit deletedAccountant(_accountantAddress);\n    }\n\n    function  accountantLogin(address _accountantAddress, string memory _password) external {\n        require(accountants[_accountantAddress].isRegistered == true, \"Your not registered yet!\");\n        // require(accountants[_accountantAddress].isLogin == false, \"Your Already login\");\n        require(compareString(accountants[_accountantAddress].password, _password), \"Invalid address or password\");\n        \n        accountants[_accountantAddress].isLogin = true;\n    }\n\n    function getAccountantArray() external view returns(address[] memory) {\n        return accountantAddressArray;\n    }\n\n    function getAccountant(address _accountantAddress) external view returns(\n        address accountantAddress,\n        string memory name,\n        string memory email,\n        string memory phoneNumber,\n        bool isDeleted\n    ) {\n        Accountant memory accountant = accountants[_accountantAddress];\n        accountantAddress = accountant.accountantAddress;\n        name = accountant.name;\n        email = accountant.email;\n        phoneNumber = accountant.phoneNumber;\n        isDeleted = accountant.isDeleted;\n    }\n}\n",
  "sourcePath": "/home/zeflojujo/school_management_system/Eazy_School/contracts/Accountants.sol",
  "compiler": {
    "name": "solc",
    "version": "0.8.19+commit.7dd6d404.Emscripten.clang"
  },
  "schemaVersion": "3.4.16",
  "updatedAt": "2024-05-03T09:31:30.009Z",
  "devdoc": {
    "kind": "dev",
    "methods": {},
    "version": 1
  },
  "userdoc": {
    "kind": "user",
    "methods": {},
    "version": 1
  }
}