{
  "contractName": "Admins",
  "abi": [
    {
      "inputs": [],
      "stateMutability": "nonpayable",
      "type": "constructor"
    },
    {
      "inputs": [
        {
          "internalType": "address",
          "name": "newAdmin",
          "type": "address"
        }
      ],
      "name": "changeAdmin",
      "outputs": [],
      "stateMutability": "nonpayable",
      "type": "function"
    },
    {
      "inputs": [
        {
          "internalType": "string",
          "name": "_classLevel",
          "type": "string"
        }
      ],
      "name": "addStudentClass",
      "outputs": [],
      "stateMutability": "nonpayable",
      "type": "function"
    },
    {
      "inputs": [],
      "name": "getStudentClassArray",
      "outputs": [
        {
          "internalType": "uint256[]",
          "name": "",
          "type": "uint256[]"
        }
      ],
      "stateMutability": "view",
      "type": "function",
      "constant": true
    },
    {
      "inputs": [
        {
          "internalType": "uint256",
          "name": "_classId",
          "type": "uint256"
        }
      ],
      "name": "getStudentClass",
      "outputs": [
        {
          "internalType": "uint256",
          "name": "classID",
          "type": "uint256"
        },
        {
          "internalType": "string",
          "name": "classLevel",
          "type": "string"
        }
      ],
      "stateMutability": "view",
      "type": "function",
      "constant": true
    },
    {
      "inputs": [
        {
          "internalType": "uint256",
          "name": "_year",
          "type": "uint256"
        }
      ],
      "name": "addStudentYear",
      "outputs": [],
      "stateMutability": "nonpayable",
      "type": "function"
    },
    {
      "inputs": [],
      "name": "getStudentYearsArray",
      "outputs": [
        {
          "internalType": "uint256[]",
          "name": "",
          "type": "uint256[]"
        }
      ],
      "stateMutability": "view",
      "type": "function",
      "constant": true
    },
    {
      "inputs": [
        {
          "internalType": "uint256",
          "name": "_yearId",
          "type": "uint256"
        }
      ],
      "name": "getStudentYears",
      "outputs": [
        {
          "internalType": "uint256",
          "name": "yearID",
          "type": "uint256"
        },
        {
          "internalType": "uint256",
          "name": "year",
          "type": "uint256"
        }
      ],
      "stateMutability": "view",
      "type": "function",
      "constant": true
    },
    {
      "inputs": [
        {
          "internalType": "string",
          "name": "_combinationName",
          "type": "string"
        }
      ],
      "name": "addStudentCombination",
      "outputs": [],
      "stateMutability": "nonpayable",
      "type": "function"
    },
    {
      "inputs": [],
      "name": "getStudentCombinationArray",
      "outputs": [
        {
          "internalType": "uint256[]",
          "name": "",
          "type": "uint256[]"
        }
      ],
      "stateMutability": "view",
      "type": "function",
      "constant": true
    },
    {
      "inputs": [
        {
          "internalType": "uint256",
          "name": "_combinationId",
          "type": "uint256"
        }
      ],
      "name": "getStudentCombination",
      "outputs": [
        {
          "internalType": "uint256",
          "name": "combinationID",
          "type": "uint256"
        },
        {
          "internalType": "string",
          "name": "combinationName",
          "type": "string"
        }
      ],
      "stateMutability": "view",
      "type": "function",
      "constant": true
    },
    {
      "inputs": [
        {
          "internalType": "string",
          "name": "_subjectName",
          "type": "string"
        }
      ],
      "name": "addStudentSubject",
      "outputs": [],
      "stateMutability": "nonpayable",
      "type": "function"
    },
    {
      "inputs": [],
      "name": "getStudentSubjectArray",
      "outputs": [
        {
          "internalType": "uint256[]",
          "name": "",
          "type": "uint256[]"
        }
      ],
      "stateMutability": "view",
      "type": "function",
      "constant": true
    },
    {
      "inputs": [
        {
          "internalType": "uint256",
          "name": "_subjectId",
          "type": "uint256"
        }
      ],
      "name": "getStudentSubject",
      "outputs": [
        {
          "internalType": "uint256",
          "name": "subjectID",
          "type": "uint256"
        },
        {
          "internalType": "string",
          "name": "subjectName",
          "type": "string"
        }
      ],
      "stateMutability": "view",
      "type": "function",
      "constant": true
    },
    {
      "inputs": [
        {
          "internalType": "string",
          "name": "_classLevel",
          "type": "string"
        },
        {
          "internalType": "string",
          "name": "_subjectName",
          "type": "string"
        },
        {
          "internalType": "uint256",
          "name": "_fullMark",
          "type": "uint256"
        },
        {
          "internalType": "uint256",
          "name": "_passMark",
          "type": "uint256"
        }
      ],
      "name": "addSubjectDetails",
      "outputs": [],
      "stateMutability": "nonpayable",
      "type": "function"
    },
    {
      "inputs": [],
      "name": "getSubjectDetailsArray",
      "outputs": [
        {
          "internalType": "uint256[]",
          "name": "",
          "type": "uint256[]"
        }
      ],
      "stateMutability": "view",
      "type": "function",
      "constant": true
    },
    {
      "inputs": [
        {
          "internalType": "uint256",
          "name": "_subjectDetailId",
          "type": "uint256"
        }
      ],
      "name": "getSubjectDetails",
      "outputs": [
        {
          "internalType": "uint256",
          "name": "subjectDetailID",
          "type": "uint256"
        },
        {
          "internalType": "string",
          "name": "classLevel",
          "type": "string"
        },
        {
          "internalType": "string",
          "name": "subjectName",
          "type": "string"
        },
        {
          "internalType": "uint256",
          "name": "fullMark",
          "type": "uint256"
        },
        {
          "internalType": "uint256",
          "name": "passMark",
          "type": "uint256"
        }
      ],
      "stateMutability": "view",
      "type": "function",
      "constant": true
    },
    {
      "inputs": [
        {
          "internalType": "string",
          "name": "_examTypeName",
          "type": "string"
        }
      ],
      "name": "addExamType",
      "outputs": [],
      "stateMutability": "nonpayable",
      "type": "function"
    },
    {
      "inputs": [],
      "name": "getExamTypeArray",
      "outputs": [
        {
          "internalType": "uint256[]",
          "name": "",
          "type": "uint256[]"
        }
      ],
      "stateMutability": "view",
      "type": "function",
      "constant": true
    },
    {
      "inputs": [
        {
          "internalType": "uint256",
          "name": "_examTypeId",
          "type": "uint256"
        }
      ],
      "name": "getExamType",
      "outputs": [
        {
          "internalType": "uint256",
          "name": "examTypeID",
          "type": "uint256"
        },
        {
          "internalType": "string",
          "name": "examTypeName",
          "type": "string"
        }
      ],
      "stateMutability": "view",
      "type": "function",
      "constant": true
    },
    {
      "inputs": [
        {
          "internalType": "string",
          "name": "_feeCategoryName",
          "type": "string"
        }
      ],
      "name": "addFeeCategory",
      "outputs": [],
      "stateMutability": "nonpayable",
      "type": "function"
    },
    {
      "inputs": [],
      "name": "getFeeCategoryArray",
      "outputs": [
        {
          "internalType": "uint256[]",
          "name": "",
          "type": "uint256[]"
        }
      ],
      "stateMutability": "view",
      "type": "function",
      "constant": true
    },
    {
      "inputs": [
        {
          "internalType": "uint256",
          "name": "_feeCategoryId",
          "type": "uint256"
        }
      ],
      "name": "getFeeCategory",
      "outputs": [
        {
          "internalType": "uint256",
          "name": "feeCategoryID",
          "type": "uint256"
        },
        {
          "internalType": "string",
          "name": "feeCategoryName",
          "type": "string"
        }
      ],
      "stateMutability": "view",
      "type": "function",
      "constant": true
    },
    {
      "inputs": [
        {
          "internalType": "string",
          "name": "_feeCategoryName",
          "type": "string"
        },
        {
          "internalType": "string",
          "name": "_studentClass",
          "type": "string"
        },
        {
          "internalType": "uint256",
          "name": "_amount",
          "type": "uint256"
        }
      ],
      "name": "addFeeAmount",
      "outputs": [],
      "stateMutability": "nonpayable",
      "type": "function"
    },
    {
      "inputs": [],
      "name": "getFeeAmountArray",
      "outputs": [
        {
          "internalType": "uint256[]",
          "name": "",
          "type": "uint256[]"
        }
      ],
      "stateMutability": "view",
      "type": "function",
      "constant": true
    },
    {
      "inputs": [
        {
          "internalType": "uint256",
          "name": "_feeAmountId",
          "type": "uint256"
        }
      ],
      "name": "getFeeAmount",
      "outputs": [
        {
          "internalType": "uint256",
          "name": "feeAmountID",
          "type": "uint256"
        },
        {
          "internalType": "string",
          "name": "categoryName",
          "type": "string"
        },
        {
          "internalType": "string",
          "name": "studentClass",
          "type": "string"
        },
        {
          "internalType": "uint256",
          "name": "amount",
          "type": "uint256"
        }
      ],
      "stateMutability": "view",
      "type": "function",
      "constant": true
    },
    {
      "inputs": [
        {
          "internalType": "address",
          "name": "_SOPublicAddress",
          "type": "address"
        },
        {
          "internalType": "string",
          "name": "_password",
          "type": "string"
        }
      ],
      "name": "systemOwnerLogin",
      "outputs": [],
      "stateMutability": "nonpayable",
      "type": "function"
    }
  ],
  "bytecode": "0x608034620002b85760008054600160a060020a0319908116331782559160808101916001604060020a03808411838510176200025e576040938452338352835194848601868110838211176200028b578552600586526020937f61646d696e0000000000000000000000000000000000000000000000000000008588015286858201528581018481526060820194600191828752600160a060020a03809451168584541617835589519586116200025e57600295620000bf8754620002bd565b601f811162000215575b50889a601f8211600114620001a75791816004928c9d869560ff9e97926200019b575b5050600882028a0a6000190419169089021788555b511515986003549961ff009a8b610100809c51151502169161ffff199d8e91169116171760035585835416835252209281840362000149575b885161190a9081620004828239f35b620001609282541690845416178355820162000314565b019260ff6003541615159260ff85549416928360ff19861617865560ff8160035404161515021692161717905538808080808080806200013a565b015190503880620000ec565b8784528984209b90601f198316855b818110620001ff5750838d9e60ff9e97969489946004978e9510620001e3575b5050500201885562000101565b01516008601f841602840a6000190419169055388080620001d6565b838301518f559d87019d928c01928c01620001b6565b8784528984208a80601f85010482019281851062000253575b601f0104019085905b82811062000247575050620000c9565b85815501859062000237565b91925082916200022e565b6024827f4e487b710000000000000000000000000000000000000000000000000000000081526041600452fd5b6024847f4e487b710000000000000000000000000000000000000000000000000000000081526041600452fd5b600080fd5b906001600283049216801562000309575b6020831014620002da57565b7f4e487b7100000000000000000000000000000000000000000000000000000000600052602260045260246000fd5b91607f1691620002ce565b906002918281146200047c576200032c8354620002bd565b6001604060020a0381116200044d57620003478254620002bd565b601f8111620003ff575b50600093601f82116001146200038f578192939460009262000383575b5082810292600802900a600019041916179055565b8101549150386200036e565b90601f198116948281526020908181208582528282209282905b898210620003e557505083600196979810620003c9575b50505002019055565b01546008601f841602840a6000190419169055388080620003c0565b8394819294840154815560018091019501930190620003a9565b6000838152602081206020601f8501048101926020851062000442575b601f602091010401915b8281106200043657505062000351565b81815560010162000426565b90925082906200041c565b7f4e487b7100000000000000000000000000000000000000000000000000000000600052604160045260246000fd5b50905056fe604060808152600436101561001357600080fd5b7c01000000000000000000000000000000000000000000000000000000006000350480620be8831461148057806319c1434c146114065780632012a2681461135a5780632d4657d5146112a55780632fb79b1f1461122b578063342bc1c8146111b1578063358650171461118857806357dd09331461110e5780636e247e7a1461105957806371f9a4b814611030578063768468d514610f965780637830cb8514610f1c5780638b9949a414610e675780638c19a53614610ded5780638f28397014610d8c578063934fa4c814610cd75780639704122c14610c3c5780639bd3373914610bc25780639c3a954c1461088e578063b954cf9614610541578063c66ba7d8146104f8578063c87203da14610474578063c9da16a51461038d578063cfc09701146101cf578063e70ca3ad146101a65763ec5f35521461015657600080fd5b346101a15760203660031901126101a157600435600052600d60205261017e816000206118af565b61019d60208251920151835193849384528060208501528301906114cc565b0390f35b600080fd5b50346101a15760203660031901126101a157600435600052600960205261017e816000206118af565b50346101a157806003193601126101a1576101e86115f9565b60243567ffffffffffffffff81116101a1576102089036906004016115a2565b9073ffffffffffffffffffffffffffffffffffffffff9061022e8260005416331461161c565b168060005260209160048352600160ff610100600287600020015404161515036103305781600052600483526102696001856000200161180a565b845161029185828161028481830196878151938492016114a9565b8101038084520182611580565b5190209084516102b085828161028481830196878151938492016114a9565b519020036102d3576000908152600490915220600201805460ff19166001179055005b5060649151907f08c379a00000000000000000000000000000000000000000000000000000000082526004820152601b60248201527f496e76616c69642061646472657373206f722070617373776f726400000000006044820152fd5b6064838551907f08c379a00000000000000000000000000000000000000000000000000000000082526004820152601860248201527f596f7572206e6f742072656769737465726564207965742100000000000000006044820152fd5b50346101a15760203660031901126101a1576004359067ffffffffffffffff82116101a1576103c36103f79236906004016115a2565b906103cf601c54611681565b80601c558151926103df84611548565b8184526020840152600052600a6020526000206116e7565b601c546013546801000000000000000081101561045b576001810180601355811015610442577f66de8ffda797e3de9c05e8fc57b3bf0ec28a930d40b0d285d93c06501cf6a0900155005b60e060020a634e487b7102600052603260045260246000fd5b60e060020a634e487b7102600052604160045260246000fd5b50346101a15760003660031901126101a1578051601080548083526000918252602080840194927f1b6847dc741a1b0cd08d278845f9d819d87b734759afb55fe2de5cb82a9ae67292915b8282106104e15761019d86866104d7828b0383611580565b51918291826114f1565b8354875295860195600193840193909101906104bf565b50346101a15760203660031901126101a1576004356000526006602052806000206020825161052681611548565b60018354938483520154918291015282519182526020820152f35b50346101a15760803660031901126101a15760043567ffffffffffffffff81116101a1576105739036906004016115a2565b60243567ffffffffffffffff81116101a1576105939036906004016115a2565b61059e601d54611681565b80601d558351916105ae8361152c565b818352602083019384528483015260443560608301526064356080830152600052600b6020528260002091815183555180519067ffffffffffffffff821161045b5781906105ff60018601546116a9565b601f8111610838575b50602090601f83116001146107c8576000926107bd575b5050816002029160080260020a6000190419161760018301555b600282019281015192835167ffffffffffffffff811161045b5761065d82546116a9565b601f8111610774575b506020601f82116001146107035790806080949392600496976000926106f8575b5050816002029160080260020a6000190419161790555b606081015160038501550151910155601d546014546801000000000000000081101561045b576001810180601455811015610442577fce6d7b5282bd9a3661ae061feed1dbda4e52ab073b1f9285be6e155d9c38d4ec0155005b015190503880610687565b601f198216958360005260206000209660005b81811061075c5750926004969760019360029383608099989710610741575b5050500201905561069e565b01516008601f841602840a6000190419169055388080610735565b83830151895560019098019760209384019301610716565b8260005260206000206020601f840104810191602084106107b3575b601f602091010401905b8181106107a75750610666565b6000815560010161079a565b9091508190610790565b01519050388061061f565b600186016000908152602081209350601f198516905b81811061082057509160029391856001969410610805575b50505002016001830155610639565b01516008601f841602840a60001904191690553880806107f6565b929360206001819287860151815501950193016107de565b9091506001850160005260206000206020601f85010481019160208510610884575b906020601f86959493010401905b8181106108755750610608565b60008155849350600101610868565b909150819061085a565b50346101a15760603660031901126101a15760043567ffffffffffffffff81116101a1576108c09036906004016115a2565b9060243567ffffffffffffffff81116101a1576108e19036906004016115a2565b916108ed601854611681565b90816018558251926108fe84611564565b82845260208401918252808401948552606084019260443584526000526008602052600020925183555180519067ffffffffffffffff821161045b57819061094960018601546116a9565b601f8111610b6c575b50602090601f8311600114610afc57600092610af1575b5050816002029160080260020a6000190419161760018301555b60028201925192835167ffffffffffffffff811161045b576109a582546116a9565b601f8111610aa8575b506020601f8211600114610a3b57819060039596600092610a30575b5050816002029160080260020a6000190419161790555b519101556018546010546801000000000000000081101561045b576001810180601055811015610442577f1b6847dc741a1b0cd08d278845f9d819d87b734759afb55fe2de5cb82a9ae6720155005b0151905038806109ca565b601f198216958360005260206000209660005b818110610a9057509660029284926001956003999a10610a75575b505050020190556109e1565b01516008601f841602840a6000190419169055388080610a69565b83830151895560019098019760209384019301610a4e565b8260005260206000206020601f84010481019160208410610ae7575b601f602091010401905b818110610adb57506109ae565b60008155600101610ace565b9091508190610ac4565b015190503880610969565b600186016000908152602081209350601f198516905b818110610b5457509160029391856001969410610b39575b50505002016001830155610983565b01516008601f841602840a6000190419169055388080610b2a565b92936020600181928786015181550195019301610b12565b9091506001850160005260206000206020601f85010481019160208510610bb8575b906020601f86959493010401905b818110610ba95750610952565b60008155849350600101610b9c565b9091508190610b8e565b50346101a15760003660031901126101a1578051601180548083526000918252602080840194927f31ecc21a745e3968a04e9570e4425bc18fa8019c68028196b546d1669c200c6892915b828210610c255761019d86866104d7828b0383611580565b835487529586019560019384019390910190610c0d565b50346101a15760203660031901126101a157600435600052600860205280600020908051610c6981611564565b82548152610ccd610c7c6001850161180a565b92602083019384526003610c926002870161180a565b95868386015201549283606082015251935194610cc0825196879687526080602088015260808701906114cc565b91858303908601526114cc565b9060608301520390f35b50346101a15760203660031901126101a1576004359067ffffffffffffffff82116101a157610d0d610d419236906004016115a2565b90610d19601754611681565b80601755815192610d2984611548565b818452602084015260005260076020526000206116e7565b601754600f546801000000000000000081101561045b576001810180600f55811015610442577f8d1108e10bcb7c27dddfc02ed9d693a074039d026cf4ea4240b40f7d581ac8020155005b346101a15760203660031901126101a157610da56115f9565b6000549073ffffffffffffffffffffffffffffffffffffffff90610dcc828416331461161c565b73ffffffffffffffffffffffffffffffffffffffff19909216911617600055005b50346101a15760003660031901126101a1578051601280548083526000918252602080840194927fbb8a6a4669ba250d26cd7a459eca9d215f8307e33aebe50379bc5a3617ec344492915b828210610e505761019d86866104d7828b0383611580565b835487529586019560019384019390910190610e38565b50346101a15760203660031901126101a1576004359067ffffffffffffffff82116101a157610e9d610ed19236906004016115a2565b90610ea9601954611681565b80601955815192610eb984611548565b818452602084015260005260056020526000206116e7565b601954600e546801000000000000000081101561045b576001810180600e55811015610442577fbb7b4a454dc3493923482f07822329ed19e8244eff582cc204f8554c3620c3fd0155005b50346101a15760003660031901126101a1578051601480548083526000918252602080840194927fce6d7b5282bd9a3661ae061feed1dbda4e52ab073b1f9285be6e155d9c38d4ec92915b828210610f7f5761019d86866104d7828b0383611580565b835487529586019560019384019390910190610f67565b50346101a15760203660031901126101a1576001610fb5601a54611681565b80601a55825192610fc584611548565b8184526020840191600435835260005260066020526000209251835551910155601a546011546801000000000000000081101561045b576001810180601155811015610442577f31ecc21a745e3968a04e9570e4425bc18fa8019c68028196b546d1669c200c680155005b50346101a15760203660031901126101a157600435600052600760205261017e816000206118af565b50346101a15760203660031901126101a1576004359067ffffffffffffffff82116101a15761108f6110c39236906004016115a2565b9061109b601f54611681565b80601f558151926110ab84611548565b8184526020840152600052600d6020526000206116e7565b601f546016546801000000000000000081101561045b576001810180601655811015610442577fd833147d7dc355ba459fc788f669e58cfaf9dc25ddcd0702e87d69c7b51242890155005b50346101a15760003660031901126101a1578051600f80548083526000918252602080840194927f8d1108e10bcb7c27dddfc02ed9d693a074039d026cf4ea4240b40f7d581ac80292915b8282106111715761019d86866104d7828b0383611580565b835487529586019560019384019390910190611159565b50346101a15760203660031901126101a157600435600052600560205261017e816000206118af565b50346101a15760003660031901126101a1578051600e80548083526000918252602080840194927fbb7b4a454dc3493923482f07822329ed19e8244eff582cc204f8554c3620c3fd92915b8282106112145761019d86866104d7828b0383611580565b8354875295860195600193840193909101906111fc565b50346101a15760003660031901126101a1578051601380548083526000918252602080840194927f66de8ffda797e3de9c05e8fc57b3bf0ec28a930d40b0d285d93c06501cf6a09092915b82821061128e5761019d86866104d7828b0383611580565b835487529586019560019384019390910190611276565b50346101a15760203660031901126101a1576004359067ffffffffffffffff82116101a1576112db61130f9236906004016115a2565b906112e7601b54611681565b80601b558151926112f784611548565b818452602084015260005260096020526000206116e7565b601b546012546801000000000000000081101561045b576001810180601255811015610442577fbb8a6a4669ba250d26cd7a459eca9d215f8307e33aebe50379bc5a3617ec34440155005b50346101a15760203660031901126101a157600435600052600b602052806000208151906113878261152c565b805482526113976001820161180a565b91602081019283526113f76113ae6002840161180a565b9485818401526004600385015494856060860152015492836080820152519451956113ea8251978897885260a0602089015260a08801906114cc565b91868303908701526114cc565b91606084015260808301520390f35b50346101a15760003660031901126101a1578051601680548083526000918252602080840194927fd833147d7dc355ba459fc788f669e58cfaf9dc25ddcd0702e87d69c7b512428992915b8282106114695761019d86866104d7828b0383611580565b835487529586019560019384019390910190611451565b50346101a15760203660031901126101a157600435600052600a60205261017e816000206118af565b60005b8381106114bc5750506000910152565b81810151838201526020016114ac565b906020916114e5815180928185528580860191016114a9565b601f01601f1916010190565b6020908160408183019282815285518094520193019160005b828110611518575050505090565b83518552938101939281019260010161150a565b60a0810190811067ffffffffffffffff82111761045b57604052565b6040810190811067ffffffffffffffff82111761045b57604052565b6080810190811067ffffffffffffffff82111761045b57604052565b90601f8019910116810190811067ffffffffffffffff82111761045b57604052565b81601f820112156101a15780359067ffffffffffffffff821161045b57604051926115d7601f8401601f191660200185611580565b828452602083830101116101a157816000926020809301838601378301015290565b6004359073ffffffffffffffffffffffffffffffffffffffff821682036101a157565b1561162357565b60646040517f08c379a000000000000000000000000000000000000000000000000000000000815260206004820152601f60248201527f5265737472696374656420746f2073797374656d206f776e6572206f6e6c79006044820152fd5b60001981146116905760010190565b60e060020a634e487b7102600052601160045260246000fd5b90600160028304921680156116dd575b60208310146116c457565b60e060020a634e487b7102600052602260045260246000fd5b91607f16916116b9565b81518155602091820151805190939260019283019267ffffffffffffffff831161045b5761171584546116a9565b601f81116117c3575b5081601f841160011461175c57505081929394600092611751575b5050816002029160080260020a600019041916179055565b015190503880611739565b909291601f198316968560005282600020926000905b8982106117ac5750508360029596979810611791575b50505002019055565b01516008601f841602840a6000190419169055388080611788565b808785968294968601518155019501930190611772565b60008581528381208480601f880104820193818810611800575b601f0104019183905b8381106117f55750505061171e565b8281550183906117e6565b91935083916117dd565b906040519182600082549261181e846116a9565b90818452600194858116908160001461188d575060011461184a575b505061184892500383611580565b565b9093915060005260209081600020936000915b8183106118755750506118489350820101388061183a565b8554888401850152948501948794509183019161185d565b91505061184894506020925060ff19168284015215158102820101388061183a565b906040516118bc81611548565b60206118cf60018395805485520161180a565b91015256fea2646970667358221220e70daf626c99da2a66da2653ae2a6e6512e9fe943894ceaaecd755badf176d4f64736f6c63430008130033",
  "immutableReferences": {},
  "source": "// SPDX-License-Identifier: MIT\npragma solidity ^0.8.19;\nimport \"./AccessControl.sol\";\n\ncontract Admins is AccessControl {\n    /// @dev create system owner structure\n    struct SystemOwner {\n        address sysOwner;\n        string password /*audit*/;\n        bool isLogin;\n        bool isRegistered;\n    }\n\n    struct StudentClass {\n        uint256 classId;\n        string classLevel;\n    }\n\n    struct StudentYear {\n        uint256 yearId;\n        uint256 year;\n    }\n\n    struct FeeCategory {\n        uint256 categoryId;\n        string feeCategoryName;\n    }\n\n    struct FeeAmount {\n        uint256 feeAmountId;\n        string feeCategoryName;\n        string studentClass;\n        uint256 amount;\n    }\n\n    struct Designation {\n        uint256 designationId;\n        string designationName;\n    }\n\n    struct StudentCombination {\n        uint256 combinationId;\n        string combinationName;\n    }\n\n    struct ExamType {\n        uint256 examTypeId;\n        string examTypeName;\n    }\n\n    struct StudentSubject {\n        uint256 subjectId;\n        string subjectName;\n    }\n\n    struct SubjectDetail {\n        uint256 subjectDetailId;\n        string classLevel;\n        string subjectName;\n        uint256 fullMark;\n        uint256 passMark;\n    }\n\n\n    SystemOwner private sysowner;\n\n    mapping(address => SystemOwner) private sysOwnerMap;\n\n    mapping(uint256 => StudentClass) private studentClasses;\n    mapping(uint256 => StudentYear) private studentYears;\n    mapping(uint256 => FeeCategory) private feeCategories;\n    mapping(uint256 => FeeAmount) private feeAmounts;\n    mapping(uint256 => StudentCombination) private studentCombinations;\n    mapping(uint256 => StudentSubject) private studentSubjects;\n    mapping(uint256 => SubjectDetail) private subjectDetails;\n    mapping(uint256 => Designation) private designations;\n    mapping(uint256 => ExamType) private examTypes;\n\n    uint256[] studentClassArray;\n    uint256[] feeCategoryArray;\n    uint256[] feeAmounArray;\n    uint256[] yearArray;\n    uint256[] studentCombinationArray;\n    uint256[] studentSubjectArray;\n    uint256[] subjectDetailArray;\n    uint256[] designationArray;\n    uint256[] examTypeArray;\n\n    uint256 feeCategoryId;\n    uint256 feeAmountId;\n    uint256 classId;\n    uint256 yearId;\n    uint256 combinationId;\n    uint256 subjectId;\n    uint256 subjectDetailId;\n    uint256 designationId;\n    uint256 examTypeId;\n\n    constructor() {\n        sysowner = SystemOwner(owner, \"admin\", false, true);\n        sysOwnerMap[owner] = sysowner;\n    }\n\n    function changeAdmin(address newAdmin) public onlyOwner {\n        owner = newAdmin;\n    }\n\n    function addStudentClass(string memory _classLevel) external {\n        classId++;\n        studentClasses[classId] = StudentClass({\n            classId: classId,\n            classLevel: _classLevel\n        });\n        studentClassArray.push(classId);\n    }\n\n    function getStudentClassArray() external view returns(uint256[] memory) {\n        return studentClassArray;\n    }\n\n    function getStudentClass(uint256 _classId) external view returns(\n        uint256 classID,\n        string memory classLevel\n    ) {\n        StudentClass memory studentClass = studentClasses[_classId];\n        classID = studentClass.classId;\n        classLevel = studentClass.classLevel;\n    }\n\n    function addStudentYear(uint256 _year) external {\n        yearId++;\n        studentYears[yearId] = StudentYear({\n            yearId: yearId,\n            year: _year\n        });\n        yearArray.push(yearId);\n    }\n\n    function getStudentYearsArray() external view returns(uint256[] memory) {\n        return yearArray;\n    }\n\n    function getStudentYears(uint256 _yearId) external view returns(\n        uint256 yearID,\n        uint256 year\n    ) {\n        StudentYear memory studentyear = studentYears[_yearId];\n        yearID = studentyear.yearId;\n        year = studentyear.year;\n    }\n\n    function addStudentCombination(string memory _combinationName) external {\n        combinationId++;\n        studentCombinations[combinationId] = StudentCombination({\n            combinationId: combinationId,\n            combinationName: _combinationName\n        });\n        studentCombinationArray.push(combinationId);\n    }\n\n    function getStudentCombinationArray() external view returns(uint256[] memory) {\n        return studentCombinationArray;\n    }\n\n    function getStudentCombination(uint256 _combinationId) external view returns(\n        uint256 combinationID,\n        string memory combinationName\n    ) {\n        StudentCombination memory studentCombination = studentCombinations[_combinationId];\n        combinationID = studentCombination.combinationId;\n        combinationName = studentCombination.combinationName;\n    }\n\n    function addStudentSubject(string memory _subjectName) external {\n        subjectId++;\n        studentSubjects[subjectId] = StudentSubject({\n            subjectId: subjectId,\n            subjectName: _subjectName\n        });\n        studentSubjectArray.push(subjectId);\n    }\n\n    function getStudentSubjectArray() external view returns(uint256[] memory) {\n        return studentSubjectArray;\n    }\n\n    function getStudentSubject(uint256 _subjectId) external view returns(\n        uint256 subjectID,\n        string memory subjectName\n    ) {\n        StudentSubject memory studentSubject = studentSubjects[_subjectId];\n        subjectID = studentSubject.subjectId;\n        subjectName = studentSubject.subjectName;\n    }\n\n    function addSubjectDetails(\n        string memory _classLevel, \n        string memory _subjectName, \n        uint256 _fullMark, \n        uint256 _passMark\n    ) external {\n        subjectDetailId++;\n        subjectDetails[subjectDetailId] = SubjectDetail({\n            subjectDetailId: subjectDetailId,\n            classLevel: _classLevel,\n            subjectName: _subjectName,\n            fullMark: _fullMark,\n            passMark: _passMark\n        });\n        subjectDetailArray.push(subjectDetailId);\n    }\n\n    function getSubjectDetailsArray() external view returns(uint256[] memory) {\n        return subjectDetailArray;\n    }\n\n    function getSubjectDetails(uint256 _subjectDetailId) external view returns(\n        uint256 subjectDetailID,\n        string memory classLevel, \n        string memory subjectName, \n        uint256 fullMark, \n        uint256 passMark\n    ) {\n        SubjectDetail memory subjectDetail = subjectDetails[_subjectDetailId];\n        subjectDetailID = subjectDetail.subjectDetailId;\n        classLevel = subjectDetail.classLevel;\n        subjectName = subjectDetail.subjectName;\n        fullMark = subjectDetail.fullMark;\n        passMark = subjectDetail.passMark;\n    }\n\n    function addExamType(string memory _examTypeName) external {\n        examTypeId++;\n        examTypes[examTypeId] = ExamType({\n            examTypeId: examTypeId,\n            examTypeName: _examTypeName\n        });\n        examTypeArray.push(examTypeId);\n    }\n\n    function getExamTypeArray() external view returns(uint256[] memory) {\n        return examTypeArray;\n    }\n\n    function getExamType(uint256 _examTypeId) external view returns(\n        uint256 examTypeID,\n        string memory examTypeName\n    ) {\n        ExamType memory examType = examTypes[_examTypeId];\n        examTypeID = examType.examTypeId;\n        examTypeName = examType.examTypeName;\n    }\n\n    function addFeeCategory(string memory _feeCategoryName) external {\n        feeCategoryId++;\n        feeCategories[feeCategoryId] = FeeCategory({\n            categoryId: feeCategoryId,\n            feeCategoryName: _feeCategoryName\n        });\n        feeCategoryArray.push(feeCategoryId);\n    }\n\n    function getFeeCategoryArray() external view returns(uint256[] memory) {\n        return feeCategoryArray;\n    }\n\n    function getFeeCategory(uint256 _feeCategoryId) external view returns(\n        uint256 feeCategoryID,\n        string memory feeCategoryName\n    ) {\n        FeeCategory memory feeCategory = feeCategories[_feeCategoryId];\n        feeCategoryID = feeCategory.categoryId;\n        feeCategoryName = feeCategory.feeCategoryName;\n    }\n\n    function addFeeAmount(string memory _feeCategoryName, string memory _studentClass, uint _amount) external {\n        feeAmountId++;\n        feeAmounts[feeAmountId] = FeeAmount({\n            feeAmountId: feeAmountId,\n            feeCategoryName: _feeCategoryName,\n            studentClass: _studentClass,\n            amount: _amount\n        });\n\n        feeAmounArray.push(feeAmountId);\n    }\n\n    function getFeeAmountArray() external view returns(uint256[] memory) {\n        return feeAmounArray;\n    }\n\n    function getFeeAmount(uint256 _feeAmountId) external view returns(\n        uint256 feeAmountID,\n        string memory categoryName,\n        string memory studentClass,\n        uint256 amount\n    ) {\n        FeeAmount memory feeAmount = feeAmounts[_feeAmountId];\n        feeAmountID = feeAmount.feeAmountId;\n        categoryName = feeAmount.feeCategoryName;\n        studentClass = feeAmount.studentClass;\n        amount = feeAmount.amount;\n    }\n\n    function systemOwnerLogin(address _SOPublicAddress, string memory _password) public onlyOwner {\n        require(sysOwnerMap[_SOPublicAddress].isRegistered == true, \"Your not registered yet!\");\n        // require(!medicalsCenters[_SOPublicAddress].isLogin, \"You're already logged in\");\n        require(compareString(sysOwnerMap[_SOPublicAddress].password, _password), \"Invalid address or password\");\n\n        sysOwnerMap[_SOPublicAddress].isLogin = true;\n    }\n}",
  "sourcePath": "/home/zeflojujo/school_management_system/Eazy_School/contracts/Admins.sol",
  "compiler": {
    "name": "solc",
    "version": "0.8.19+commit.7dd6d404.Emscripten.clang"
  },
  "schemaVersion": "3.4.16",
  "updatedAt": "2023-11-21T22:34:27.855Z",
  "networkType": "ethereum",
  "devdoc": {
    "kind": "dev",
    "methods": {},
    "version": 1
  },
  "userdoc": {
    "kind": "user",
    "methods": {},
    "version": 1
  }
}