{
  "contractName": "Admins",
  "abi": [
    {
      "inputs": [],
      "stateMutability": "nonpayable",
      "type": "constructor"
    },
    {
      "inputs": [
        {
          "internalType": "address",
          "name": "newAdmin",
          "type": "address"
        }
      ],
      "name": "changeAdmin",
      "outputs": [],
      "stateMutability": "nonpayable",
      "type": "function"
    },
    {
      "inputs": [
        {
          "internalType": "string",
          "name": "_title",
          "type": "string"
        },
        {
          "internalType": "string",
          "name": "_description",
          "type": "string"
        }
      ],
      "name": "createAnnouncement",
      "outputs": [],
      "stateMutability": "nonpayable",
      "type": "function"
    },
    {
      "inputs": [],
      "name": "getAnnouncementArray",
      "outputs": [
        {
          "internalType": "uint256[]",
          "name": "",
          "type": "uint256[]"
        }
      ],
      "stateMutability": "view",
      "type": "function",
      "constant": true
    },
    {
      "inputs": [
        {
          "internalType": "uint256",
          "name": "_announcementId",
          "type": "uint256"
        }
      ],
      "name": "getAnnouncements",
      "outputs": [
        {
          "internalType": "uint256",
          "name": "announcementIDD",
          "type": "uint256"
        },
        {
          "internalType": "string",
          "name": "title",
          "type": "string"
        },
        {
          "internalType": "string",
          "name": "description",
          "type": "string"
        }
      ],
      "stateMutability": "view",
      "type": "function",
      "constant": true
    },
    {
      "inputs": [
        {
          "internalType": "string",
          "name": "_classLevel",
          "type": "string"
        }
      ],
      "name": "addStudentClass",
      "outputs": [],
      "stateMutability": "nonpayable",
      "type": "function"
    },
    {
      "inputs": [],
      "name": "getStudentClassArray",
      "outputs": [
        {
          "internalType": "uint256[]",
          "name": "",
          "type": "uint256[]"
        }
      ],
      "stateMutability": "view",
      "type": "function",
      "constant": true
    },
    {
      "inputs": [
        {
          "internalType": "uint256",
          "name": "_classId",
          "type": "uint256"
        }
      ],
      "name": "getStudentClass",
      "outputs": [
        {
          "internalType": "uint256",
          "name": "classID",
          "type": "uint256"
        },
        {
          "internalType": "string",
          "name": "classLevel",
          "type": "string"
        }
      ],
      "stateMutability": "view",
      "type": "function",
      "constant": true
    },
    {
      "inputs": [
        {
          "internalType": "uint256",
          "name": "_year",
          "type": "uint256"
        }
      ],
      "name": "addStudentYear",
      "outputs": [],
      "stateMutability": "nonpayable",
      "type": "function"
    },
    {
      "inputs": [],
      "name": "getStudentYearsArray",
      "outputs": [
        {
          "internalType": "uint256[]",
          "name": "",
          "type": "uint256[]"
        }
      ],
      "stateMutability": "view",
      "type": "function",
      "constant": true
    },
    {
      "inputs": [
        {
          "internalType": "uint256",
          "name": "_yearId",
          "type": "uint256"
        }
      ],
      "name": "getStudentYears",
      "outputs": [
        {
          "internalType": "uint256",
          "name": "yearID",
          "type": "uint256"
        },
        {
          "internalType": "uint256",
          "name": "year",
          "type": "uint256"
        }
      ],
      "stateMutability": "view",
      "type": "function",
      "constant": true
    },
    {
      "inputs": [
        {
          "internalType": "string",
          "name": "_combinationName",
          "type": "string"
        }
      ],
      "name": "addStudentCombination",
      "outputs": [],
      "stateMutability": "nonpayable",
      "type": "function"
    },
    {
      "inputs": [],
      "name": "getStudentCombinationArray",
      "outputs": [
        {
          "internalType": "uint256[]",
          "name": "",
          "type": "uint256[]"
        }
      ],
      "stateMutability": "view",
      "type": "function",
      "constant": true
    },
    {
      "inputs": [
        {
          "internalType": "uint256",
          "name": "_combinationId",
          "type": "uint256"
        }
      ],
      "name": "getStudentCombination",
      "outputs": [
        {
          "internalType": "uint256",
          "name": "combinationID",
          "type": "uint256"
        },
        {
          "internalType": "string",
          "name": "combinationName",
          "type": "string"
        }
      ],
      "stateMutability": "view",
      "type": "function",
      "constant": true
    },
    {
      "inputs": [
        {
          "internalType": "string",
          "name": "_subjectName",
          "type": "string"
        }
      ],
      "name": "addStudentSubject",
      "outputs": [],
      "stateMutability": "nonpayable",
      "type": "function"
    },
    {
      "inputs": [],
      "name": "getStudentSubjectArray",
      "outputs": [
        {
          "internalType": "uint256[]",
          "name": "",
          "type": "uint256[]"
        }
      ],
      "stateMutability": "view",
      "type": "function",
      "constant": true
    },
    {
      "inputs": [
        {
          "internalType": "uint256",
          "name": "_subjectId",
          "type": "uint256"
        }
      ],
      "name": "getStudentSubject",
      "outputs": [
        {
          "internalType": "uint256",
          "name": "subjectID",
          "type": "uint256"
        },
        {
          "internalType": "string",
          "name": "subjectName",
          "type": "string"
        }
      ],
      "stateMutability": "view",
      "type": "function",
      "constant": true
    },
    {
      "inputs": [
        {
          "internalType": "string",
          "name": "_classLevel",
          "type": "string"
        },
        {
          "internalType": "string",
          "name": "_subjectName",
          "type": "string"
        },
        {
          "internalType": "uint256",
          "name": "_fullMark",
          "type": "uint256"
        },
        {
          "internalType": "uint256",
          "name": "_passMark",
          "type": "uint256"
        }
      ],
      "name": "addSubjectDetails",
      "outputs": [],
      "stateMutability": "nonpayable",
      "type": "function"
    },
    {
      "inputs": [],
      "name": "getSubjectDetailsArray",
      "outputs": [
        {
          "internalType": "uint256[]",
          "name": "",
          "type": "uint256[]"
        }
      ],
      "stateMutability": "view",
      "type": "function",
      "constant": true
    },
    {
      "inputs": [
        {
          "internalType": "uint256",
          "name": "_subjectDetailId",
          "type": "uint256"
        }
      ],
      "name": "getSubjectDetails",
      "outputs": [
        {
          "internalType": "uint256",
          "name": "subjectDetailID",
          "type": "uint256"
        },
        {
          "internalType": "string",
          "name": "classLevel",
          "type": "string"
        },
        {
          "internalType": "string",
          "name": "subjectName",
          "type": "string"
        },
        {
          "internalType": "uint256",
          "name": "fullMark",
          "type": "uint256"
        },
        {
          "internalType": "uint256",
          "name": "passMark",
          "type": "uint256"
        }
      ],
      "stateMutability": "view",
      "type": "function",
      "constant": true
    },
    {
      "inputs": [
        {
          "internalType": "string",
          "name": "_examTypeName",
          "type": "string"
        }
      ],
      "name": "addExamType",
      "outputs": [],
      "stateMutability": "nonpayable",
      "type": "function"
    },
    {
      "inputs": [],
      "name": "getExamTypeArray",
      "outputs": [
        {
          "internalType": "uint256[]",
          "name": "",
          "type": "uint256[]"
        }
      ],
      "stateMutability": "view",
      "type": "function",
      "constant": true
    },
    {
      "inputs": [
        {
          "internalType": "uint256",
          "name": "_examTypeId",
          "type": "uint256"
        }
      ],
      "name": "getExamType",
      "outputs": [
        {
          "internalType": "uint256",
          "name": "examTypeID",
          "type": "uint256"
        },
        {
          "internalType": "string",
          "name": "examTypeName",
          "type": "string"
        }
      ],
      "stateMutability": "view",
      "type": "function",
      "constant": true
    },
    {
      "inputs": [
        {
          "internalType": "string",
          "name": "_feeCategoryName",
          "type": "string"
        }
      ],
      "name": "addFeeCategory",
      "outputs": [],
      "stateMutability": "nonpayable",
      "type": "function"
    },
    {
      "inputs": [],
      "name": "getFeeCategoryArray",
      "outputs": [
        {
          "internalType": "uint256[]",
          "name": "",
          "type": "uint256[]"
        }
      ],
      "stateMutability": "view",
      "type": "function",
      "constant": true
    },
    {
      "inputs": [
        {
          "internalType": "uint256",
          "name": "_feeCategoryId",
          "type": "uint256"
        }
      ],
      "name": "getFeeCategory",
      "outputs": [
        {
          "internalType": "uint256",
          "name": "feeCategoryID",
          "type": "uint256"
        },
        {
          "internalType": "string",
          "name": "feeCategoryName",
          "type": "string"
        }
      ],
      "stateMutability": "view",
      "type": "function",
      "constant": true
    },
    {
      "inputs": [
        {
          "internalType": "string",
          "name": "_feeCategoryName",
          "type": "string"
        },
        {
          "internalType": "string",
          "name": "_studentClass",
          "type": "string"
        },
        {
          "internalType": "uint256",
          "name": "_amount",
          "type": "uint256"
        }
      ],
      "name": "addFeeAmount",
      "outputs": [],
      "stateMutability": "nonpayable",
      "type": "function"
    },
    {
      "inputs": [],
      "name": "getFeeAmountArray",
      "outputs": [
        {
          "internalType": "uint256[]",
          "name": "",
          "type": "uint256[]"
        }
      ],
      "stateMutability": "view",
      "type": "function",
      "constant": true
    },
    {
      "inputs": [
        {
          "internalType": "uint256",
          "name": "_feeAmountId",
          "type": "uint256"
        }
      ],
      "name": "getFeeAmount",
      "outputs": [
        {
          "internalType": "uint256",
          "name": "feeAmountIdentity",
          "type": "uint256"
        },
        {
          "internalType": "string",
          "name": "categoryName",
          "type": "string"
        },
        {
          "internalType": "string",
          "name": "studentClass",
          "type": "string"
        },
        {
          "internalType": "uint256",
          "name": "amount",
          "type": "uint256"
        }
      ],
      "stateMutability": "view",
      "type": "function",
      "constant": true
    },
    {
      "inputs": [
        {
          "internalType": "address",
          "name": "_SOPublicAddress",
          "type": "address"
        },
        {
          "internalType": "string",
          "name": "_password",
          "type": "string"
        }
      ],
      "name": "systemOwnerLogin",
      "outputs": [],
      "stateMutability": "nonpayable",
      "type": "function"
    }
  ],
  "bytecode": "0x608034620002b85760008054600160a060020a0319908116331782559160808101916001604060020a03808411838510176200025e576040938452338352835194848601868110838211176200028b578552600586526020937f61646d696e0000000000000000000000000000000000000000000000000000008588015286858201528581018481526060820194600191828752600160a060020a03809451168584541617835589519586116200025e57600295620000bf8754620002bd565b601f811162000215575b50889a601f8211600114620001a75791816004928c9d869560ff9e97926200019b575b5050600882028a0a6000190419169089021788555b511515986003549961ff009a8b610100809c51151502169161ffff199d8e91169116171760035585835416835252209281840362000149575b8851611d3d9081620004828239f35b620001609282541690845416178355820162000314565b019260ff6003541615159260ff85549416928360ff19861617865560ff8160035404161515021692161717905538808080808080806200013a565b015190503880620000ec565b8784528984209b90601f198316855b818110620001ff5750838d9e60ff9e97969489946004978e9510620001e3575b5050500201885562000101565b01516008601f841602840a6000190419169055388080620001d6565b838301518f559d87019d928c01928c01620001b6565b8784528984208a80601f85010482019281851062000253575b601f0104019085905b82811062000247575050620000c9565b85815501859062000237565b91925082916200022e565b6024827f4e487b710000000000000000000000000000000000000000000000000000000081526041600452fd5b6024847f4e487b710000000000000000000000000000000000000000000000000000000081526041600452fd5b600080fd5b906001600283049216801562000309575b6020831014620002da57565b7f4e487b7100000000000000000000000000000000000000000000000000000000600052602260045260246000fd5b91607f1691620002ce565b906002918281146200047c576200032c8354620002bd565b6001604060020a0381116200044d57620003478254620002bd565b601f8111620003ff575b50600093601f82116001146200038f578192939460009262000383575b5082810292600802900a600019041916179055565b8101549150386200036e565b90601f198116948281526020908181208582528282209282905b898210620003e557505083600196979810620003c9575b50505002019055565b01546008601f841602840a6000190419169055388080620003c0565b8394819294840154815560018091019501930190620003a9565b6000838152602081206020601f8501048101926020851062000442575b601f602091010401915b8281106200043657505062000351565b81815560010162000426565b90925082906200041c565b7f4e487b7100000000000000000000000000000000000000000000000000000000600052604160045260246000fd5b50905056fe604060808152600436101561001357600080fd5b7c01000000000000000000000000000000000000000000000000000000006000350480620be8831461189757806312a381b11461181d57806319c1434c146117a35780632012a268146116f75780632d4657d5146116425780632fb79b1f146115c8578063342bc1c81461154e57806335865017146115255780633f6fd9801461122e57806357dd0933146111b45780636e247e7a146110ff57806371f9a4b8146110d6578063768468d51461103c5780637830cb8514610fc2578063846703f914610f3d5780638b9949a414610e885780638c19a53614610e0e5780638f28397014610dad578063934fa4c814610cf85780639704122c14610c5d5780639bd3373914610be35780639c3a954c146108af578063b954cf9614610562578063c66ba7d814610519578063c87203da14610495578063c9da16a5146103ae578063cfc09701146101f0578063e70ca3ad146101c75763ec5f35521461017757600080fd5b346101c25760203660031901126101c257600435600052600d60205261019f81600020611ce2565b6101be60208251920151835193849384528060208501528301906118e3565b0390f35b600080fd5b50346101c25760203660031901126101c257600435600052600960205261019f81600020611ce2565b50346101c257806003193601126101c257610209611a2c565b60243567ffffffffffffffff81116101c2576102299036906004016119d5565b9073ffffffffffffffffffffffffffffffffffffffff9061024f82600054163314611a4f565b168060005260209160048352600160ff6101006002876000200154041615150361035157816000526004835261028a60018560002001611b1a565b84516102b28582816102a581830196878151938492016118c0565b81010380845201826119b3565b5190209084516102d18582816102a581830196878151938492016118c0565b519020036102f4576000908152600490915220600201805460ff19166001179055005b5060649151907f08c379a00000000000000000000000000000000000000000000000000000000082526004820152601b60248201527f496e76616c69642061646472657373206f722070617373776f726400000000006044820152fd5b6064838551907f08c379a00000000000000000000000000000000000000000000000000000000082526004820152601860248201527f596f7572206e6f742072656769737465726564207965742100000000000000006044820152fd5b50346101c25760203660031901126101c2576004359067ffffffffffffffff82116101c2576103e46104189236906004016119d5565b906103f0601e54611ab4565b80601e558151926104008461195f565b8184526020840152600052600a602052600020611bbf565b601e546014546801000000000000000081101561047c576001810180601455811015610463577fce6d7b5282bd9a3661ae061feed1dbda4e52ab073b1f9285be6e155d9c38d4ec0155005b60e060020a634e487b7102600052603260045260246000fd5b60e060020a634e487b7102600052604160045260246000fd5b50346101c25760003660031901126101c2578051601180548083526000918252602080840194927f31ecc21a745e3968a04e9570e4425bc18fa8019c68028196b546d1669c200c6892915b828210610502576101be86866104f8828b03836119b3565b5191829182611908565b8354875295860195600193840193909101906104e0565b50346101c25760203660031901126101c257600435600052600660205280600020602082516105478161195f565b60018354938483520154918291015282519182526020820152f35b50346101c25760803660031901126101c25760043567ffffffffffffffff81116101c2576105949036906004016119d5565b60243567ffffffffffffffff81116101c2576105b49036906004016119d5565b6105bf601f54611ab4565b80601f558351916105cf83611943565b818352602083019384528483015260443560608301526064356080830152600052600b6020528260002091815183555180519067ffffffffffffffff821161047c5781906106206001860154611adc565b601f8111610859575b50602090601f83116001146107e9576000926107de575b5050816002029160080260020a6000190419161760018301555b600282019281015192835167ffffffffffffffff811161047c5761067e8254611adc565b601f8111610795575b506020601f8211600114610724579080608094939260049697600092610719575b5050816002029160080260020a6000190419161790555b606081015160038501550151910155601f546015546801000000000000000081101561047c576001810180601555811015610463577f55f448fdea98c4d29eb340757ef0a66cd03dbb9538908a6a81d96026b71ec4750155005b0151905038806106a8565b601f198216958360005260206000209660005b81811061077d5750926004969760019360029383608099989710610762575b505050020190556106bf565b01516008601f841602840a6000190419169055388080610756565b83830151895560019098019760209384019301610737565b8260005260206000206020601f840104810191602084106107d4575b601f602091010401905b8181106107c85750610687565b600081556001016107bb565b90915081906107b1565b015190503880610640565b600186016000908152602081209350601f198516905b81811061084157509160029391856001969410610826575b5050500201600183015561065a565b01516008601f841602840a6000190419169055388080610817565b929360206001819287860151815501950193016107ff565b9091506001850160005260206000206020601f850104810191602085106108a5575b906020601f86959493010401905b8181106108965750610629565b60008155849350600101610889565b909150819061087b565b50346101c25760603660031901126101c25760043567ffffffffffffffff81116101c2576108e19036906004016119d5565b9060243567ffffffffffffffff81116101c2576109029036906004016119d5565b9161090e601a54611ab4565b9081601a5582519261091f84611997565b82845260208401918252808401948552606084019260443584526000526008602052600020925183555180519067ffffffffffffffff821161047c57819061096a6001860154611adc565b601f8111610b8d575b50602090601f8311600114610b1d57600092610b12575b5050816002029160080260020a6000190419161760018301555b60028201925192835167ffffffffffffffff811161047c576109c68254611adc565b601f8111610ac9575b506020601f8211600114610a5c57819060039596600092610a51575b5050816002029160080260020a6000190419161790555b51910155601a546011546801000000000000000081101561047c576001810180601155811015610463577f31ecc21a745e3968a04e9570e4425bc18fa8019c68028196b546d1669c200c680155005b0151905038806109eb565b601f198216958360005260206000209660005b818110610ab157509660029284926001956003999a10610a96575b50505002019055610a02565b01516008601f841602840a6000190419169055388080610a8a565b83830151895560019098019760209384019301610a6f565b8260005260206000206020601f84010481019160208410610b08575b601f602091010401905b818110610afc57506109cf565b60008155600101610aef565b9091508190610ae5565b01519050388061098a565b600186016000908152602081209350601f198516905b818110610b7557509160029391856001969410610b5a575b505050020160018301556109a4565b01516008601f841602840a6000190419169055388080610b4b565b92936020600181928786015181550195019301610b33565b9091506001850160005260206000206020601f85010481019160208510610bd9575b906020601f86959493010401905b818110610bca5750610973565b60008155849350600101610bbd565b9091508190610baf565b50346101c25760003660031901126101c2578051601280548083526000918252602080840194927fbb8a6a4669ba250d26cd7a459eca9d215f8307e33aebe50379bc5a3617ec344492915b828210610c46576101be86866104f8828b03836119b3565b835487529586019560019384019390910190610c2e565b50346101c25760203660031901126101c257600435600052600860205280600020908051610c8a81611997565b82548152610cee610c9d60018501611b1a565b92602083019384526003610cb360028701611b1a565b95868386015201549283606082015251935194610ce1825196879687526080602088015260808701906118e3565b91858303908601526118e3565b9060608301520390f35b50346101c25760203660031901126101c2576004359067ffffffffffffffff82116101c257610d2e610d629236906004016119d5565b90610d3a601954611ab4565b80601955815192610d4a8461195f565b81845260208401526000526007602052600020611bbf565b6019546010546801000000000000000081101561047c576001810180601055811015610463577f1b6847dc741a1b0cd08d278845f9d819d87b734759afb55fe2de5cb82a9ae6720155005b346101c25760203660031901126101c257610dc6611a2c565b6000549073ffffffffffffffffffffffffffffffffffffffff90610ded8284163314611a4f565b73ffffffffffffffffffffffffffffffffffffffff19909216911617600055005b50346101c25760003660031901126101c2578051601380548083526000918252602080840194927f66de8ffda797e3de9c05e8fc57b3bf0ec28a930d40b0d285d93c06501cf6a09092915b828210610e71576101be86866104f8828b03836119b3565b835487529586019560019384019390910190610e59565b50346101c25760203660031901126101c2576004359067ffffffffffffffff82116101c257610ebe610ef29236906004016119d5565b90610eca601b54611ab4565b80601b55815192610eda8461195f565b81845260208401526000526005602052600020611bbf565b601b54600f546801000000000000000081101561047c576001810180600f55811015610463577f8d1108e10bcb7c27dddfc02ed9d693a074039d026cf4ea4240b40f7d581ac8020155005b50346101c25760203660031901126101c257600435600052600e602052806000206101be825192610f6d8461197b565b82548452610f906002610f8260018601611b1a565b946020870195865201611b1a565b93848282015251925193610fb5825195869586526060602087015260608601906118e3565b91848303908501526118e3565b50346101c25760003660031901126101c2578051601580548083526000918252602080840194927f55f448fdea98c4d29eb340757ef0a66cd03dbb9538908a6a81d96026b71ec47592915b828210611025576101be86866104f8828b03836119b3565b83548752958601956001938401939091019061100d565b50346101c25760203660031901126101c257600161105b601c54611ab4565b80601c5582519261106b8461195f565b8184526020840191600435835260005260066020526000209251835551910155601c546012546801000000000000000081101561047c576001810180601255811015610463577fbb8a6a4669ba250d26cd7a459eca9d215f8307e33aebe50379bc5a3617ec34440155005b50346101c25760203660031901126101c257600435600052600760205261019f81600020611ce2565b50346101c25760203660031901126101c2576004359067ffffffffffffffff82116101c2576111356111699236906004016119d5565b90611141602154611ab4565b806021558151926111518461195f565b8184526020840152600052600d602052600020611bbf565b6021546017546801000000000000000081101561047c576001810180601755811015610463577fc624b66cc0138b8fabc209247f72d758e1cf3343756d543badbf24212bed8c150155005b50346101c25760003660031901126101c2578051601080548083526000918252602080840194927f1b6847dc741a1b0cd08d278845f9d819d87b734759afb55fe2de5cb82a9ae67292915b828210611217576101be86866104f8828b03836119b3565b8354875295860195600193840193909101906111ff565b50346101c257806003193601126101c25767ffffffffffffffff6004358181116101c2576112609036906004016119d5565b906024358181116101c2576112799036906004016119d5565b611284602254611ab4565b91826022558451946112958661197b565b838652602093848701958652818701938452600052600e84526000209451855560019384860190519586519183831161047c576112d28154611adc565b92601f938481116114e1575b5086848211600114611477578190600295969798999a60009261146c575b505060088202850a6000190419169084021790555b019251805192831161047c576113278454611adc565b94828611611426575b8394955080928085116001146113b75750506000926113ac575b5050816002029160080260020a6000190419161790555b60225490601854906801000000000000000082101561047c57810180601855811015610463577fb13d2d76d1f4b7be834882e410b3e3a8afaf69f83600ae24db354391d2378d2e0155005b01519050388061134a565b90919450869392601f198416958760005283600020936000905b88821061140d5750508460029697106113f2575b5050505002019055611361565b0151908316600802840a6000190419169055388080806113e5565b8383015186558a979095019492830192908101906113d1565b84600052806000208184860104810196828610611462575b9082858a93010401965b878110611456575050611330565b60008155018790611448565b909650869061143e565b0151905038806112fc565b601f1982169083600052886000209160005b8181106114cc57509183918b9c600298999a9b9c958995106114b2575b50505002019055611311565b01516008838a1602840a60001904191690553880806114a6565b8c8301518455928b0192918a01918a01611489565b82600052876000208886818186010483019382861061151c575b0104019089905b8281106115105750506112de565b60008155018990611502565b935082936114fb565b50346101c25760203660031901126101c257600435600052600560205261019f81600020611ce2565b50346101c25760003660031901126101c2578051600f80548083526000918252602080840194927f8d1108e10bcb7c27dddfc02ed9d693a074039d026cf4ea4240b40f7d581ac80292915b8282106115b1576101be86866104f8828b03836119b3565b835487529586019560019384019390910190611599565b50346101c25760003660031901126101c2578051601480548083526000918252602080840194927fce6d7b5282bd9a3661ae061feed1dbda4e52ab073b1f9285be6e155d9c38d4ec92915b82821061162b576101be86866104f8828b03836119b3565b835487529586019560019384019390910190611613565b50346101c25760203660031901126101c2576004359067ffffffffffffffff82116101c2576116786116ac9236906004016119d5565b90611684601d54611ab4565b80601d558151926116948461195f565b81845260208401526000526009602052600020611bbf565b601d546013546801000000000000000081101561047c576001810180601355811015610463577f66de8ffda797e3de9c05e8fc57b3bf0ec28a930d40b0d285d93c06501cf6a0900155005b50346101c25760203660031901126101c257600435600052600b6020528060002081519061172482611943565b8054825261173460018201611b1a565b916020810192835261179461174b60028401611b1a565b9485818401526004600385015494856060860152015492836080820152519451956117878251978897885260a0602089015260a08801906118e3565b91868303908701526118e3565b91606084015260808301520390f35b50346101c25760003660031901126101c2578051601780548083526000918252602080840194927fc624b66cc0138b8fabc209247f72d758e1cf3343756d543badbf24212bed8c1592915b828210611806576101be86866104f8828b03836119b3565b8354875295860195600193840193909101906117ee565b50346101c25760003660031901126101c2578051601880548083526000918252602080840194927fb13d2d76d1f4b7be834882e410b3e3a8afaf69f83600ae24db354391d2378d2e92915b828210611880576101be86866104f8828b03836119b3565b835487529586019560019384019390910190611868565b50346101c25760203660031901126101c257600435600052600a60205261019f81600020611ce2565b60005b8381106118d35750506000910152565b81810151838201526020016118c3565b906020916118fc815180928185528580860191016118c0565b601f01601f1916010190565b6020908160408183019282815285518094520193019160005b82811061192f575050505090565b835185529381019392810192600101611921565b60a0810190811067ffffffffffffffff82111761047c57604052565b6040810190811067ffffffffffffffff82111761047c57604052565b6060810190811067ffffffffffffffff82111761047c57604052565b6080810190811067ffffffffffffffff82111761047c57604052565b90601f8019910116810190811067ffffffffffffffff82111761047c57604052565b81601f820112156101c25780359067ffffffffffffffff821161047c5760405192611a0a601f8401601f1916602001856119b3565b828452602083830101116101c257816000926020809301838601378301015290565b6004359073ffffffffffffffffffffffffffffffffffffffff821682036101c257565b15611a5657565b60646040517f08c379a000000000000000000000000000000000000000000000000000000000815260206004820152601f60248201527f5265737472696374656420746f2073797374656d206f776e6572206f6e6c79006044820152fd5b6000198114611ac35760010190565b60e060020a634e487b7102600052601160045260246000fd5b9060016002830492168015611b10575b6020831014611af757565b60e060020a634e487b7102600052602260045260246000fd5b91607f1691611aec565b9060405191826000825492611b2e84611adc565b908184526001948581169081600014611b9d5750600114611b5a575b5050611b58925003836119b3565b565b9093915060005260209081600020936000915b818310611b85575050611b5893508201013880611b4a565b85548884018501529485019487945091830191611b6d565b915050611b5894506020925060ff191682840152151581028201013880611b4a565b81518155602091820151805190939260019283019267ffffffffffffffff831161047c57611bed8454611adc565b601f8111611c9b575b5081601f8411600114611c3457505081929394600092611c29575b5050816002029160080260020a600019041916179055565b015190503880611c11565b909291601f198316968560005282600020926000905b898210611c845750508360029596979810611c69575b50505002019055565b01516008601f841602840a6000190419169055388080611c60565b808785968294968601518155019501930190611c4a565b60008581528381208480601f880104820193818810611cd8575b601f0104019183905b838110611ccd57505050611bf6565b828155018390611cbe565b9193508391611cb5565b90604051611cef8161195f565b6020611d02600183958054855201611b1a565b91015256fea2646970667358221220cc390523c235cc4701f269d9dd8e2b4589cba7bb9cf75aa9fb465c59bf9d980e64736f6c63430008130033",
  "immutableReferences": {},
  "source": "// SPDX-License-Identifier: MIT\npragma solidity ^0.8.19;\nimport \"./AccessControl.sol\";\n\ncontract Admins is AccessControl {\n    /// @dev create system owner structure\n    struct SystemOwner {\n        address sysOwner;\n        string password /*audit*/;\n        bool isLogin;\n        bool isRegistered;\n    }\n\n    struct StudentClass {\n        uint256 classId;\n        string classLevel;\n    }\n\n    struct StudentYear {\n        uint256 yearId;\n        uint256 year;\n    }\n\n    struct FeeCategory {\n        uint256 categoryId;\n        string feeCategoryName;\n    }\n\n    struct FeeAmount {\n        uint256 feeAmountId;\n        string feeCategoryName;\n        string studentClass;\n        uint256 amount;\n    }\n\n    struct Designation {\n        uint256 designationId;\n        string designationName;\n    }\n\n    struct StudentCombination {\n        uint256 combinationId;\n        string combinationName;\n    }\n\n    struct ExamType {\n        uint256 examTypeId;\n        string examTypeName;\n    }\n\n    struct StudentSubject {\n        uint256 subjectId;\n        string subjectName;\n    }\n\n    struct SubjectDetail {\n        uint256 subjectDetailId;\n        string classLevel;\n        string subjectName;\n        uint256 fullMark;\n        uint256 passMark;\n    }\n\n    struct Announcement {\n        uint256 announcementId;\n        string title;\n        string description;\n    }\n\n\n    SystemOwner private sysowner;\n\n    mapping(address => SystemOwner) private sysOwnerMap;\n\n    mapping(uint256 => StudentClass) private studentClasses;\n    mapping(uint256 => StudentYear) private studentYears;\n    mapping(uint256 => FeeCategory) private feeCategories;\n    mapping(uint256 => FeeAmount) private feeAmounts;\n    mapping(uint256 => StudentCombination) private studentCombinations;\n    mapping(uint256 => StudentSubject) private studentSubjects;\n    mapping(uint256 => SubjectDetail) private subjectDetails;\n    mapping(uint256 => Designation) private designations;\n    mapping(uint256 => ExamType) private examTypes;\n    mapping(uint256 => Announcement) private announcements;\n\n    uint256[] studentClassArray;\n    uint256[] feeCategoryArray;\n    uint256[] feeAmounArray;\n    uint256[] yearArray;\n    uint256[] studentCombinationArray;\n    uint256[] studentSubjectArray;\n    uint256[] subjectDetailArray;\n    uint256[] designationArray;\n    uint256[] examTypeArray;\n    uint256[] announcementArray;\n\n    uint256 feeCategoryId;\n    uint256 feeAmountID;\n    uint256 classId;\n    uint256 yearId;\n    uint256 combinationId;\n    uint256 subjectId;\n    uint256 subjectDetailId;\n    uint256 designationId;\n    uint256 examTypeId;\n    uint256 announcementID;\n\n    constructor() {\n        sysowner = SystemOwner(owner, \"admin\", false, true);\n        sysOwnerMap[owner] = sysowner;\n    }\n\n    function changeAdmin(address newAdmin) public onlyOwner {\n        owner = newAdmin;\n    }\n\n    function createAnnouncement(string memory _title, string memory _description) external {\n        announcementID++;\n        announcements[announcementID] = Announcement({\n            announcementId: announcementID,\n            title: _title,\n            description: _description\n        });\n        announcementArray.push(announcementID);\n    }\n\n    function getAnnouncementArray() external view returns(uint256[] memory) {\n        return announcementArray;\n    }\n\n    function getAnnouncements(uint256 _announcementId) external view returns(\n        uint256 announcementIDD,\n        string memory title,\n        string memory description\n    ) {\n        Announcement memory announcement = announcements[_announcementId];\n        announcementIDD = announcement.announcementId;\n        title = announcement.title;\n        description = announcement.description;\n    }\n\n    function addStudentClass(string memory _classLevel) external {\n        classId++;\n        studentClasses[classId] = StudentClass({\n            classId: classId,\n            classLevel: _classLevel\n        });\n        studentClassArray.push(classId);\n    }\n\n    function getStudentClassArray() external view returns(uint256[] memory) {\n        return studentClassArray;\n    }\n\n    function getStudentClass(uint256 _classId) external view returns(\n        uint256 classID,\n        string memory classLevel\n    ) {\n        StudentClass memory studentClass = studentClasses[_classId];\n        classID = studentClass.classId;\n        classLevel = studentClass.classLevel;\n    }\n\n    function addStudentYear(uint256 _year) external {\n        yearId++;\n        studentYears[yearId] = StudentYear({\n            yearId: yearId,\n            year: _year\n        });\n        yearArray.push(yearId);\n    }\n\n    function getStudentYearsArray() external view returns(uint256[] memory) {\n        return yearArray;\n    }\n\n    function getStudentYears(uint256 _yearId) external view returns(\n        uint256 yearID,\n        uint256 year\n    ) {\n        StudentYear memory studentyear = studentYears[_yearId];\n        yearID = studentyear.yearId;\n        year = studentyear.year;\n    }\n\n    function addStudentCombination(string memory _combinationName) external {\n        combinationId++;\n        studentCombinations[combinationId] = StudentCombination({\n            combinationId: combinationId,\n            combinationName: _combinationName\n        });\n        studentCombinationArray.push(combinationId);\n    }\n\n    function getStudentCombinationArray() external view returns(uint256[] memory) {\n        return studentCombinationArray;\n    }\n\n    function getStudentCombination(uint256 _combinationId) external view returns(\n        uint256 combinationID,\n        string memory combinationName\n    ) {\n        StudentCombination memory studentCombination = studentCombinations[_combinationId];\n        combinationID = studentCombination.combinationId;\n        combinationName = studentCombination.combinationName;\n    }\n\n    function addStudentSubject(string memory _subjectName) external {\n        subjectId++;\n        studentSubjects[subjectId] = StudentSubject({\n            subjectId: subjectId,\n            subjectName: _subjectName\n        });\n        studentSubjectArray.push(subjectId);\n    }\n\n    function getStudentSubjectArray() external view returns(uint256[] memory) {\n        return studentSubjectArray;\n    }\n\n    function getStudentSubject(uint256 _subjectId) external view returns(\n        uint256 subjectID,\n        string memory subjectName\n    ) {\n        StudentSubject memory studentSubject = studentSubjects[_subjectId];\n        subjectID = studentSubject.subjectId;\n        subjectName = studentSubject.subjectName;\n    }\n\n    function addSubjectDetails(\n        string memory _classLevel, \n        string memory _subjectName, \n        uint256 _fullMark, \n        uint256 _passMark\n    ) external {\n        subjectDetailId++;\n        subjectDetails[subjectDetailId] = SubjectDetail({\n            subjectDetailId: subjectDetailId,\n            classLevel: _classLevel,\n            subjectName: _subjectName,\n            fullMark: _fullMark,\n            passMark: _passMark\n        });\n        subjectDetailArray.push(subjectDetailId);\n    }\n\n    function getSubjectDetailsArray() external view returns(uint256[] memory) {\n        return subjectDetailArray;\n    }\n\n    function getSubjectDetails(uint256 _subjectDetailId) external view returns(\n        uint256 subjectDetailID,\n        string memory classLevel, \n        string memory subjectName, \n        uint256 fullMark, \n        uint256 passMark\n    ) {\n        SubjectDetail memory subjectDetail = subjectDetails[_subjectDetailId];\n        subjectDetailID = subjectDetail.subjectDetailId;\n        classLevel = subjectDetail.classLevel;\n        subjectName = subjectDetail.subjectName;\n        fullMark = subjectDetail.fullMark;\n        passMark = subjectDetail.passMark;\n    }\n\n    function addExamType(string memory _examTypeName) external {\n        examTypeId++;\n        examTypes[examTypeId] = ExamType({\n            examTypeId: examTypeId,\n            examTypeName: _examTypeName\n        });\n        examTypeArray.push(examTypeId);\n    }\n\n    function getExamTypeArray() external view returns(uint256[] memory) {\n        return examTypeArray;\n    }\n\n    function getExamType(uint256 _examTypeId) external view returns(\n        uint256 examTypeID,\n        string memory examTypeName\n    ) {\n        ExamType memory examType = examTypes[_examTypeId];\n        examTypeID = examType.examTypeId;\n        examTypeName = examType.examTypeName;\n    }\n\n    function addFeeCategory(string memory _feeCategoryName) external {\n        feeCategoryId++;\n        feeCategories[feeCategoryId] = FeeCategory({\n            categoryId: feeCategoryId,\n            feeCategoryName: _feeCategoryName\n        });\n        feeCategoryArray.push(feeCategoryId);\n    }\n\n    function getFeeCategoryArray() external view returns(uint256[] memory) {\n        return feeCategoryArray;\n    }\n\n    function getFeeCategory(uint256 _feeCategoryId) external view returns(\n        uint256 feeCategoryID,\n        string memory feeCategoryName\n    ) {\n        FeeCategory memory feeCategory = feeCategories[_feeCategoryId];\n        feeCategoryID = feeCategory.categoryId;\n        feeCategoryName = feeCategory.feeCategoryName;\n    }\n\n    function addFeeAmount(string memory _feeCategoryName, string memory _studentClass, uint256 _amount) external {\n        feeAmountID++;\n        feeAmounts[feeAmountID] = FeeAmount({\n            feeAmountId: feeAmountID,\n            feeCategoryName: _feeCategoryName,\n            studentClass: _studentClass,\n            amount: _amount\n        });\n\n        feeAmounArray.push(feeAmountID);\n    }\n\n    function getFeeAmountArray() external view returns(uint256[] memory) {\n        return feeAmounArray;\n    }\n\n    function getFeeAmount(uint256 _feeAmountId) external view returns(\n        uint256 feeAmountIdentity,\n        string memory categoryName,\n        string memory studentClass,\n        uint256 amount\n    ) {\n        FeeAmount memory feeAmount = feeAmounts[_feeAmountId];\n        feeAmountIdentity = feeAmount.feeAmountId;\n        categoryName = feeAmount.feeCategoryName;\n        studentClass = feeAmount.studentClass;\n        amount = feeAmount.amount;\n    }\n\n    function systemOwnerLogin(address _SOPublicAddress, string memory _password) public onlyOwner {\n        require(sysOwnerMap[_SOPublicAddress].isRegistered == true, \"Your not registered yet!\");\n        // require(!medicalsCenters[_SOPublicAddress].isLogin, \"You're already logged in\");\n        require(compareString(sysOwnerMap[_SOPublicAddress].password, _password), \"Invalid address or password\");\n\n        sysOwnerMap[_SOPublicAddress].isLogin = true;\n    }\n}",
  "sourcePath": "/home/zeflojujo/school_management_system/Eazy_School/contracts/Admins.sol",
  "compiler": {
    "name": "solc",
    "version": "0.8.19+commit.7dd6d404.Emscripten.clang"
  },
  "schemaVersion": "3.4.16",
  "updatedAt": "2023-11-21T22:53:53.438Z",
  "networkType": "ethereum",
  "devdoc": {
    "kind": "dev",
    "methods": {},
    "version": 1
  },
  "userdoc": {
    "kind": "user",
    "methods": {},
    "version": 1
  }
}