{
  "contractName": "Admins",
  "abi": [
    {
      "inputs": [],
      "stateMutability": "nonpayable",
      "type": "constructor"
    },
    {
      "inputs": [],
      "name": "adminAddress",
      "outputs": [
        {
          "internalType": "address",
          "name": "",
          "type": "address"
        }
      ],
      "stateMutability": "view",
      "type": "function"
    },
    {
      "inputs": [
        {
          "internalType": "address",
          "name": "newAdmin",
          "type": "address"
        }
      ],
      "name": "changeAdmin",
      "outputs": [],
      "stateMutability": "nonpayable",
      "type": "function"
    }
  ],
  "bytecode": "0x608080604052346100285760008054600160a060020a031916331790556101a8908161002e8239f35b600080fdfe608080604052600436101561001357600080fd5b6000907c01000000000000000000000000000000000000000000000000000000008235049081638f28397014610088575063fc6f94681461005357600080fd5b3461008557806003193601126100855773ffffffffffffffffffffffffffffffffffffffff6020915416604051908152f35b80fd5b90503461016e57602036600319011261016e576004359073ffffffffffffffffffffffffffffffffffffffff9081831680930361016a57835491821633036100e8575073ffffffffffffffffffffffffffffffffffffffff191617815580f35b807f08c379a0000000000000000000000000000000000000000000000000000000006084925260206004820152602160248201527f4f6e6c792061646d696e2063616e2063616c6c20746869732066756e6374696f60448201527f6e000000000000000000000000000000000000000000000000000000000000006064820152fd5b8380fd5b5080fdfea264697066735822122066f74431661ab86d303bb10e3d319a8ec72ef2e8ff73d0ac1f6dd3009b459afd64736f6c63430008130033",
  "immutableReferences": {},
  "source": "// SPDX-License-Identifier: MIT\npragma solidity ^0.8.19;\nimport \"./Accountants.sol\";\n\ncontract Admins {\n    address public adminAddress;\n\n    constructor() {\n        adminAddress = msg.sender;\n    }\n\n     modifier onlyAdmin() {\n        require(msg.sender == adminAddress, \"Only admin can call this function\");\n        _;\n    }\n\n    function changeAdmin(address newAdmin) public onlyAdmin {\n        adminAddress = newAdmin;\n    }\n\n    // function addAccountant( address _acc_address, string _name, uint256 _salary ) external {\n\n    // }\n\n    // function registerStudent(address _studentAddress, Students _studentsContract, string memory _name, string memory _standardLevel, string memory _examNumber, uint256 _age, string[] memory _subjects) public onlyAdmin {\n    //     _studentsContract.registerStudent(_studentAddress, _name, _standardLevel, _examNumber, _age, _subjects);\n    // }\n\n    // function registerTeacher(address _teacherAddress, Teacher _teacherContract, string memory _name, string[] memory _subjects) public onlyAdmin {\n    //     _teacherContract.registerTeacher(_teacherAddress, _name, _subjects);\n    // }\n\n    // function registerAccountant(address _accountantAddress, Accountant _accountantContract) public onlyAdmin {\n    //     // Add implementation to register accountant\n    // }\n\n    // function registerAcademic(address _academicAddress, Academic _academicContract) public onlyAdmin {\n    //     // Add implementation to register academic personnel\n    // }\n}",
  "sourcePath": "/home/zeflojujo/school_management_system/client/contracts/Admins.sol",
  "compiler": {
    "name": "solc",
    "version": "0.8.19+commit.7dd6d404.Emscripten.clang"
  },
  "schemaVersion": "3.4.16",
  "updatedAt": "2024-04-21T15:12:56.254Z",
  "devdoc": {
    "kind": "dev",
    "methods": {},
    "version": 1
  },
  "userdoc": {
    "kind": "user",
    "methods": {},
    "version": 1
  }
}