{
  "contractName": "Students",
  "abi": [
    {
      "anonymous": false,
      "inputs": [
        {
          "indexed": true,
          "internalType": "address",
          "name": "teacherAddress",
          "type": "address"
        }
      ],
      "name": "deletedStudent",
      "type": "event"
    },
    {
      "inputs": [
        {
          "internalType": "uint256",
          "name": "",
          "type": "uint256"
        }
      ],
      "name": "studentAddressArray",
      "outputs": [
        {
          "internalType": "address",
          "name": "",
          "type": "address"
        }
      ],
      "stateMutability": "view",
      "type": "function",
      "constant": true
    },
    {
      "inputs": [
        {
          "internalType": "address",
          "name": "",
          "type": "address"
        }
      ],
      "name": "students",
      "outputs": [
        {
          "internalType": "address",
          "name": "studentAddress",
          "type": "address"
        },
        {
          "internalType": "string",
          "name": "firstName",
          "type": "string"
        },
        {
          "internalType": "string",
          "name": "middleName",
          "type": "string"
        },
        {
          "internalType": "string",
          "name": "lastName",
          "type": "string"
        },
        {
          "internalType": "string",
          "name": "examNumber",
          "type": "string"
        },
        {
          "internalType": "string",
          "name": "gender",
          "type": "string"
        },
        {
          "internalType": "string",
          "name": "religion",
          "type": "string"
        },
        {
          "internalType": "string",
          "name": "dob",
          "type": "string"
        },
        {
          "internalType": "string",
          "name": "classLevel",
          "type": "string"
        },
        {
          "internalType": "string",
          "name": "combination",
          "type": "string"
        },
        {
          "internalType": "string",
          "name": "phoneNumber",
          "type": "string"
        },
        {
          "internalType": "string",
          "name": "studentLocation",
          "type": "string"
        },
        {
          "internalType": "uint256",
          "name": "year",
          "type": "uint256"
        },
        {
          "internalType": "string",
          "name": "password",
          "type": "string"
        },
        {
          "internalType": "bool",
          "name": "isRegistered",
          "type": "bool"
        },
        {
          "internalType": "bool",
          "name": "isLogin",
          "type": "bool"
        },
        {
          "internalType": "bool",
          "name": "isDeleted",
          "type": "bool"
        }
      ],
      "stateMutability": "view",
      "type": "function",
      "constant": true
    },
    {
      "inputs": [
        {
          "internalType": "address",
          "name": "_studentAddress",
          "type": "address"
        },
        {
          "internalType": "string",
          "name": "_firstName",
          "type": "string"
        },
        {
          "internalType": "string",
          "name": "_middleName",
          "type": "string"
        },
        {
          "internalType": "string",
          "name": "_lastName",
          "type": "string"
        },
        {
          "internalType": "string",
          "name": "_gender",
          "type": "string"
        },
        {
          "internalType": "string",
          "name": "_religion",
          "type": "string"
        },
        {
          "internalType": "string",
          "name": "_dob",
          "type": "string"
        },
        {
          "internalType": "string",
          "name": "_classLevel",
          "type": "string"
        },
        {
          "internalType": "string",
          "name": "_combination",
          "type": "string"
        },
        {
          "internalType": "string",
          "name": "_studentLocation",
          "type": "string"
        },
        {
          "internalType": "uint256",
          "name": "_year",
          "type": "uint256"
        },
        {
          "internalType": "string",
          "name": "_phoneNumber",
          "type": "string"
        },
        {
          "internalType": "string",
          "name": "_password",
          "type": "string"
        }
      ],
      "name": "registerStudent",
      "outputs": [],
      "stateMutability": "nonpayable",
      "type": "function"
    },
    {
      "inputs": [
        {
          "internalType": "address",
          "name": "_studentAddress",
          "type": "address"
        }
      ],
      "name": "deleteStudent",
      "outputs": [],
      "stateMutability": "nonpayable",
      "type": "function"
    },
    {
      "inputs": [
        {
          "internalType": "address",
          "name": "_studentAddress",
          "type": "address"
        },
        {
          "internalType": "string",
          "name": "_password",
          "type": "string"
        }
      ],
      "name": "studentLogin",
      "outputs": [],
      "stateMutability": "nonpayable",
      "type": "function"
    },
    {
      "inputs": [],
      "name": "getStudentArray",
      "outputs": [
        {
          "internalType": "address[]",
          "name": "",
          "type": "address[]"
        }
      ],
      "stateMutability": "view",
      "type": "function",
      "constant": true
    },
    {
      "inputs": [
        {
          "internalType": "address",
          "name": "_studentAddress",
          "type": "address"
        }
      ],
      "name": "getStudent",
      "outputs": [
        {
          "internalType": "address",
          "name": "studentAddress",
          "type": "address"
        },
        {
          "internalType": "string",
          "name": "firstName",
          "type": "string"
        },
        {
          "internalType": "string",
          "name": "middleName",
          "type": "string"
        },
        {
          "internalType": "string",
          "name": "lastName",
          "type": "string"
        },
        {
          "internalType": "string",
          "name": "examNumber",
          "type": "string"
        },
        {
          "internalType": "string",
          "name": "gender",
          "type": "string"
        },
        {
          "internalType": "string",
          "name": "religion",
          "type": "string"
        },
        {
          "internalType": "string",
          "name": "dob",
          "type": "string"
        },
        {
          "internalType": "string",
          "name": "classLevel",
          "type": "string"
        },
        {
          "internalType": "string",
          "name": "combination",
          "type": "string"
        },
        {
          "internalType": "string",
          "name": "studentLocation",
          "type": "string"
        },
        {
          "internalType": "uint256",
          "name": "year",
          "type": "uint256"
        },
        {
          "internalType": "string",
          "name": "phoneNumber",
          "type": "string"
        },
        {
          "internalType": "bool",
          "name": "isDeleted",
          "type": "bool"
        }
      ],
      "stateMutability": "view",
      "type": "function",
      "constant": true
    }
  ],
  "bytecode": "0x608080604052346100285760008054600160a060020a03191633179055611ad5908161002e8239f35b600080fdfe60c0604052600436101561001257600080fd5b7c01000000000000000000000000000000000000000000000000000000006000350480630f24c6f2146107da57806336fdc8ea146106325780636b7b44d71461047f578063730bcc5d1461038c5780638f23be8c146102c4578063a6c807a9146100cf5763f9920d5b1461008557600080fd5b346100ca5760203660031901126100ca576004356002548110156100ca57600160a060020a036100b6602092611a4f565b9190546008604051930260020a9004168152f35b600080fd5b346100ca5760203660031901126100ca57600160a060020a03806100f1611895565b1660005260016020526040600020908154169060018101610111906119aa565b9061011e600282016119aa565b61012a600383016119aa565b91610137600482016119aa565b92610144600583016119aa565b93610151600684016119aa565b9461015e600785016119aa565b9561016b600886016119aa565b96610178600987016119aa565b91610185600a88016119aa565b93610192600b89016119aa565b95600c89015497600d8a016101a6906119aa565b99600e01549a6040519e8f9e8f91825261022080602084015282016101ca91611947565b9080820390604001526101dc91611947565b8d810360608f01526101ed91611947565b8c810360808e01526101fe91611947565b8b810360a08d015261020f91611947565b8a810360c08c015261022091611947565b89810360e08b015261023191611947565b9661010097898103898b015261024691611947565b8881036101208a015261025891611947565b87810361014089015261026a91611947565b86810361016088015261027c91611947565b906101808601528481036101a086015261029591611947565b9160ff821615156101c0850152810460ff1615156101e084015262010000900460ff1615156102008301520390f35b346100ca5760003660031901126100ca57604051806002548083526020809301809160026000527f405787fa12a823e0f2b7631cc41b3ba8828b3321ca811111fa75cd3aa3bb5ace9060005b8682821061036f578686610326828803836118ab565b604051928392818401908285525180915260408401929160005b82811061034f57505050500390f35b8351600160a060020a031685528695509381019392810192600101610340565b8354600160a060020a031685529093019260019283019201610310565b346100ca5760203660031901126100ca57600160a060020a036103ad611895565b168060005260016020526201000060ff81600e60406000200154041661042157816000526001602052604060002090600e82019062ff000019825416179055600160a060020a031981541690557f3b45ab09dae70c048ef52fb6150674531559cb10dadcbee9cb7d8b4d8a00e658600080a2005b60646040517f08c379a000000000000000000000000000000000000000000000000000000000815260206004820152601660248201527f5465616368657220646f6573206e6f74206578697374000000000000000000006044820152fd5b346100ca5760203660031901126100ca57600160a060020a03806104a1611895565b166000526001602052604060002090815416600182016104c0906119aa565b916104cd600282016119aa565b906104da600382016119aa565b6104e6600483016119aa565b6104f2600584016119aa565b6104fe600685016119aa565b61050a600786016119aa565b610516600887016119aa565b91610523600988016119aa565b93610530600b89016119aa565b95600c89015497600a8a01610544906119aa565b99600e015462010000900460ff169a6040519d8e9d8e528d6101c0908160208201520161057091611947565b8d810360408f015261058191611947565b8c810360608e015261059291611947565b8b810360808d01526105a391611947565b8a810360a08c01526105b491611947565b89810360c08b01526105c591611947565b88810360e08a01526105d691611947565b8781036101008901526105e891611947565b8681036101208801526105fa91611947565b85810361014087015261060c91611947565b9061016085015283810361018085015261062591611947565b9015156101a08301520390f35b346100ca5760403660031901126100ca5761064b611895565b60243567ffffffffffffffff81116100ca57610673600160a060020a039136906004016118cd565b9116908160005260209060018252600160ff600e604060002001541615150361077c5782600052600182526106ae600d6040600020016119aa565b6040516106d78482816106ca8183019687815193849201611924565b81010380845201826118ab565b519020906040516106f78482816106ca8183019687815193849201611924565b5190200361071e5760009182526001905260409020600e01805461ff001916610100179055005b606490604051907f08c379a00000000000000000000000000000000000000000000000000000000082526004820152601b60248201527f496e76616c69642061646472657373206f722070617373776f726400000000006044820152fd5b606482604051907f08c379a00000000000000000000000000000000000000000000000000000000082526004820152601860248201527f596f7572206e6f742072656769737465726564207965742100000000000000006044820152fd5b346100ca576101a03660031901126100ca576107f4611895565b60243567ffffffffffffffff81116100ca576108149036906004016118cd565b60443567ffffffffffffffff81116100ca576108349036906004016118cd565b60643567ffffffffffffffff81116100ca576108549036906004016118cd565b60843567ffffffffffffffff81116100ca576108749036906004016118cd565b60a43567ffffffffffffffff81116100ca576108949036906004016118cd565b60c43567ffffffffffffffff81116100ca576108b49036906004016118cd565b9060e43567ffffffffffffffff81116100ca576108d59036906004016118cd565b926101043567ffffffffffffffff81116100ca576108f79036906004016118cd565b946101243567ffffffffffffffff81116100ca576109199036906004016118cd565b966101643567ffffffffffffffff81116100ca5761093b9036906004016118cd565b986101843567ffffffffffffffff81116100ca5761095d9036906004016118cd565b60a052600354600019811461187c57600101600355600160a060020a038b166000526001602052604060002080608052600160a060020a038c16600160a060020a031982541617815581519067ffffffffffffffff8211610f075760016109c591015461196c565b601f8111611833575b50602091601f82116001146117c0579181926000926117b5575b5050816002029160080260020a60001904191617600160805101555b805167ffffffffffffffff8111610f0757610a246002608051015461196c565b601f811161176c575b50602091601f82116001146116f9579181926000926116ee575b5050816002029160080260020a60001904191617600260805101555b805167ffffffffffffffff8111610f0757610a836003608051015461196c565b601f81116116a5575b50602091601f821160011461163257918192600092611627575b5050816002029160080260020a60001904191617600360805101555b600354604051907f73313235332d000000000000000000000000000000000000000000000000000060208301526101443560268301527f2d00000000000000000000000000000000000000000000000000000000000000604683015260478201526047815280608081011067ffffffffffffffff608083011117610f075760808101604052805167ffffffffffffffff8111610f0757610b676004608051015461196c565b601f81116115de575b50602091601f821160011461156b57918192600092611560575b5050816002029160080260020a60001904191617600460805101555b805167ffffffffffffffff8111610f0757610bc66005608051015461196c565b601f8111611517575b50602091601f82116001146114a457918192600092611499575b5050816002029160080260020a60001904191617600560805101555b805167ffffffffffffffff8111610f0757610c256006608051015461196c565b601f8111611450575b50602091601f82116001146113dd579181926000926113d2575b5050816002029160080260020a60001904191617600660805101555b805167ffffffffffffffff8111610f0757610c846007608051015461196c565b601f8111611389575b50602091601f82116001146113165791819260009261130b575b5050816002029160080260020a60001904191617600760805101555b805167ffffffffffffffff8111610f0757610ce36008608051015461196c565b601f81116112c2575b50602091601f821160011461124f57918192600092611244575b5050816002029160080260020a60001904191617600860805101555b805167ffffffffffffffff8111610f0757610d426009608051015461196c565b601f81116111fb575b50602091601f82116001146111885791819260009261117d575b5050816002029160080260020a60001904191617600960805101555b805167ffffffffffffffff8111610f0757610da1600b608051015461196c565b601f8111611134575b50602091601f82116001146110c1579181926000926110b6575b5050816002029160080260020a60001904191617600b60805101555b60805161014435600c82015581519067ffffffffffffffff8211610f0757600a610e0b91015461196c565b601f811161106d575b50602091601f8211600114610ffa57918192600092610fef575b5050816002029160080260020a60001904191617600a60805101555b60a0515167ffffffffffffffff8111610f0757610e6c600d608051015461196c565b601f8111610fa4575b50602090601f8111600114610f2d578091600091610f20575b50816002029160080260020a60001904191617600d60805101555b608051600e01805462ffffff1916600117905560025468010000000000000000811015610f0757610ee8816001600160a060020a039301600255611a4f565b909260088454920260020a808402938492160216911916179055600080f35b60e060020a634e487b7102600052604160045260246000fd5b905060a051015183610e8e565b600d608051019182600052602060002090600060a051905b601f1985168110610f8c5750918391600293600195601f19811610610f71575b50505002019055610ea9565b01516008601f841602840a6000190419169055858080610f65565b91926020600181928685015181550194019201610f45565b600d6080510160005260206000206020601f840104810160208410610fe8575b601f60209193010401905b818110610fdc5750610e75565b60008155600101610fcf565b5080610fc4565b015190508380610e2e565b600a60805101928360005260206000209160005b601f19851681106110555750918391600293600195601f1981161061103a575b50505002019055610e4a565b01516008601f841602840a600019041916905585808061102e565b9192602060018192868501518155019401920161100e565b600a6080510160005260206000206020601f8401048101602084106110af575b6020601f840104820181106110a3575050610e14565b6000815560010161108d565b508061108d565b015190508480610dc4565b600b60805101928360005260206000209160005b601f198516811061111c5750918391600293600195601f19811610611101575b50505002019055610de0565b01516008601f841602840a60001904191690558680806110f5565b919260206001819286850151815501940192016110d5565b600b6080510160005260206000206020601f840104810160208410611176575b6020601f8401048201811061116a575050610daa565b60008155600101611154565b5080611154565b015190508580610d65565b600960805101928360005260206000209160005b601f19851681106111e35750918391600293600195601f198116106111c8575b50505002019055610d81565b01516008601f841602840a60001904191690558780806111bc565b9192602060018192868501518155019401920161119c565b60096080510160005260206000206020601f84010481016020841061123d575b6020601f84010482018110611231575050610d4b565b6000815560010161121b565b508061121b565b015190508680610d06565b600860805101928360005260206000209160005b601f19851681106112aa5750918391600293600195601f1981161061128f575b50505002019055610d22565b01516008601f841602840a6000190419169055888080611283565b91926020600181928685015181550194019201611263565b60086080510160005260206000206020601f840104810160208410611304575b6020601f840104820181106112f8575050610cec565b600081556001016112e2565b50806112e2565b015190508780610ca7565b600760805101928360005260206000209160005b601f19851681106113715750918391600293600195601f19811610611356575b50505002019055610cc3565b01516008601f841602840a600019041916905589808061134a565b9192602060018192868501518155019401920161132a565b60076080510160005260206000206020601f8401048101602084106113cb575b6020601f840104820181106113bf575050610c8d565b600081556001016113a9565b50806113a9565b015190508880610c48565b600660805101928360005260206000209160005b601f19851681106114385750918391600293600195601f1981161061141d575b50505002019055610c64565b01516008601f841602840a60001904191690558a8080611411565b919260206001819286850151815501940192016113f1565b60066080510160005260206000206020601f840104810160208410611492575b6020601f84010482018110611486575050610c2e565b60008155600101611470565b5080611470565b015190508980610be9565b600560805101928360005260206000209160005b601f19851681106114ff5750918391600293600195601f198116106114e4575b50505002019055610c05565b01516008601f841602840a60001904191690558b80806114d8565b919260206001819286850151815501940192016114b8565b60056080510160005260206000206020601f840104810160208410611559575b6020601f8401048201811061154d575050610bcf565b60008155600101611537565b5080611537565b015190508a80610b8a565b600460805101928360005260206000209160005b601f19851681106115c65750918391600293600195601f198116106115ab575b50505002019055610ba6565b01516008601f841602840a60001904191690558c808061159f565b9192602060018192868501518155019401920161157f565b60046080510160005260206000206020601f840104810160208410611620575b6020601f84010482018110611614575050610b70565b600081556001016115fe565b50806115fe565b015190508a80610aa6565b600360805101928360005260206000209160005b601f198516811061168d5750918391600293600195601f19811610611672575b50505002019055610ac2565b01516008601f841602840a60001904191690558c8080611666565b91926020600181928685015181550194019201611646565b60036080510160005260206000206020601f8401048101602084106116e7575b6020601f840104820181106116db575050610a8c565b600081556001016116c5565b50806116c5565b015190508b80610a47565b600260805101928360005260206000209160005b601f19851681106117545750918391600293600195601f19811610611739575b50505002019055610a63565b01516008601f841602840a60001904191690558d808061172d565b9192602060018192868501518155019401920161170d565b60026080510160005260206000206020601f8401048101602084106117ae575b6020601f840104820181106117a2575050610a2d565b6000815560010161178c565b508061178c565b015190508c806109e8565b600160805101928360005260206000209160005b601f198516811061181b5750918391600293600195601f19811610611800575b50505002019055610a04565b01516008601f841602840a60001904191690558e80806117f4565b919260206001819286850151815501940192016117d4565b60016080510160005260206000206020601f840104810160208410611875575b6020601f840104820181106118695750506109ce565b60008155600101611853565b5080611853565b60e060020a634e487b7102600052601160045260246000fd5b60043590600160a060020a03821682036100ca57565b90601f8019910116810190811067ffffffffffffffff821117610f0757604052565b81601f820112156100ca5780359067ffffffffffffffff8211610f075760405192611902601f8401601f1916602001856118ab565b828452602083830101116100ca57816000926020809301838601378301015290565b60005b8381106119375750506000910152565b8181015183820152602001611927565b9060209161196081518092818552858086019101611924565b601f01601f1916010190565b90600160028304921680156119a0575b602083101461198757565b60e060020a634e487b7102600052602260045260246000fd5b91607f169161197c565b90604051918260008254926119be8461196c565b908184526001948581169081600014611a2d57506001146119ea575b50506119e8925003836118ab565b565b9093915060005260209081600020936000915b818310611a155750506119e8935082010138806119da565b855488840185015294850194879450918301916119fd565b9150506119e894506020925060ff1916828401521515810282010138806119da565b600254811015611a865760026000527f405787fa12a823e0f2b7631cc41b3ba8828b3321ca811111fa75cd3aa3bb5ace0190600090565b60e060020a634e487b7102600052603260045260246000fdfea264697066735822122064245315654697e81abe62a433fae65958281bf4f334a03123f2c0b5e13bf77164736f6c63430008130033",
  "immutableReferences": {},
  "source": "// SPDX-License-Identifier: MIT\npragma solidity ^0.8.19;\nimport \"./AccessControl.sol\";\n\ncontract Students is AccessControl {\n\n    event deletedStudent(address indexed teacherAddress);\n    \n    struct SubjectScores {\n        uint256 biology;\n        uint256 physics;\n        uint256 mathematics;\n        uint256 chemistry;\n        uint256 geography;\n        uint256 history;\n        uint256 civics;\n        uint256 english;\n        uint256 kiswahili;\n        uint256 average;\n        string grade;\n    }\n\n    struct Student {\n        address studentAddress;\n        string firstName;\n        string middleName;\n        string lastName;\n        string examNumber;\n        string gender;\n        string religion;\n        string dob;\n        string classLevel;\n        string combination;\n        string phoneNumber;\n        string studentLocation;\n        uint year;\n        string password;\n        bool isRegistered;\n        bool isLogin;\n        bool isDeleted;\n        // string imageUrl;\n        // mapping(uint8 => SubjectScores) termResults; // 1: First Term, 2: Mid Term, 3: Third Term\n    }\n\n    mapping(address => Student) public students;\n    address[] public studentAddressArray;\n\n    uint256 studentId;\n\n    function registerStudent(\n        address _studentAddress, \n        string memory _firstName, \n        string memory _middleName,\n        string memory _lastName,\n        string memory _gender,\n        string memory _religion,\n        string memory _dob, \n        string memory _classLevel,\n        string memory _combination,\n        string memory _studentLocation,\n        uint256 _year,\n        string memory _phoneNumber, \n        string memory _password\n        ) public {\n            studentId++;\n            Student storage student = students[_studentAddress];\n            student.studentAddress = _studentAddress;\n            student.firstName = _firstName;\n            student.middleName = _middleName;\n            student.lastName = _lastName;\n            student.examNumber = string(abi.encodePacked(\"s1253-\", _year,\"-\", studentId));\n            student.gender = _gender;\n            student.religion = _religion;\n            student.dob = _dob;\n            student.classLevel = _classLevel;\n            student.combination = _combination;\n            student.studentLocation = _studentLocation;\n            student.year = _year;\n            student.phoneNumber = _phoneNumber;\n            student.password = _password;\n            student.isRegistered = true;\n            student.isLogin = false;\n            student.isDeleted = false;\n\n            studentAddressArray.push(_studentAddress);\n    }\n\n    function deleteStudent(address _studentAddress) external {\n        require(!students[_studentAddress].isDeleted, \"Teacher does not exist\");\n        Student storage student = students[_studentAddress];\n        student.isDeleted = true;\n        delete(student.studentAddress);\n        // students[_studentAddress] = student;\n        emit deletedStudent(_studentAddress);\n    }\n\n    function  studentLogin(address _studentAddress, string memory _password) external {\n        require(students[_studentAddress].isRegistered == true, \"Your not registered yet!\");\n        // require(students[_studentAddress].isLogin == false, \"Your Already login\");\n        require(compareString(students[_studentAddress].password, _password), \"Invalid address or password\");\n        \n        students[_studentAddress].isLogin = true;\n    }\n\n    // function addTermResult(address _studentAddress, uint8 _term, uint256 _biology, uint256 _physics, uint256 _mathematics, uint256 _chemistry, uint256 _geography, uint256 _history, uint256 _civics, uint256 _english, uint256 _kiswahili) public {\n    //     SubjectScores memory scores = SubjectScores({\n    //         biology: _biology,\n    //         physics: _physics,\n    //         mathematics: _mathematics,\n    //         chemistry: _chemistry,\n    //         geography: _geography,\n    //         history: _history,\n    //         civics: _civics,\n    //         english: _english,\n    //         kiswahili: _kiswahili,\n    //         average: 0,\n    //         grade: \"\"\n    //     });\n\n    //     students[_studentAddress].termResults[_term] = scores;\n    //     calculateAverageAndGrade(_studentAddress, _term);\n    // }\n\n    function getStudentArray() external view returns(address[] memory) {\n        return studentAddressArray;\n    }\n\n    function getStudent(address _studentAddress) external view returns(\n        address studentAddress, \n        string memory firstName, \n        string memory middleName, \n        string memory lastName, \n        string memory examNumber, \n        string memory gender, \n        string memory religion, \n        string memory dob, \n        string memory classLevel, \n        string memory combination, \n        string memory studentLocation, \n        uint256 year, \n        string memory phoneNumber,\n        bool isDeleted \n        ) {\n        Student storage student = students[_studentAddress];\n        studentAddress = student.studentAddress;\n        firstName = student.firstName;\n        middleName = student.middleName;\n        lastName = student.lastName;\n        examNumber = student.examNumber;\n        gender = student.gender;\n        religion = student.religion;\n        dob = student.dob;\n        classLevel = student.classLevel;\n        combination = student.combination;\n        studentLocation = student.studentLocation;\n        year = student.year;\n        phoneNumber = student.phoneNumber;\n        isDeleted = student.isDeleted;\n    }\n\n    // function calculateAverageAndGrade(address _studentAddress, uint8 _term) private {\n    //     Student storage student = students[_studentAddress];\n    //     SubjectScores storage scores = student.termResults[_term];\n\n    //     uint256 totalScore = scores.biology + scores.physics + scores.mathematics + scores.chemistry + scores.geography + scores.history + scores.civics + scores.english + scores.kiswahili;\n    //     uint256 numberOfSubjects = 9; // Total number of subjects\n\n    //     scores.average = totalScore / numberOfSubjects;\n\n    //     if (scores.average >= 80) {\n    //         scores.grade = \"A\";\n    //     } else if (scores.average >= 70) {\n    //         scores.grade = \"B\";\n    //     } else if (scores.average >= 50) {\n    //         scores.grade = \"C\";\n    //     } else if (scores.average >= 35) {\n    //         scores.grade = \"D\";\n    //     } else {\n    //         scores.grade = \"F\";\n    //     }\n    // }\n}\n",
  "sourcePath": "/home/zeflojujo/school_management_system/Eazy_School/contracts/students.sol",
  "compiler": {
    "name": "solc",
    "version": "0.8.19+commit.7dd6d404.Emscripten.clang"
  },
  "schemaVersion": "3.4.16",
  "updatedAt": "2024-05-02T13:42:43.411Z",
  "networkType": "ethereum",
  "devdoc": {
    "kind": "dev",
    "methods": {},
    "version": 1
  },
  "userdoc": {
    "kind": "user",
    "methods": {},
    "version": 1
  }
}