{
  "contractName": "Students",
  "abi": [
    {
      "inputs": [
        {
          "internalType": "address",
          "name": "_teachersContractAddress",
          "type": "address"
        }
      ],
      "stateMutability": "nonpayable",
      "type": "constructor"
    },
    {
      "anonymous": false,
      "inputs": [
        {
          "indexed": true,
          "internalType": "address",
          "name": "teacherAddress",
          "type": "address"
        },
        {
          "indexed": true,
          "internalType": "address",
          "name": "studentAddress",
          "type": "address"
        },
        {
          "indexed": false,
          "internalType": "uint256",
          "name": "term",
          "type": "uint256"
        },
        {
          "indexed": false,
          "internalType": "uint256",
          "name": "average",
          "type": "uint256"
        },
        {
          "indexed": false,
          "internalType": "string",
          "name": "grade",
          "type": "string"
        }
      ],
      "name": "StudentResultUploaded",
      "type": "event"
    },
    {
      "anonymous": false,
      "inputs": [
        {
          "indexed": true,
          "internalType": "address",
          "name": "studentAddress",
          "type": "address"
        }
      ],
      "name": "deletedStudent",
      "type": "event"
    },
    {
      "inputs": [
        {
          "internalType": "uint256",
          "name": "",
          "type": "uint256"
        }
      ],
      "name": "studentAddressArray",
      "outputs": [
        {
          "internalType": "address",
          "name": "",
          "type": "address"
        }
      ],
      "stateMutability": "view",
      "type": "function",
      "constant": true
    },
    {
      "inputs": [
        {
          "internalType": "address",
          "name": "",
          "type": "address"
        }
      ],
      "name": "students",
      "outputs": [
        {
          "internalType": "address",
          "name": "studentAddress",
          "type": "address"
        },
        {
          "internalType": "string",
          "name": "firstName",
          "type": "string"
        },
        {
          "internalType": "string",
          "name": "middleName",
          "type": "string"
        },
        {
          "internalType": "string",
          "name": "lastName",
          "type": "string"
        },
        {
          "internalType": "string",
          "name": "examNumber",
          "type": "string"
        },
        {
          "internalType": "string",
          "name": "gender",
          "type": "string"
        },
        {
          "internalType": "string",
          "name": "religion",
          "type": "string"
        },
        {
          "internalType": "string",
          "name": "dob",
          "type": "string"
        },
        {
          "internalType": "string",
          "name": "classLevel",
          "type": "string"
        },
        {
          "internalType": "string",
          "name": "combination",
          "type": "string"
        },
        {
          "internalType": "string",
          "name": "phoneNumber",
          "type": "string"
        },
        {
          "internalType": "string",
          "name": "studentLocation",
          "type": "string"
        },
        {
          "internalType": "uint256",
          "name": "year",
          "type": "uint256"
        },
        {
          "internalType": "string",
          "name": "password",
          "type": "string"
        },
        {
          "internalType": "bool",
          "name": "isRegistered",
          "type": "bool"
        },
        {
          "internalType": "bool",
          "name": "isLogin",
          "type": "bool"
        },
        {
          "internalType": "bool",
          "name": "isDeleted",
          "type": "bool"
        },
        {
          "internalType": "uint256",
          "name": "schoolFee",
          "type": "uint256"
        },
        {
          "internalType": "uint256",
          "name": "accomodationFee",
          "type": "uint256"
        },
        {
          "internalType": "uint256",
          "name": "biology",
          "type": "uint256"
        },
        {
          "internalType": "uint256",
          "name": "physics",
          "type": "uint256"
        },
        {
          "internalType": "uint256",
          "name": "mathematics",
          "type": "uint256"
        },
        {
          "internalType": "uint256",
          "name": "chemistry",
          "type": "uint256"
        },
        {
          "internalType": "uint256",
          "name": "geography",
          "type": "uint256"
        },
        {
          "internalType": "uint256",
          "name": "history",
          "type": "uint256"
        },
        {
          "internalType": "uint256",
          "name": "civics",
          "type": "uint256"
        },
        {
          "internalType": "uint256",
          "name": "english",
          "type": "uint256"
        },
        {
          "internalType": "uint256",
          "name": "kiswahili",
          "type": "uint256"
        },
        {
          "internalType": "uint256",
          "name": "average",
          "type": "uint256"
        },
        {
          "internalType": "string",
          "name": "grade",
          "type": "string"
        }
      ],
      "stateMutability": "view",
      "type": "function",
      "constant": true
    },
    {
      "inputs": [
        {
          "internalType": "address",
          "name": "_studentAddress",
          "type": "address"
        },
        {
          "internalType": "string",
          "name": "_firstName",
          "type": "string"
        },
        {
          "internalType": "string",
          "name": "_middleName",
          "type": "string"
        },
        {
          "internalType": "string",
          "name": "_lastName",
          "type": "string"
        },
        {
          "internalType": "string",
          "name": "_gender",
          "type": "string"
        },
        {
          "internalType": "string",
          "name": "_religion",
          "type": "string"
        },
        {
          "internalType": "string",
          "name": "_dob",
          "type": "string"
        },
        {
          "internalType": "string",
          "name": "_classLevel",
          "type": "string"
        },
        {
          "internalType": "string",
          "name": "_combination",
          "type": "string"
        },
        {
          "internalType": "string",
          "name": "_studentLocation",
          "type": "string"
        },
        {
          "internalType": "uint256",
          "name": "_year",
          "type": "uint256"
        },
        {
          "internalType": "string",
          "name": "_password",
          "type": "string"
        }
      ],
      "name": "registerStudent",
      "outputs": [],
      "stateMutability": "nonpayable",
      "type": "function"
    },
    {
      "inputs": [
        {
          "internalType": "address",
          "name": "_studentAddress",
          "type": "address"
        }
      ],
      "name": "deleteStudent",
      "outputs": [],
      "stateMutability": "nonpayable",
      "type": "function"
    },
    {
      "inputs": [
        {
          "internalType": "address",
          "name": "_studentAddress",
          "type": "address"
        },
        {
          "internalType": "string",
          "name": "_password",
          "type": "string"
        }
      ],
      "name": "studentLogin",
      "outputs": [],
      "stateMutability": "nonpayable",
      "type": "function"
    },
    {
      "inputs": [
        {
          "internalType": "address",
          "name": "_studentAddress",
          "type": "address"
        }
      ],
      "name": "getUploadedResult",
      "outputs": [
        {
          "internalType": "string",
          "name": "firstName",
          "type": "string"
        },
        {
          "internalType": "string",
          "name": "middleName",
          "type": "string"
        },
        {
          "internalType": "string",
          "name": "lastName",
          "type": "string"
        },
        {
          "internalType": "uint256",
          "name": "biology",
          "type": "uint256"
        },
        {
          "internalType": "uint256",
          "name": "physics",
          "type": "uint256"
        },
        {
          "internalType": "uint256",
          "name": "mathematics",
          "type": "uint256"
        },
        {
          "internalType": "uint256",
          "name": "chemistry",
          "type": "uint256"
        },
        {
          "internalType": "uint256",
          "name": "geography",
          "type": "uint256"
        },
        {
          "internalType": "uint256",
          "name": "history",
          "type": "uint256"
        },
        {
          "internalType": "uint256",
          "name": "civics",
          "type": "uint256"
        },
        {
          "internalType": "uint256",
          "name": "english",
          "type": "uint256"
        },
        {
          "internalType": "uint256",
          "name": "kiswahili",
          "type": "uint256"
        },
        {
          "internalType": "uint256",
          "name": "average",
          "type": "uint256"
        },
        {
          "internalType": "string",
          "name": "grade",
          "type": "string"
        }
      ],
      "stateMutability": "view",
      "type": "function",
      "constant": true
    },
    {
      "inputs": [],
      "name": "getStudentArray",
      "outputs": [
        {
          "internalType": "address[]",
          "name": "",
          "type": "address[]"
        }
      ],
      "stateMutability": "view",
      "type": "function",
      "constant": true
    },
    {
      "inputs": [
        {
          "internalType": "address",
          "name": "_studentAddress",
          "type": "address"
        }
      ],
      "name": "getStudent",
      "outputs": [
        {
          "internalType": "address",
          "name": "studentAddress",
          "type": "address"
        },
        {
          "internalType": "string",
          "name": "firstName",
          "type": "string"
        },
        {
          "internalType": "string",
          "name": "middleName",
          "type": "string"
        },
        {
          "internalType": "string",
          "name": "lastName",
          "type": "string"
        },
        {
          "internalType": "string",
          "name": "examNumber",
          "type": "string"
        },
        {
          "internalType": "string",
          "name": "gender",
          "type": "string"
        },
        {
          "internalType": "string",
          "name": "religion",
          "type": "string"
        },
        {
          "internalType": "string",
          "name": "dob",
          "type": "string"
        },
        {
          "internalType": "string",
          "name": "classLevel",
          "type": "string"
        },
        {
          "internalType": "string",
          "name": "combination",
          "type": "string"
        },
        {
          "internalType": "string",
          "name": "studentLocation",
          "type": "string"
        },
        {
          "internalType": "uint256",
          "name": "year",
          "type": "uint256"
        },
        {
          "internalType": "uint256",
          "name": "accomodationFee",
          "type": "uint256"
        },
        {
          "internalType": "uint256",
          "name": "schoolFee",
          "type": "uint256"
        },
        {
          "internalType": "bool",
          "name": "isDeleted",
          "type": "bool"
        },
        {
          "internalType": "uint256",
          "name": "biology",
          "type": "uint256"
        },
        {
          "internalType": "uint256",
          "name": "physics",
          "type": "uint256"
        },
        {
          "internalType": "uint256",
          "name": "mathematics",
          "type": "uint256"
        },
        {
          "internalType": "uint256",
          "name": "chemistry",
          "type": "uint256"
        },
        {
          "internalType": "uint256",
          "name": "geography",
          "type": "uint256"
        },
        {
          "internalType": "uint256",
          "name": "history",
          "type": "uint256"
        },
        {
          "internalType": "uint256",
          "name": "civics",
          "type": "uint256"
        },
        {
          "internalType": "uint256",
          "name": "english",
          "type": "uint256"
        },
        {
          "internalType": "uint256",
          "name": "kiswahili",
          "type": "uint256"
        },
        {
          "internalType": "uint256",
          "name": "average",
          "type": "uint256"
        },
        {
          "internalType": "string",
          "name": "grade",
          "type": "string"
        }
      ],
      "stateMutability": "view",
      "type": "function",
      "constant": true
    },
    {
      "inputs": [
        {
          "internalType": "address",
          "name": "_studentAddress",
          "type": "address"
        },
        {
          "internalType": "string",
          "name": "subjectName",
          "type": "string"
        },
        {
          "internalType": "uint256",
          "name": "_subjectScore",
          "type": "uint256"
        }
      ],
      "name": "uploadSubjectScore",
      "outputs": [],
      "stateMutability": "nonpayable",
      "type": "function"
    },
    {
      "inputs": [
        {
          "internalType": "address",
          "name": "_studentAddress",
          "type": "address"
        },
        {
          "internalType": "uint256",
          "name": "_schoolFee",
          "type": "uint256"
        }
      ],
      "name": "addSchoolFee",
      "outputs": [],
      "stateMutability": "nonpayable",
      "type": "function"
    },
    {
      "inputs": [
        {
          "internalType": "address",
          "name": "_studentAddress",
          "type": "address"
        },
        {
          "internalType": "uint256",
          "name": "_accomodationFee",
          "type": "uint256"
        }
      ],
      "name": "addAccomodationFee",
      "outputs": [],
      "stateMutability": "nonpayable",
      "type": "function"
    }
  ],
  "bytecode": "0x60803461007b576126ec80380390601f19601f83011683019183831067ffffffffffffffff8411176100805780849260209460405283398101031261007b5751600160a060020a0381169081900361007b57600160a060020a031933816000541617600055600154161760015560405161263c90816100b08239f35b600080fd5b7f4e487b7100000000000000000000000000000000000000000000000000000000600052604160045260246000fdfe610540604052600436101561001357600080fd5b7c010000000000000000000000000000000000000000000000000000000060003504806326c04dcc14611e2657806336fdc8ea14611cb05780636b7b44d714611974578063730bcc5d146117ab5780637b02b1fb146115c25780638f23be8c146114fa578063a6c807a914611124578063b89eb61a14610447578063d270c4d814610220578063f9920d5b146101db5763feb2790f146100b257600080fd5b346101d65760203660031901126101d6576100cb61224b565b600160a060020a03166000526002602052604060002060118101546012820154916013810154916014820154601583015460168401546017850154601886015491601987015493601a88015495600189016101259061237c565b9961013260028b0161237c565b9b61013f60038c0161237c565b9a601b0161014c9061237c565b9a6040519d8e809e6101c0808352820161016591612319565b90808203906020015261017791612319565b8d810360408f015261018891612319565b9960608d015260808c015260a08b015260c08a015260e08901526101008801526101208701526101408601526101608501526101808401528281036101a08401526101d291612319565b0390f35b600080fd5b346101d65760203660031901126101d6576004356003548110156101d657600160a060020a0361020c602092612421565b9190546008604051930260020a9004168152f35b346101d65760403660031901126101d657600160a060020a038061024261224b565b169081600052600260205260406000209160108301906102656024358354612515565b8255600052600260205260406000209183830361027e57005b83601b928392610445965416600160a060020a03198654161785556102a96001830160018701612522565b6102b96002830160028701612522565b6102c96003830160038701612522565b6102d96004830160048701612522565b6102e96005830160058701612522565b6102f96006830160068701612522565b6103096007830160078701612522565b6103196008830160088701612522565b6103296009830160098701612522565b610339600a8301600a8701612522565b610349600b8301600b8701612522565b600c820154600c860155610363600d8301600d8701612522565b6103c9600e860160ff62010000600e860161038d83825416859060ff801983541691151516179055565b8054845461ff001916610100918290048516151590910261ff001617845554041662ff000062010000835492151502169062ff00001916179055565b600f820154600f860155546010850155601181015460118501556012810154601285015560138101546013850155601481015460148501556015810154601585015560168101546016850155601781015460178501556018810154601885015560198101546019850155601a810154601a850155019101612522565b005b346101d6576101803660031901126101d65761046161224b565b60243567ffffffffffffffff81116101d65761048190369060040161229f565b60443567ffffffffffffffff81116101d6576104a190369060040161229f565b60643567ffffffffffffffff81116101d6576104c190369060040161229f565b60843567ffffffffffffffff81116101d6576104e190369060040161229f565b60a43567ffffffffffffffff81116101d65761050190369060040161229f565b60c43567ffffffffffffffff81116101d65761052190369060040161229f565b60e43567ffffffffffffffff81116101d65761054190369060040161229f565b916101043567ffffffffffffffff81116101d65761056390369060040161229f565b936101243567ffffffffffffffff81116101d65761058590369060040161229f565b956101643567ffffffffffffffff81116101d6576105a790369060040161229f565b97600454600019811461110b57600101600455600160a060020a038b166000526002602052604060002099600160a060020a038c16600160a060020a03198c5416178b5580519067ffffffffffffffff8211610b5a578190610619828e60016106128183015461233e565b9101612488565b602090601f83116001146110975760009261108c575b5050816002029160080260020a6000190419161760018b01555b80519067ffffffffffffffff8211610b5a578190610670828d60026106128183015461233e565b602090601f83116001146110185760009261100d575b5050816002029160080260020a6000190419161760028a01555b80519067ffffffffffffffff8211610b5a5781906106c7828c60036106128183015461233e565b602090601f8311600114610f9957600092610f8e575b5050816002029160080260020a6000190419161760038901555b600454604051907f73313235332d000000000000000000000000000000000000000000000000000060208301526101443560268301527f2d00000000000000000000000000000000000000000000000000000000000000604683015260478201526047815280608081011067ffffffffffffffff608083011117610b5a576080810160405280519067ffffffffffffffff8211610b5a5781906107a3828c60046106128183015461233e565b602090601f8311600114610f1a57600092610f0f575b5050816002029160080260020a6000190419161760048901555b80519067ffffffffffffffff8211610b5a578190610801826107f860058d015461233e565b60058d01612488565b602090601f8311600114610e9b57600092610e90575b5050816002029160080260020a6000190419161760058801555b80519067ffffffffffffffff8211610b5a57819061085f8261085660068c015461233e565b60068c01612488565b602090601f8311600114610e1c57600092610e11575b5050816002029160080260020a6000190419161760068701555b80519067ffffffffffffffff8211610b5a5781906108bd826108b460078b015461233e565b60078b01612488565b602090601f8311600114610d9d57600092610d92575b5050816002029160080260020a6000190419161760078601555b80519067ffffffffffffffff8211610b5a57819061091b8261091260088a015461233e565b60088a01612488565b602090601f8311600114610d1e57600092610d13575b5050816002029160080260020a6000190419161760088501555b80519067ffffffffffffffff8211610b5a57819061097982610970600989015461233e565b60098901612488565b602090601f8311600114610c9f57600092610c94575b5050816002029160080260020a6000190419161760098401555b80519067ffffffffffffffff8211610b5a5781906109d7826109ce600b88015461233e565b600b8801612488565b602090601f8311600114610c2057600092610c15575b5050816002029160080260020a60001904191617600b8301555b61014435600c83015580519067ffffffffffffffff8211610b5a57610a3c82610a33600d86015461233e565b600d8601612488565b602090601f8311600114610b9f57601b93929160009183610b94575b5050816002029160080260020a60001904191617600d8201555b6000600f82015560006010820155600e8101600162ffffff198254161790556000601182015560006012820155600060138201556000601482015560006015820155600060168201556000601782015560006018820155600060198201556000601a82015501610ae2815461233e565b601f8111610b73575b507f2d2d000000000000000000000000000000000000000000000000000000000004905560035468010000000000000000811015610b5a57610b3b816001600160a060020a039301600355612421565b909260088454920260020a808402938492160216911916179055600080f35b60e060020a634e487b7102600052604160045260246000fd5b610b8e90826000526020601f81600020920104810190612471565b82610aeb565b015190508580610a58565b90600d840160005260206000209160005b601f1985168110610bfd575092600192600292601b969583601f19811610610be2575b5050500201600d820155610a72565b01516008601f841602840a6000190419169055868080610bd3565b91926020600181928685015181550194019201610bb0565b0151905085806109ed565b9150600b850160005260206000209160005b601f1985168110610c7c5750918391600293600195601f19811610610c61575b5050500201600b830155610a07565b01516008601f841602840a6000190419169055868080610c52565b91926020600181928685015181550194019201610c32565b01519050868061098f565b91506009860160005260206000209160005b601f1985168110610cfb5750918391600293600195601f19811610610ce0575b505050020160098401556109a9565b01516008601f841602840a6000190419169055878080610cd1565b91926020600181928685015181550194019201610cb1565b015190508780610931565b91506008870160005260206000209160005b601f1985168110610d7a5750918391600293600195601f19811610610d5f575b5050500201600885015561094b565b01516008601f841602840a6000190419169055888080610d50565b91926020600181928685015181550194019201610d30565b0151905088806108d3565b91506007880160005260206000209160005b601f1985168110610df95750918391600293600195601f19811610610dde575b505050020160078601556108ed565b01516008601f841602840a6000190419169055898080610dcf565b91926020600181928685015181550194019201610daf565b015190508980610875565b91506006890160005260206000209160005b601f1985168110610e785750918391600293600195601f19811610610e5d575b5050500201600687015561088f565b01516008601f841602840a60001904191690558a8080610e4e565b91926020600181928685015181550194019201610e2e565b015190508a80610817565b915060058a0160005260206000209160005b601f1985168110610ef75750918391600293600195601f19811610610edc575b50505002016005880155610831565b01516008601f841602840a60001904191690558b8080610ecd565b91926020600181928685015181550194019201610ead565b015190508b806107b9565b915060048b0160005260206000209160005b601f1985168110610f765750918391600293600195601f19811610610f5b575b505050020160048901556107d3565b01516008601f841602840a60001904191690558c8080610f4c565b91926020600181928685015181550194019201610f2c565b015190508b806106dd565b915060038b0160005260206000209160005b601f1985168110610ff55750918391600293600195601f19811610610fda575b505050020160038901556106f7565b01516008601f841602840a60001904191690558c8080610fcb565b91926020600181928685015181550194019201610fab565b015190508c80610686565b915060028c0160005260206000209160005b601f19851681106110745750918391600293600195601f19811610611059575b505050020160028a01556106a0565b01516008601f841602840a60001904191690558d808061104a565b9192602060018192868501518155019401920161102a565b015190508d8061062f565b915060018d0160005260206000209160005b601f19851681106110f35750918391600293600195601f198116106110d8575b505050020160018b0155610649565b01516008601f841602840a60001904191690558e80806110c9565b919260206001819286850151815501940192016110a9565b60e060020a634e487b7102600052601160045260246000fd5b346101d65760203660031901126101d657600160a060020a038061114661224b565b16600052600260205260406000209081610320528154166101005260010161116d9061237c565b61042052610320516002016111819061237c565b6101e052610320516003016111959061237c565b61038052610320516004016111a99061237c565b61046052610320516005016111bd9061237c565b60e052610320516006016111d09061237c565b610320516007016111e09061237c565b610320516008016111f09061237c565b610320516009016112009061237c565b61032051600a016112109061237c565b9061032051600b016112219061237c565b9261032051600c81015461036052600d0161123b9061237c565b610280526103205194600e86015461020052600f8601549660108701549660118101546102c052601281015460805260138101546104e05260148101546102205260158101546101a05260168101546102605260178101546101405260188101546103a052601981015460a052601a81015461024052601b016112bd9061237c565b6105005260405180610480526101005190526103c0806104805160200152610480510161042051906112ee91612319565b6104805180820390604001526101e0519061130891612319565b610480518082039060600152610380519061132291612319565b610480518082039060800152610460519061133c91612319565b610480518082039060a0015260e0519061135591612319565b610480518082039060c0015261136a91612319565b610480518082039060e0015261137f91612319565b6104805180820390610100015261139591612319565b610480518082039061012001526113ab91612319565b610480518082039061014001526113c191612319565b610480518082039061016001526113d791612319565b6103605161048051610180015261048051808203906101a0015261028051906113ff91612319565b916102005160ff161515610480516101c0015261020051610100900460ff161515610480516101e001526102005162010000900460ff1615156104805161020001526104805161022001526104805161024001526102c0516104805161026001526080516104805161028001526104e051610480516102a0015261022051610480516102c001526101a051610480516102e0015261026051610480516103000152610140516104805161032001526103a05161048051610340015260a0516104805161036001526102405161048051610380015261048051808203906103a00152610480519061050051906114f391612319565b0361048051f35b346101d65760003660031901126101d657604051806003548083526020809301809160036000527fc2575a0e9e593c00f959f8c92f12db2869c3395a3b0502d05e2516446f71f85b9060005b868282106115a557868661155c8288038361227d565b604051928392818401908285525180915260408401929160005b82811061158557505050500390f35b8351600160a060020a031685528695509381019392810192600101611576565b8354600160a060020a031685529093019260019283019201611546565b346101d65760403660031901126101d657600160a060020a03806115e461224b565b1690816000526002602052604060002091600f8301906116076024358354612515565b8255600052600260205260406000209183830361162057005b83601b928392610445965416600160a060020a031986541617855561164b6001830160018701612522565b61165b6002830160028701612522565b61166b6003830160038701612522565b61167b6004830160048701612522565b61168b6005830160058701612522565b61169b6006830160068701612522565b6116ab6007830160078701612522565b6116bb6008830160088701612522565b6116cb6009830160098701612522565b6116db600a8301600a8701612522565b6116eb600b8301600b8701612522565b600c820154600c860155611705600d8301600d8701612522565b61172f600e860160ff62010000600e860161038d83825416859060ff801983541691151516179055565b54600f85015560108101546010850155601181015460118501556012810154601285015560138101546013850155601481015460148501556015810154601585015560168101546016850155601781015460178501556018810154601885015560198101546019850155601a810154601a850155019101612522565b346101d65760203660031901126101d657600160a060020a036117cc61224b565b168060005260026020526201000060ff81600e60406000200154041661192d57601b6119069183600052600260205260006040812091600e83019062ff000019825416178155818355611821600184016124cd565b61182d600284016124cd565b611839600384016124cd565b611845600484016124cd565b611851600584016124cd565b61185d600684016124cd565b611869600784016124cd565b611875600884016124cd565b611881600984016124cd565b61188d600a84016124cd565b611899600b84016124cd565b81600c8401556118ab600d84016124cd565b556000600f820155600060108201556000601182015560006012820155600060138201556000601482015560006015820155600060168201556000601782015560006018820155600060198201556000601a820155016124cd565b7f3b45ab09dae70c048ef52fb6150674531559cb10dadcbee9cb7d8b4d8a00e658600080a2005b606460405160e560020a62461bcd02815260206004820152601660248201527f53747564656e7420646f6573206e6f74206578697374000000000000000000006044820152fd5b346101d65760203660031901126101d657600160a060020a038061199661224b565b1660005260026020526040600020908161016052815416906001016119ba9061237c565b60c052610160516002016119cd9061237c565b61018052610160516003016119e19061237c565b6104a052610160516004016119f59061237c565b9061016051600501611a069061237c565b9061016051600601611a179061237c565b9261016051600701611a289061237c565b9261016051600801611a399061237c565b6104005261016051600901611a4d9061237c565b61016051600b01611a5d9061237c565b906101605195600c8701546101c052601087015497600f88015494600e89015462010000900460ff169660118a01549860128b01549a60138101546103c05260148101546102e05260158101546104c05260168101546105205260178101546103005260188101546101205260198101546103e052601a8101546102a052601b01611ae79061237c565b61044052604051806103405252610340516020016103409052610340516103400160c05190611b1591612319565b6103405180820390604001526101805190611b2f91612319565b6103405180820390606001526104a05190611b4991612319565b610340518082039060800152611b5e91612319565b610340518082039060a00152611b7391612319565b610340518082039060c00152611b8891612319565b610340518082039060e00152611b9d91612319565b610340518082039061010001526104005190611bb891612319565b61034051808203906101200152611bce91612319565b61034051808203906101400152611be491612319565b946101c051610340516101600152610340516101800152610340516101a001521515610340516101c00152610340516101e001526103405161020001526103c0516103405161022001526102e0516103405161024001526104c0516103405161026001526105205161034051610280015261030051610340516102a0015261012051610340516102c001526103e051610340516102e001526102a0516103405161030001526103405180820390610320015261034051906104405190611ca991612319565b0361034051f35b346101d65760403660031901126101d657611cc961224b565b60243567ffffffffffffffff81116101d657611cf1600160a060020a0391369060040161229f565b911690816000526020906002825260ff600e604060002001541615611ddf578260005260028252611d28600d60406000200161237c565b604051611d51848281611d4481830196878151938492016122f6565b810103808452018261227d565b51902090604051611d71848281611d4481830196878151938492016122f6565b51902003611d985760009182526002905260409020600e01805461ff001916610100179055005b6064906040519060e560020a62461bcd0282526004820152601b60248201527f496e76616c69642061646472657373206f722070617373776f726400000000006044820152fd5b6064826040519060e560020a62461bcd0282526004820152601b60248201527f596f7520617265206e6f742072656769737465726564207965742100000000006044820152fd5b346101d65760603660031901126101d657611e3f61224b565b60243567ffffffffffffffff81116101d657611e5f90369060040161229f565b600160a060020a03604435921660005260206002815260406000209160405190828201815192611e99858281860196611d4481878a6122f6565b519020604051848101907f62696f6c6f677900000000000000000000000000000000000000000000000000825260078152611ed381612261565b51902003611ee45750505060110155005b60405183810190611efd85828551611d4481878a6122f6565b519020604051848101907f7068797369637300000000000000000000000000000000000000000000000000825260078152611f3781612261565b51902003611f485750505060120155005b60405183810190611f6185828551611d4481878a6122f6565b519020604051848101907f6d617468656d61746963730000000000000000000000000000000000000000008252600b8152611f9b81612261565b51902003611fac5750505060130155005b60405183810190611fc585828551611d4481878a6122f6565b519020604051848101907f6368656d69737472790000000000000000000000000000000000000000000000825260098152611fff81612261565b519020036120105750505060140155005b6040518381019061202985828551611d4481878a6122f6565b519020604051848101907f67656f677261706879000000000000000000000000000000000000000000000082526009815261206381612261565b519020036120745750505060150155005b6040518381019061208d85828551611d4481878a6122f6565b519020604051848101907f686973746f7279000000000000000000000000000000000000000000000000008252600781526120c781612261565b519020036120d85750505060160155005b604051838101906120f185828551611d4481878a6122f6565b519020604051848101907f636976696373000000000000000000000000000000000000000000000000000082526006815261212b81612261565b5190200361213c5750505060170155005b6040518381019061215585828551611d4481878a6122f6565b519020604051848101907f656e676c6973680000000000000000000000000000000000000000000000000082526007815261218f81612261565b519020036121a05750505060180155005b6121bb836040518093611d44838301968792519283916122f6565b519020604051828101907f6b6973776168696c6900000000000000000000000000000000000000000000008252600981526121f581612261565b51902003612204575060190155005b6064906040519060e560020a62461bcd0282526004820152601460248201527f496e76616c6964207375626a656374206e616d650000000000000000000000006044820152fd5b60043590600160a060020a03821682036101d657565b6040810190811067ffffffffffffffff821117610b5a57604052565b90601f8019910116810190811067ffffffffffffffff821117610b5a57604052565b81601f820112156101d65780359067ffffffffffffffff8211610b5a57604051926122d4601f8401601f19166020018561227d565b828452602083830101116101d657816000926020809301838601378301015290565b60005b8381106123095750506000910152565b81810151838201526020016122f9565b90602091612332815180928185528580860191016122f6565b601f01601f1916010190565b9060016002830492168015612372575b602083101461235957565b60e060020a634e487b7102600052602260045260246000fd5b91607f169161234e565b90604051918260008254926123908461233e565b9081845260019485811690816000146123ff57506001146123bc575b50506123ba9250038361227d565b565b9093915060005260209081600020936000915b8183106123e75750506123ba935082010138806123ac565b855488840185015294850194879450918301916123cf565b9150506123ba94506020925060ff1916828401521515810282010138806123ac565b6003548110156124585760036000527fc2575a0e9e593c00f959f8c92f12db2869c3395a3b0502d05e2516446f71f85b0190600090565b60e060020a634e487b7102600052603260045260246000fd5b81811061247c575050565b60008155600101612471565b9190601f811161249757505050565b6123ba92600052602060002090602080601f850104830193106124c3575b601f60209101040190612471565b90915081906124b5565b6124d7815461233e565b90816124e1575050565b81601f600093116001146124f3575055565b9080839182526125116020601f818520950104840160018501612471565b5555565b9190820180921161110b57565b9080821461260257612534815461233e565b9067ffffffffffffffff8211610b5a57819061255a82612554865461233e565b86612488565b600090601f831160011461259357600092612588575b5050816002029160080260020a600019041916179055565b015490503880612570565b81526020808220858352818320935090601f1985169083905b8282106125e957505091600293918560019694106125ce575b50505002019055565b01546008601f841602840a60001904191690553880806125c5565b84958192958501548155600180910196019401906125ac565b505056fea264697066735822122030e6d235c362d1a6e034bb22598281f4236c00a07c0eba608c786fa6fcc7191c64736f6c63430008130033",
  "immutableReferences": {},
  "source": "// // SPDX-License-Identifier: MIT\n// pragma solidity ^0.8.19;\n// import \"./AccessControl.sol\";\n\n// contract Students is AccessControl {\n\n//     event deletedStudent(address indexed teacherAddress);\n//     event StudentResultUploaded(address indexed teacherAddress, address indexed studentAddress, uint256 term, uint256 average, string grade);\n\n//     struct SubjectScores {\n//         uint256 biology;\n//         uint256 physics;\n//         uint256 mathematics;\n//         uint256 chemistry;\n//         uint256 geography;\n//         uint256 history;\n//         uint256 civics;\n//         uint256 english;\n//         uint256 kiswahili;\n//         uint256 average;\n//         string grade;\n//     }\n\n//     struct Student {\n//         address studentAddress;\n//         string firstName;\n//         string middleName;\n//         string lastName;\n//         string examNumber;\n//         string gender;\n//         string religion;\n//         string dob;\n//         string classLevel;\n//         string combination;\n//         string phoneNumber;\n//         string studentLocation;\n//         uint year;\n//         string password;\n//         bool isRegistered;\n//         bool isLogin;\n//         bool isDeleted;\n//         uint256 schoolFee;\n//         uint256 accomodationFee;\n//         mapping(uint256 => SubjectScores) termResults; // 1: First Term, 2: Mid Term, 3: Third Term\n//     }\n\n//     mapping(address => Student) students;\n//     address[] public studentAddressArray;\n\n//     uint256 studentId;\n\n//     function registerStudent(\n//         address _studentAddress, \n//         string memory _firstName, \n//         string memory _middleName,\n//         string memory _lastName,\n//         string memory _gender,\n//         string memory _religion,\n//         string memory _dob, \n//         string memory _classLevel,\n//         string memory _combination,\n//         string memory _studentLocation,\n//         uint256 _year,\n//         string memory _password\n//     ) public {\n//         studentId++;\n//         Student storage student = students[_studentAddress];\n//         student.studentAddress = _studentAddress;\n//         student.firstName = _firstName;\n//         student.middleName = _middleName;\n//         student.lastName = _lastName;\n//         student.examNumber = string(abi.encodePacked(\"s1253-\", _year, \"-\", studentId));\n//         student.gender = _gender;\n//         student.religion = _religion;\n//         student.dob = _dob;\n//         student.classLevel = _classLevel;\n//         student.combination = _combination;\n//         student.studentLocation = _studentLocation;\n//         student.year = _year;\n//         student.password = _password;\n//         student.isRegistered = true;\n//         student.isLogin = false;\n//         student.isDeleted = false;\n\n//         studentAddressArray.push(_studentAddress);\n//     }\n\n//     function deleteStudent(address _studentAddress) external {\n//         require(!students[_studentAddress].isDeleted, \"Student does not exist\");\n//         Student storage student = students[_studentAddress];\n//         student.isDeleted = true;\n//         delete(student.studentAddress);\n//         emit deletedStudent(_studentAddress);\n//     }\n\n//     function studentLogin(address _studentAddress, string memory _password) external {\n//         require(students[_studentAddress].isRegistered, \"You are not registered yet!\");\n//         require(compareString(students[_studentAddress].password, _password), \"Invalid address or password\");\n//         students[_studentAddress].isLogin = true;\n//     }\n\n//     function addTermResult(\n//         address _studentAddress, \n//         uint256 _term, \n//         uint256 _biology, \n//         uint256 _physics, \n//         uint256 _mathematics, \n//         uint256 _chemistry, \n//         uint256 _geography, \n//         uint256 _history, \n//         uint256 _civics, \n//         uint256 _english, \n//         uint256 _kiswahili\n//     ) public {\n//         require(students[_studentAddress].isRegistered, \"Student is not registered\");\n\n//         SubjectScores memory scores = SubjectScores({\n//             biology: _biology,\n//             physics: _physics,\n//             mathematics: _mathematics,\n//             chemistry: _chemistry,\n//             geography: _geography,\n//             history: _history,\n//             civics: _civics,\n//             english: _english,\n//             kiswahili: _kiswahili,\n//             average: 0,\n//             grade: \"\"\n//         });\n\n//         students[_studentAddress].termResults[_term] = scores;\n//         calculateAverageAndGrade(_studentAddress, _term);\n//     }\n\n//     function calculateAverageAndGrade(address _studentAddress, uint256 _term) private {\n//         Student storage student = students[_studentAddress];\n//         SubjectScores storage scores = student.termResults[_term];\n\n//         uint256 totalScore = scores.biology + scores.physics + scores.mathematics + scores.chemistry + scores.geography + scores.history + scores.civics + scores.english + scores.kiswahili;\n//         uint256 numberOfSubjects = 9; // Total number of subjects\n\n//         scores.average = totalScore / numberOfSubjects;\n\n//         if (scores.average >= 80) {\n//             scores.grade = \"A\";\n//         } else if (scores.average >= 70) {\n//             scores.grade = \"B\";\n//         } else if (scores.average >= 50) {\n//             scores.grade = \"C\";\n//         } else if (scores.average >= 35) {\n//             scores.grade = \"D\";\n//         } else {\n//             scores.grade = \"F\";\n//         }\n\n//         emit StudentResultUploaded(msg.sender, _studentAddress, _term, scores.average, scores.grade);\n//     }\n\n//     function getUploadedResult(address _studentAddress, uint256 _term) public view returns (\n//         uint256 biology, \n//         uint256 physics, \n//         uint256 mathematics, \n//         uint256 chemistry, \n//         uint256 geography, \n//         uint256 history, \n//         uint256 civics, \n//         uint256 english, \n//         uint256 kiswahili, \n//         uint256 average, \n//         string memory grade\n//     ) {\n//         SubjectScores storage scores = students[_studentAddress].termResults[_term];\n//         return (\n//             scores.biology,\n//             scores.physics,\n//             scores.mathematics,\n//             scores.chemistry,\n//             scores.geography,\n//             scores.history,\n//             scores.civics,\n//             scores.english,\n//             scores.kiswahili,\n//             scores.average,\n//             scores.grade\n//         );\n//     }\n\n//     function getStudentArray() external view returns(address[] memory) {\n//         return studentAddressArray;\n//     }\n\n//     function getStudent(address _studentAddress) external view returns(\n//         address studentAddress, \n//         string memory firstName, \n//         string memory middleName, \n//         string memory lastName, \n//         string memory examNumber, \n//         string memory gender, \n//         string memory religion, \n//         string memory dob, \n//         string memory classLevel, \n//         string memory combination, \n//         string memory studentLocation, \n//         uint256 year, \n//         bool isDeleted \n//     ) {\n//         Student storage student = students[_studentAddress];\n//         studentAddress = student.studentAddress;\n//         firstName = student.firstName;\n//         middleName = student.middleName;\n//         lastName = student.lastName;\n//         examNumber = student.examNumber;\n//         gender = student.gender;\n//         religion = student.religion;\n//         dob = student.dob;\n//         classLevel = student.classLevel;\n//         combination = student.combination;\n//         studentLocation = student.studentLocation;\n//         year = student.year;\n//         isDeleted = student.isDeleted;\n//     }\n\n//     // function compareString(string memory a, string memory b) private pure returns (bool) {\n//     //     return keccak256(abi.encodePacked(a)) == keccak256(abi.encodePacked(b));\n//     // }\n\n//     //  function uploadSubjectScore(address _studentAddress, uint256 _term, string memory subjectName_, string memory _subjectScore) external {\n//     //     Student storage student = students[_studentAddress].termResults[_term];\n//     //     student.subjectName_ = _subjectScore;\n//     //     students[_studentAddress] = student;\n//     // }\n\n//     function uploadSubjectScore(address _studentAddress, uint256 _term, string memory subjectName_, uint256 _subjectScore) external {\n//         Student storage student = students[_studentAddress];\n//         student.termResults[_term][subjectName_] = _subjectScore;\n//     }\n// }\n\n// pragma solidity ^0.8.19;\n\n// import \"./AccessControl.sol\";\n// import \"./Teacher.sol\"; // Import the Teachers contract\n\n// contract Students is AccessControl {\n\n//     Teachers teachersContract;\n\n//     constructor(address _teachersContractAddress) {\n//         teachersContract = Teachers(_teachersContractAddress);\n//     }\n\n//     event deletedStudent(address indexed studentAddress);\n//     event StudentResultUploaded(address indexed teacherAddress, address indexed studentAddress, uint256 term, uint256 average, string grade);\n\n//     struct SubjectScores {\n//         uint256 biology;\n//         uint256 physics;\n//         uint256 mathematics;\n//         uint256 chemistry;\n//         uint256 geography;\n//         uint256 history;\n//         uint256 civics;\n//         uint256 english;\n//         uint256 kiswahili;\n//         uint256 average;\n//         string grade;\n//     }\n\n//     struct Student {\n//         address studentAddress;\n//         string firstName;\n//         string middleName;\n//         string lastName;\n//         string examNumber;\n//         string gender;\n//         string religion;\n//         string dob;\n//         string classLevel;\n//         string combination;\n//         string phoneNumber;\n//         string studentLocation;\n//         uint year;\n//         string password;\n//         bool isRegistered;\n//         bool isLogin;\n//         bool isDeleted;\n//         uint256 schoolFee;\n//         uint256 accomodationFee;\n//         mapping(uint256 => SubjectScores) termResults; // 1: First Term, 2: Mid Term, 3: Third Term\n//     }\n\n//     mapping(address => Student) public students;\n//     address[] public studentAddressArray;\n\n//     uint256 studentId;\n\n//     function registerStudent(\n//         address _studentAddress, \n//         string memory _firstName, \n//         string memory _middleName,\n//         string memory _lastName,\n//         string memory _gender,\n//         string memory _religion,\n//         string memory _dob, \n//         string memory _classLevel,\n//         string memory _combination,\n//         string memory _studentLocation,\n//         uint256 _year,\n//         string memory _password\n//     ) public {\n//         studentId++;\n//         Student storage student = students[_studentAddress];\n//         student.studentAddress = _studentAddress;\n//         student.firstName = _firstName;\n//         student.middleName = _middleName;\n//         student.lastName = _lastName;\n//         student.examNumber = string(abi.encodePacked(\"s1253-\", _year, \"-\", studentId));\n//         student.gender = _gender;\n//         student.religion = _religion;\n//         student.dob = _dob;\n//         student.classLevel = _classLevel;\n//         student.combination = _combination;\n//         student.studentLocation = _studentLocation;\n//         student.year = _year;\n//         student.password = _password;\n//         student.isRegistered = true;\n//         student.isLogin = false;\n//         student.isDeleted = false;\n\n//         studentAddressArray.push(_studentAddress);\n//     }\n\n//     function deleteStudent(address _studentAddress) external {\n//         require(!students[_studentAddress].isDeleted, \"Student does not exist\");\n//         Student storage student = students[_studentAddress];\n//         student.isDeleted = true;\n//         delete(students[_studentAddress]);\n//         emit deletedStudent(_studentAddress);\n//     }\n\n//     function studentLogin(address _studentAddress, string memory _password) external {\n//         require(students[_studentAddress].isRegistered, \"You are not registered yet!\");\n//         require(compareString(students[_studentAddress].password, _password), \"Invalid address or password\");\n//         students[_studentAddress].isLogin = true;\n//     }\n\n//     function addTermResult(\n//         address _studentAddress, \n//         uint256 _term, \n//         uint256 _biology, \n//         uint256 _physics, \n//         uint256 _mathematics, \n//         uint256 _chemistry, \n//         uint256 _geography, \n//         uint256 _history, \n//         uint256 _civics, \n//         uint256 _english, \n//         uint256 _kiswahili\n//     ) public {\n//         require(students[_studentAddress].isRegistered, \"Student is not registered\");\n\n//         SubjectScores memory scores = SubjectScores({\n//             biology: _biology,\n//             physics: _physics,\n//             mathematics: _mathematics,\n//             chemistry: _chemistry,\n//             geography: _geography,\n//             history: _history,\n//             civics: _civics,\n//             english: _english,\n//             kiswahili: _kiswahili,\n//             average: 0,\n//             grade: \"\"\n//         });\n\n//         students[_studentAddress].termResults[_term] = scores;\n//         calculateAverageAndGrade(_studentAddress, _term);\n//     }\n\n//     function calculateAverageAndGrade(address _studentAddress, uint256 _term) private {\n//         Student storage student = students[_studentAddress];\n//         SubjectScores storage scores = student.termResults[_term];\n\n//         uint256 totalScore = scores.biology + scores.physics + scores.mathematics + scores.chemistry + scores.geography + scores.history + scores.civics + scores.english + scores.kiswahili;\n//         uint256 numberOfSubjects = 9; // Total number of subjects\n\n//         scores.average = totalScore / numberOfSubjects;\n\n//         if (scores.average >= 80) {\n//             scores.grade = \"A\";\n//         } else if (scores.average >= 70) {\n//             scores.grade = \"B\";\n//         } else if (scores.average >= 50) {\n//             scores.grade = \"C\";\n//         } else if (scores.average >= 35) {\n//             scores.grade = \"D\";\n//         } else {\n//             scores.grade = \"F\";\n//         }\n\n//         emit StudentResultUploaded(msg.sender, _studentAddress, _term, scores.average, scores.grade);\n//     }\n\n//     function getUploadedResult(address _studentAddress, uint256 _term) public view returns (\n//         uint256 biology, \n//         uint256 physics, \n//         uint256 mathematics, \n//         uint256 chemistry, \n//         uint256 geography, \n//         uint256 history, \n//         uint256 civics, \n//         uint256 english, \n//         uint256 kiswahili, \n//         uint256 average, \n//         string memory grade\n//     ) {\n//         SubjectScores storage scores = students[_studentAddress].termResults[_term];\n//         return (\n//             scores.biology,\n//             scores.physics,\n//             scores.mathematics,\n//             scores.chemistry,\n//             scores.geography,\n//             scores.history,\n//             scores.civics,\n//             scores.english,\n//             scores.kiswahili,\n//             scores.average,\n//             scores.grade\n//         );\n//     }\n\n//     function getStudentArray() external view returns(address[] memory) {\n//         return studentAddressArray;\n//     }\n\n//     function getStudent(address _studentAddress) external view returns(\n//         address studentAddress, \n//         string memory firstName, \n//         string memory middleName, \n//         string memory lastName, \n//         string memory examNumber, \n//         string memory gender, \n//         string memory religion, \n//         string memory dob, \n//         string memory classLevel, \n//         string memory combination, \n//         string memory studentLocation, \n//         uint256 year, \n//         bool isDeleted \n//     ) {\n//         Student storage student = students[_studentAddress];\n//         studentAddress = student.studentAddress;\n//         firstName = student.firstName;\n//         middleName = student.middleName;\n//         lastName = student.lastName;\n//         examNumber = student.examNumber;\n//         gender = student.gender;\n//         religion = student.religion;\n//         dob = student.dob;\n//         classLevel = student.classLevel;\n//         combination = student.combination;\n//         studentLocation = student.studentLocation;\n//         year = student.year;\n//         isDeleted = student.isDeleted;\n//     }\n\n//     function uploadSubjectScore(address _studentAddress, uint256 _term, string memory subjectName_, uint256 _subjectScore) external {\n//         Student storage student = students[_studentAddress];\n//         student.termResults[_term][subjectName_] = _subjectScore;\n//     }\n\n//     // function compareString(string memory a, string memory b) private pure returns (bool) {\n//     //     return keccak256(abi.encodePacked(a)) == keccak256(abi.encodePacked(b));\n//     // }\n// }\n\n\npragma solidity ^0.8.19;\n\nimport \"./AccessControl.sol\";\nimport \"./Teachers.sol\"; // Import the Teachers contract\n\ncontract Students is AccessControl {\n\n    Teachers teachersContract;\n\n    constructor(address _teachersContractAddress) {\n        teachersContract = Teachers(_teachersContractAddress);\n    }\n\n    event deletedStudent(address indexed studentAddress);\n    event StudentResultUploaded(address indexed teacherAddress, address indexed studentAddress, uint256 term, uint256 average, string grade);\n\n    struct SubjectScores {\n        uint256 biology;\n        uint256 physics;\n        uint256 mathematics;\n        uint256 chemistry;\n        uint256 geography;\n        uint256 history;\n        uint256 civics;\n        uint256 english;\n        uint256 kiswahili;\n        uint256 average;\n        string grade;\n    }\n\n    struct Student {\n        address studentAddress;\n        string firstName;\n        string middleName;\n        string lastName;\n        string examNumber;\n        string gender;\n        string religion;\n        string dob;\n        string classLevel;\n        string combination;\n        string phoneNumber;\n        string studentLocation;\n        uint year;\n        string password;\n        bool isRegistered;\n        bool isLogin;\n        bool isDeleted;\n        uint256 schoolFee;\n        uint256 accomodationFee;\n        // mapping(uint256 => SubjectScores) termResults; // 1: First Term, 2: Mid Term, 3: Third Term\n        uint256 biology;\n        uint256 physics;\n        uint256 mathematics;\n        uint256 chemistry;\n        uint256 geography;\n        uint256 history;\n        uint256 civics;\n        uint256 english;\n        uint256 kiswahili;\n        uint256 average;\n        string grade;\n    }\n\n    mapping(address => Student) public students;\n    address[] public studentAddressArray;\n\n    uint256 studentId;\n\n    function registerStudent(\n        address _studentAddress, \n        string memory _firstName, \n        string memory _middleName,\n        string memory _lastName,\n        string memory _gender,\n        string memory _religion,\n        string memory _dob, \n        string memory _classLevel,\n        string memory _combination,\n        string memory _studentLocation,\n        uint256 _year,\n        string memory _password\n    ) public {\n        studentId++;\n        Student storage student = students[_studentAddress];\n        student.studentAddress = _studentAddress;\n        student.firstName = _firstName;\n        student.middleName = _middleName;\n        student.lastName = _lastName;\n        student.examNumber = string(abi.encodePacked(\"s1253-\", _year, \"-\", studentId));\n        student.gender = _gender;\n        student.religion = _religion;\n        student.dob = _dob;\n        student.classLevel = _classLevel;\n        student.combination = _combination;\n        student.studentLocation = _studentLocation;\n        student.year = _year;\n        student.password = _password;\n        student.schoolFee = 0;\n        student.accomodationFee = 0;\n        student.isRegistered = true;\n        student.isLogin = false;\n        student.isDeleted = false;\n        student.biology = 0;\n        student.physics = 0;\n        student.mathematics = 0;\n        student.chemistry = 0;\n        student.geography = 0;\n        student.history = 0;\n        student.civics = 0;\n        student.english = 0;\n        student.kiswahili = 0;\n        student.average = 0;\n        student.grade = \"--\";\n\n        studentAddressArray.push(_studentAddress);\n    }\n\n    function deleteStudent(address _studentAddress) external {\n        require(!students[_studentAddress].isDeleted, \"Student does not exist\");\n        Student storage student = students[_studentAddress];\n        student.isDeleted = true;\n        delete(students[_studentAddress]);\n        emit deletedStudent(_studentAddress);\n    }\n\n    function studentLogin(address _studentAddress, string memory _password) external {\n        require(students[_studentAddress].isRegistered, \"You are not registered yet!\");\n        require(compareString(students[_studentAddress].password, _password), \"Invalid address or password\");\n        students[_studentAddress].isLogin = true;\n    }\n\n    // function addTermResult(\n    //     address _studentAddress, \n    //     uint256 _term, \n    //     uint256 _biology, \n    //     uint256 _physics, \n    //     uint256 _mathematics, \n    //     uint256 _chemistry, \n    //     uint256 _geography, \n    //     uint256 _history, \n    //     uint256 _civics, \n    //     uint256 _english, \n    //     uint256 _kiswahili\n    // ) public {\n    //     require(students[_studentAddress].isRegistered, \"Student is not registered\");\n\n    //     SubjectScores memory scores = SubjectScores({\n    //         biology: _biology,\n    //         physics: _physics,\n    //         mathematics: _mathematics,\n    //         chemistry: _chemistry,\n    //         geography: _geography,\n    //         history: _history,\n    //         civics: _civics,\n    //         english: _english,\n    //         kiswahili: _kiswahili,\n    //         average: 0,\n    //         grade: \"\"\n    //     });\n\n    //     students[_studentAddress].termResults[_term] = scores;\n    //     calculateAverageAndGrade(_studentAddress, _term);\n    // }\n\n    function calculateAverageAndGrade(address _studentAddress, uint256 _term) private {\n        Student storage student = students[_studentAddress];\n        // SubjectScores storage student = student.termResults[_term];\n\n        uint256 totalScore = student.biology + student.physics + student.mathematics + student.chemistry + student.geography + student.history + student.civics + student.english + student.kiswahili;\n        uint256 numberOfSubjects = 9; // Total number of subjects\n\n        student.average = totalScore / numberOfSubjects;\n\n        if (student.average >= 80) {\n            student.grade = \"A\";\n        } else if (student.average >= 70) {\n            student.grade = \"B\";\n        } else if (student.average >= 45) {\n            student.grade = \"C\";\n        } else if (student.average >= 35) {\n            student.grade = \"D\";\n        } else {\n            student.grade = \"F\";\n        }\n\n        emit StudentResultUploaded(msg.sender, _studentAddress, _term, student.average, student.grade);\n    }\n\n    function getUploadedResult(address _studentAddress) public view returns (\n        string memory firstName,\n        string memory middleName,\n        string memory lastName,\n        uint256 biology, \n        uint256 physics, \n        uint256 mathematics, \n        uint256 chemistry, \n        uint256 geography, \n        uint256 history, \n        uint256 civics, \n        uint256 english, \n        uint256 kiswahili, \n        uint256 average, \n        string memory grade\n    ) {\n        // SubjectScores storage scores = students[_studentAddress].termResults[_term];\n        Student storage student = students[_studentAddress];\n        return (\n            student.firstName,\n            student.middleName,\n            student.lastName,\n            student.biology,\n            student.physics,\n            student.mathematics,\n            student.chemistry,\n            student.geography,\n            student.history,\n            student.civics,\n            student.english,\n            student.kiswahili,\n            student.average,\n            student.grade\n        );\n    }\n\n    function getStudentArray() external view returns(address[] memory) {\n        return studentAddressArray;\n    }\n\n    function getStudent(address _studentAddress) external view returns(\n        address studentAddress, \n        string memory firstName, \n        string memory middleName, \n        string memory lastName, \n        string memory examNumber, \n        string memory gender, \n        string memory religion, \n        string memory dob, \n        string memory classLevel, \n        string memory combination, \n        string memory studentLocation, \n        uint256 year, \n        uint256 accomodationFee, \n        uint256 schoolFee, \n        bool isDeleted,\n        uint256 biology, \n        uint256 physics, \n        uint256 mathematics, \n        uint256 chemistry, \n        uint256 geography, \n        uint256 history, \n        uint256 civics, \n        uint256 english, \n        uint256 kiswahili, \n        uint256 average, \n        string memory grade \n    ) {\n        Student storage student = students[_studentAddress];\n        studentAddress = student.studentAddress;\n        firstName = student.firstName;\n        middleName = student.middleName;\n        lastName = student.lastName;\n        examNumber = student.examNumber;\n        gender = student.gender;\n        religion = student.religion;\n        dob = student.dob;\n        classLevel = student.classLevel;\n        combination = student.combination;\n        studentLocation = student.studentLocation;\n        year = student.year;\n        accomodationFee = student.accomodationFee;\n        schoolFee = student.schoolFee;\n        isDeleted = student.isDeleted;\n        biology = student.biology;\n        physics = student.physics;\n        mathematics = student.mathematics;\n        chemistry = student.chemistry;\n        geography = student.geography;\n        history = student.history;\n        civics = student.civics;\n        english = student.english;\n        kiswahili = student.kiswahili;\n        average = student.average;\n        grade = student.grade;\n    }\n\n    function uploadSubjectScore(address _studentAddress, string memory subjectName, uint256 _subjectScore) external {\n        // require(teachersContract.isTeacher(msg.sender), \"Only teachers can upload scores\");\n        // require(students[_studentAddress].isRegistered, \"Student is not registered\");\n\n        // SubjectScores storage scores = students[_studentAddress].termResults[_term];\n        Student storage student = students[_studentAddress];\n        // student.subjectName = _subjectScore;\n\n        if (keccak256(abi.encodePacked(subjectName)) == keccak256(abi.encodePacked(\"biology\"))) {\n            student.biology = _subjectScore;\n        } else if (keccak256(abi.encodePacked(subjectName)) == keccak256(abi.encodePacked(\"physics\"))) {\n            student.physics = _subjectScore;\n        } else if (keccak256(abi.encodePacked(subjectName)) == keccak256(abi.encodePacked(\"mathematics\"))) {\n            student.mathematics = _subjectScore;\n        } else if (keccak256(abi.encodePacked(subjectName)) == keccak256(abi.encodePacked(\"chemistry\"))) {\n            student.chemistry = _subjectScore;\n        } else if (keccak256(abi.encodePacked(subjectName)) == keccak256(abi.encodePacked(\"geography\"))) {\n            student.geography = _subjectScore;\n        } else if (keccak256(abi.encodePacked(subjectName)) == keccak256(abi.encodePacked(\"history\"))) {\n            student.history = _subjectScore;\n        } else if (keccak256(abi.encodePacked(subjectName)) == keccak256(abi.encodePacked(\"civics\"))) {\n            student.civics = _subjectScore;\n        } else if (keccak256(abi.encodePacked(subjectName)) == keccak256(abi.encodePacked(\"english\"))) {\n            student.english = _subjectScore;\n        } else if (keccak256(abi.encodePacked(subjectName)) == keccak256(abi.encodePacked(\"kiswahili\"))) {\n            student.kiswahili = _subjectScore;\n        } else {\n            revert(\"Invalid subject name\");\n        }\n\n        // calculateAverageAndGrade(_studentAddress, _term);\n    }\n\n    function addSchoolFee(address _studentAddress, uint256 _schoolFee) external {\n       Student storage student = students[_studentAddress];\n       student.schoolFee += _schoolFee;\n       students[_studentAddress] = student;\n    }\n\n    function addAccomodationFee(address _studentAddress, uint256 _accomodationFee) external {\n       Student storage student = students[_studentAddress];\n       student.accomodationFee += _accomodationFee;\n       students[_studentAddress] = student;\n    }\n\n\n    // function compareString(string memory a, string memory b) private pure returns (bool) {\n    //     return keccak256(abi.encodePacked(a)) == keccak256(abi.encodePacked(b));\n    // }\n}\n\n",
  "sourcePath": "/home/zeflojujo/school_management_system/Eazy_School/contracts/Students.sol",
  "compiler": {
    "name": "solc",
    "version": "0.8.19+commit.7dd6d404.Emscripten.clang"
  },
  "schemaVersion": "3.4.16",
  "updatedAt": "2024-06-15T05:55:26.217Z",
  "networkType": "ethereum",
  "devdoc": {
    "kind": "dev",
    "methods": {},
    "version": 1
  },
  "userdoc": {
    "kind": "user",
    "methods": {},
    "version": 1
  }
}