{
  "contractName": "Students",
  "abi": [
    {
      "anonymous": false,
      "inputs": [
        {
          "indexed": true,
          "internalType": "address",
          "name": "teacherAddress",
          "type": "address"
        }
      ],
      "name": "deletedStudent",
      "type": "event"
    },
    {
      "inputs": [
        {
          "internalType": "uint256",
          "name": "",
          "type": "uint256"
        }
      ],
      "name": "studentAddressArray",
      "outputs": [
        {
          "internalType": "address",
          "name": "",
          "type": "address"
        }
      ],
      "stateMutability": "view",
      "type": "function",
      "constant": true
    },
    {
      "inputs": [
        {
          "internalType": "address",
          "name": "",
          "type": "address"
        }
      ],
      "name": "students",
      "outputs": [
        {
          "internalType": "address",
          "name": "studentAddress",
          "type": "address"
        },
        {
          "internalType": "string",
          "name": "firstName",
          "type": "string"
        },
        {
          "internalType": "string",
          "name": "middleName",
          "type": "string"
        },
        {
          "internalType": "string",
          "name": "lastName",
          "type": "string"
        },
        {
          "internalType": "string",
          "name": "examNumber",
          "type": "string"
        },
        {
          "internalType": "string",
          "name": "gender",
          "type": "string"
        },
        {
          "internalType": "string",
          "name": "religion",
          "type": "string"
        },
        {
          "internalType": "string",
          "name": "dob",
          "type": "string"
        },
        {
          "internalType": "string",
          "name": "classLevel",
          "type": "string"
        },
        {
          "internalType": "string",
          "name": "combination",
          "type": "string"
        },
        {
          "internalType": "string",
          "name": "phoneNumber",
          "type": "string"
        },
        {
          "internalType": "string",
          "name": "studentLocation",
          "type": "string"
        },
        {
          "internalType": "uint256",
          "name": "year",
          "type": "uint256"
        },
        {
          "internalType": "string",
          "name": "password",
          "type": "string"
        },
        {
          "internalType": "bool",
          "name": "isRegistered",
          "type": "bool"
        },
        {
          "internalType": "bool",
          "name": "isLogin",
          "type": "bool"
        },
        {
          "internalType": "bool",
          "name": "isDeleted",
          "type": "bool"
        }
      ],
      "stateMutability": "view",
      "type": "function",
      "constant": true
    },
    {
      "inputs": [
        {
          "internalType": "address",
          "name": "_studentAddress",
          "type": "address"
        },
        {
          "internalType": "string",
          "name": "_firstName",
          "type": "string"
        },
        {
          "internalType": "string",
          "name": "_middleName",
          "type": "string"
        },
        {
          "internalType": "string",
          "name": "_lastName",
          "type": "string"
        },
        {
          "internalType": "string",
          "name": "_gender",
          "type": "string"
        },
        {
          "internalType": "string",
          "name": "_religion",
          "type": "string"
        },
        {
          "internalType": "string",
          "name": "_dob",
          "type": "string"
        },
        {
          "internalType": "string",
          "name": "_classLevel",
          "type": "string"
        },
        {
          "internalType": "string",
          "name": "_combination",
          "type": "string"
        },
        {
          "internalType": "string",
          "name": "_studentLocation",
          "type": "string"
        },
        {
          "internalType": "uint256",
          "name": "_year",
          "type": "uint256"
        },
        {
          "internalType": "string",
          "name": "_password",
          "type": "string"
        }
      ],
      "name": "registerStudent",
      "outputs": [],
      "stateMutability": "nonpayable",
      "type": "function"
    },
    {
      "inputs": [
        {
          "internalType": "address",
          "name": "_studentAddress",
          "type": "address"
        }
      ],
      "name": "deleteStudent",
      "outputs": [],
      "stateMutability": "nonpayable",
      "type": "function"
    },
    {
      "inputs": [
        {
          "internalType": "address",
          "name": "_studentAddress",
          "type": "address"
        },
        {
          "internalType": "string",
          "name": "_password",
          "type": "string"
        }
      ],
      "name": "studentLogin",
      "outputs": [],
      "stateMutability": "nonpayable",
      "type": "function"
    },
    {
      "inputs": [],
      "name": "getStudentArray",
      "outputs": [
        {
          "internalType": "address[]",
          "name": "",
          "type": "address[]"
        }
      ],
      "stateMutability": "view",
      "type": "function",
      "constant": true
    },
    {
      "inputs": [
        {
          "internalType": "address",
          "name": "_studentAddress",
          "type": "address"
        }
      ],
      "name": "getStudent",
      "outputs": [
        {
          "internalType": "address",
          "name": "studentAddress",
          "type": "address"
        },
        {
          "internalType": "string",
          "name": "firstName",
          "type": "string"
        },
        {
          "internalType": "string",
          "name": "middleName",
          "type": "string"
        },
        {
          "internalType": "string",
          "name": "lastName",
          "type": "string"
        },
        {
          "internalType": "string",
          "name": "examNumber",
          "type": "string"
        },
        {
          "internalType": "string",
          "name": "gender",
          "type": "string"
        },
        {
          "internalType": "string",
          "name": "religion",
          "type": "string"
        },
        {
          "internalType": "string",
          "name": "dob",
          "type": "string"
        },
        {
          "internalType": "string",
          "name": "classLevel",
          "type": "string"
        },
        {
          "internalType": "string",
          "name": "combination",
          "type": "string"
        },
        {
          "internalType": "string",
          "name": "studentLocation",
          "type": "string"
        },
        {
          "internalType": "uint256",
          "name": "year",
          "type": "uint256"
        },
        {
          "internalType": "bool",
          "name": "isDeleted",
          "type": "bool"
        }
      ],
      "stateMutability": "view",
      "type": "function",
      "constant": true
    }
  ],
  "bytecode": "0x608080604052346100285760008054600160a060020a03191633179055611999908161002e8239f35b600080fdfe6080604052600436101561001257600080fd5b7c010000000000000000000000000000000000000000000000000000000060003504806336fdc8ea146115b15780636b7b44d71461141f578063730bcc5d1461132c5780638f23be8c14611264578063a6c807a91461106f578063b89eb61a146100cf5763f9920d5b1461008557600080fd5b346100ca5760203660031901126100ca576004356002548110156100ca57600160a060020a036100b6602092611913565b9190546008604051930260020a9004168152f35b600080fd5b346100ca576101803660031901126100ca576100e9611759565b60243567ffffffffffffffff81116100ca57610109903690600401611791565b60443567ffffffffffffffff81116100ca57610129903690600401611791565b60643567ffffffffffffffff81116100ca57610149903690600401611791565b60843567ffffffffffffffff81116100ca57610169903690600401611791565b60a43567ffffffffffffffff81116100ca57610189903690600401611791565b60c43567ffffffffffffffff81116100ca576101a9903690600401611791565b60e43567ffffffffffffffff81116100ca576101c9903690600401611791565b916101043567ffffffffffffffff81116100ca576101eb903690600401611791565b936101243567ffffffffffffffff81116100ca5761020d903690600401611791565b956101643567ffffffffffffffff81116100ca5761022f903690600401611791565b97600354600019811461105657600101600355600160a060020a038b166000526001602052604060002099600160a060020a038c16600160a060020a03198c5416178b5580519067ffffffffffffffff821161074157819061029460018e0154611830565b601f8111611003575b50602090601f8311600114610f8f57600092610f84575b5050816002029160080260020a6000190419161760018b01555b80519067ffffffffffffffff82116107415781906102ef60028d0154611830565b601f8111610f31575b50602090601f8311600114610ebd57600092610eb2575b5050816002029160080260020a6000190419161760028a01555b80519067ffffffffffffffff821161074157819061034a60038c0154611830565b601f8111610e5f575b50602090601f8311600114610deb57600092610de0575b5050816002029160080260020a6000190419161760038901555b600354604051907f73313235332d000000000000000000000000000000000000000000000000000060208301526101443560268301527f2d0000000000000000000000000000000000000000000000000000000000000060468301526047820152604781526080810181811067ffffffffffffffff8211176107415760405280519067ffffffffffffffff821161074157819061042460048c0154611830565b601f8111610d8d575b50602090601f8311600114610d1957600092610d0e575b5050816002029160080260020a6000190419161760048901555b80519067ffffffffffffffff821161074157819061047f60058b0154611830565b601f8111610cbb575b50602090601f8311600114610c4757600092610c3c575b5050816002029160080260020a6000190419161760058801555b80519067ffffffffffffffff82116107415781906104da60068a0154611830565b601f8111610be9575b50602090601f8311600114610b7557600092610b6a575b5050816002029160080260020a6000190419161760068701555b80519067ffffffffffffffff82116107415781906105356007890154611830565b601f8111610b17575b50602090601f8311600114610aa357600092610a98575b5050816002029160080260020a6000190419161760078601555b80519067ffffffffffffffff82116107415781906105906008880154611830565b601f8111610a45575b50602090601f83116001146109d1576000926109c6575b5050816002029160080260020a6000190419161760088501555b80519067ffffffffffffffff82116107415781906105eb6009870154611830565b601f8111610973575b50602090601f83116001146108ff576000926108f4575b5050816002029160080260020a6000190419161760098401555b80519067ffffffffffffffff8211610741578190610646600b860154611830565b601f81116108a1575b50602090601f831160011461082d57600092610822575b5050816002029160080260020a60001904191617600b8301555b61014435600c83015580519067ffffffffffffffff8211610741576106a8600d840154611830565b601f81116107db575b50602090601f831160011461076557600e9392916000918361075a575b5050816002029160080260020a60001904191617600d8201555b01805462ffffff191660011790556002546801000000000000000081101561074157610722816001600160a060020a039301600255611913565b909260088454920260020a808402938492160216911916179055600080f35b60e060020a634e487b7102600052604160045260246000fd5b0151905085806106ce565b90600d840160005260206000209160005b601f19851681106107c3575092600192600292600e969583601f198116106107a8575b5050500201600d8201556106e8565b01516008601f841602840a6000190419169055868080610799565b91926020600181928685015181550194019201610776565b600d840160005260206000206020601f85010481016020851061081b575b6020601f8401048201811061080f5750506106b1565b600081556001016107f9565b50806107f9565b015190508580610666565b9150600b850160005260206000209160005b601f19851681106108895750918391600293600195601f1981161061086e575b5050500201600b830155610680565b01516008601f841602840a600019041916905586808061085f565b9192602060018192868501518155019401920161083f565b909150600b850160005260206000206020601f8501048101602085106108ed575b90849392915b6020601f840104820181106108de57505061064f565b600081558594506001016108c8565b50806108c2565b01519050868061060b565b91506009860160005260206000209160005b601f198516811061095b5750918391600293600195601f19811610610940575b50505002016009840155610625565b01516008601f841602840a6000190419169055878080610931565b91926020600181928685015181550194019201610911565b9091506009860160005260206000206020601f8501048101602085106109bf575b90849392915b6020601f840104820181106109b05750506105f4565b6000815585945060010161099a565b5080610994565b0151905087806105b0565b91506008870160005260206000209160005b601f1985168110610a2d5750918391600293600195601f19811610610a12575b505050020160088501556105ca565b01516008601f841602840a6000190419169055888080610a03565b919260206001819286850151815501940192016109e3565b9091506008870160005260206000206020601f850104810160208510610a91575b90849392915b6020601f84010482018110610a82575050610599565b60008155859450600101610a6c565b5080610a66565b015190508880610555565b91506007880160005260206000209160005b601f1985168110610aff5750918391600293600195601f19811610610ae4575b5050500201600786015561056f565b01516008601f841602840a6000190419169055898080610ad5565b91926020600181928685015181550194019201610ab5565b9091506007880160005260206000206020601f850104810160208510610b63575b90849392915b6020601f84010482018110610b5457505061053e565b60008155859450600101610b3e565b5080610b38565b0151905089806104fa565b91506006890160005260206000209160005b601f1985168110610bd15750918391600293600195601f19811610610bb6575b50505002016006870155610514565b01516008601f841602840a60001904191690558a8080610ba7565b91926020600181928685015181550194019201610b87565b9091506006890160005260206000206020601f850104810160208510610c35575b90849392915b6020601f84010482018110610c265750506104e3565b60008155859450600101610c10565b5080610c0a565b015190508a8061049f565b915060058a0160005260206000209160005b601f1985168110610ca35750918391600293600195601f19811610610c88575b505050020160058801556104b9565b01516008601f841602840a60001904191690558b8080610c79565b91926020600181928685015181550194019201610c59565b90915060058a0160005260206000206020601f850104810160208510610d07575b90849392915b6020601f84010482018110610cf8575050610488565b60008155859450600101610ce2565b5080610cdc565b015190508b80610444565b915060048b0160005260206000209160005b601f1985168110610d755750918391600293600195601f19811610610d5a575b5050500201600489015561045e565b01516008601f841602840a60001904191690558c8080610d4b565b91926020600181928685015181550194019201610d2b565b90915060048b0160005260206000206020601f850104810160208510610dd9575b90849392915b6020601f84010482018110610dca57505061042d565b60008155859450600101610db4565b5080610dae565b015190508b8061036a565b915060038b0160005260206000209160005b601f1985168110610e475750918391600293600195601f19811610610e2c575b50505002016003890155610384565b01516008601f841602840a60001904191690558c8080610e1d565b91926020600181928685015181550194019201610dfd565b90915060038b0160005260206000206020601f850104810160208510610eab575b90849392915b6020601f84010482018110610e9c575050610353565b60008155859450600101610e86565b5080610e80565b015190508c8061030f565b915060028c0160005260206000209160005b601f1985168110610f195750918391600293600195601f19811610610efe575b505050020160028a0155610329565b01516008601f841602840a60001904191690558d8080610eef565b91926020600181928685015181550194019201610ecf565b90915060028c0160005260206000206020601f850104810160208510610f7d575b90849392915b6020601f84010482018110610f6e5750506102f8565b60008155859450600101610f58565b5080610f52565b015190508d806102b4565b915060018d0160005260206000209160005b601f1985168110610feb5750918391600293600195601f19811610610fd0575b505050020160018b01556102ce565b01516008601f841602840a60001904191690558e8080610fc1565b91926020600181928685015181550194019201610fa1565b90915060018d0160005260206000206020601f85010481016020851061104f575b90849392915b6020601f8401048201811061104057505061029d565b6000815585945060010161102a565b5080611024565b60e060020a634e487b7102600052601160045260246000fd5b346100ca5760203660031901126100ca57600160a060020a0380611091611759565b16600052600160205260406000209081541690600181016110b19061186e565b906110be6002820161186e565b6110ca6003830161186e565b916110d76004820161186e565b926110e46005830161186e565b936110f16006840161186e565b946110fe6007850161186e565b9561110b6008860161186e565b966111186009870161186e565b91611125600a880161186e565b93611132600b890161186e565b95600c89015497600d8a016111469061186e565b99600e01549a6040519e8f9e8f918252610220806020840152820161116a9161180b565b90808203906040015261117c9161180b565b8d810360608f015261118d9161180b565b8c810360808e015261119e9161180b565b8b810360a08d01526111af9161180b565b8a810360c08c01526111c09161180b565b89810360e08b01526111d19161180b565b9661010097898103898b01526111e69161180b565b8881036101208a01526111f89161180b565b87810361014089015261120a9161180b565b86810361016088015261121c9161180b565b906101808601528481036101a08601526112359161180b565b9160ff821615156101c0850152810460ff1615156101e084015262010000900460ff1615156102008301520390f35b346100ca5760003660031901126100ca57604051806002548083526020809301809160026000527f405787fa12a823e0f2b7631cc41b3ba8828b3321ca811111fa75cd3aa3bb5ace9060005b8682821061130f5786866112c68288038361176f565b604051928392818401908285525180915260408401929160005b8281106112ef57505050500390f35b8351600160a060020a0316855286955093810193928101926001016112e0565b8354600160a060020a0316855290930192600192830192016112b0565b346100ca5760203660031901126100ca57600160a060020a0361134d611759565b168060005260016020526201000060ff81600e6040600020015404166113c157816000526001602052604060002090600e82019062ff000019825416179055600160a060020a031981541690557f3b45ab09dae70c048ef52fb6150674531559cb10dadcbee9cb7d8b4d8a00e658600080a2005b60646040517f08c379a000000000000000000000000000000000000000000000000000000000815260206004820152601660248201527f5465616368657220646f6573206e6f74206578697374000000000000000000006044820152fd5b346100ca5760203660031901126100ca57600160a060020a0380611441611759565b166000526001602052604060002090815416600182016114609061186e565b9161146d6002820161186e565b6114796003830161186e565b6114856004840161186e565b6114916005850161186e565b61149d6006860161186e565b6114a96007870161186e565b906114b66008880161186e565b926114c36009890161186e565b946114d0600b8a0161186e565b96600c8a015499600e015462010000900460ff16986040519c8d9c8d528c6101a06020819201528d016115029161180b565b8c810360408e01526115139161180b565b8b810360608d01526115249161180b565b8a810360808c01526115359161180b565b89810360a08b01526115469161180b565b88810360c08a01526115579161180b565b87810360e08901526115689161180b565b86810361010088015261157a9161180b565b85810361012087015261158c9161180b565b84810361014086015261159e9161180b565b9161016084015215156101808301520390f35b346100ca5760403660031901126100ca576115ca611759565b60243567ffffffffffffffff81116100ca576115f2600160a060020a03913690600401611791565b9116908160005260209060018252600160ff600e60406000200154161515036116fb57826000526001825261162d600d60406000200161186e565b60405161165684828161164981830196878151938492016117e8565b810103808452018261176f565b5190209060405161167684828161164981830196878151938492016117e8565b5190200361169d5760009182526001905260409020600e01805461ff001916610100179055005b606490604051907f08c379a00000000000000000000000000000000000000000000000000000000082526004820152601b60248201527f496e76616c69642061646472657373206f722070617373776f726400000000006044820152fd5b606482604051907f08c379a00000000000000000000000000000000000000000000000000000000082526004820152601860248201527f596f7572206e6f742072656769737465726564207965742100000000000000006044820152fd5b60043590600160a060020a03821682036100ca57565b90601f8019910116810190811067ffffffffffffffff82111761074157604052565b81601f820112156100ca5780359067ffffffffffffffff821161074157604051926117c6601f8401601f19166020018561176f565b828452602083830101116100ca57816000926020809301838601378301015290565b60005b8381106117fb5750506000910152565b81810151838201526020016117eb565b90602091611824815180928185528580860191016117e8565b601f01601f1916010190565b9060016002830492168015611864575b602083101461184b57565b60e060020a634e487b7102600052602260045260246000fd5b91607f1691611840565b906040519182600082549261188284611830565b9081845260019485811690816000146118f157506001146118ae575b50506118ac9250038361176f565b565b9093915060005260209081600020936000915b8183106118d95750506118ac9350820101388061189e565b855488840185015294850194879450918301916118c1565b9150506118ac94506020925060ff19168284015215158102820101388061189e565b60025481101561194a5760026000527f405787fa12a823e0f2b7631cc41b3ba8828b3321ca811111fa75cd3aa3bb5ace0190600090565b60e060020a634e487b7102600052603260045260246000fdfea26469706673582212203c49c57fab89c9ac7f834e00f8380a1a2936364296cf02420eff0c5357f6caea64736f6c63430008130033",
  "immutableReferences": {},
  "source": "// SPDX-License-Identifier: MIT\npragma solidity ^0.8.19;\nimport \"./AccessControl.sol\";\n\ncontract Students is AccessControl {\n\n    event deletedStudent(address indexed teacherAddress);\n    \n    struct SubjectScores {\n        uint256 biology;\n        uint256 physics;\n        uint256 mathematics;\n        uint256 chemistry;\n        uint256 geography;\n        uint256 history;\n        uint256 civics;\n        uint256 english;\n        uint256 kiswahili;\n        uint256 average;\n        string grade;\n    }\n\n    struct Student {\n        address studentAddress;\n        string firstName;\n        string middleName;\n        string lastName;\n        string examNumber;\n        string gender;\n        string religion;\n        string dob;\n        string classLevel;\n        string combination;\n        string phoneNumber;\n        string studentLocation;\n        uint year;\n        string password;\n        bool isRegistered;\n        bool isLogin;\n        bool isDeleted;\n        // string imageUrl;\n        // mapping(uint8 => SubjectScores) termResults; // 1: First Term, 2: Mid Term, 3: Third Term\n    }\n\n    mapping(address => Student) public students;\n    address[] public studentAddressArray;\n\n    uint256 studentId;\n\n    function registerStudent(\n        address _studentAddress, \n        string memory _firstName, \n        string memory _middleName,\n        string memory _lastName,\n        string memory _gender,\n        string memory _religion,\n        string memory _dob, \n        string memory _classLevel,\n        string memory _combination,\n        string memory _studentLocation,\n        uint256 _year,\n        string memory _password\n        ) public {\n            studentId++;\n            Student storage student = students[_studentAddress];\n            student.studentAddress = _studentAddress;\n            student.firstName = _firstName;\n            student.middleName = _middleName;\n            student.lastName = _lastName;\n            student.examNumber = string(abi.encodePacked(\"s1253-\", _year,\"-\", studentId));\n            student.gender = _gender;\n            student.religion = _religion;\n            student.dob = _dob;\n            student.classLevel = _classLevel;\n            student.combination = _combination;\n            student.studentLocation = _studentLocation;\n            student.year = _year;\n            student.password = _password;\n            student.isRegistered = true;\n            student.isLogin = false;\n            student.isDeleted = false;\n\n            studentAddressArray.push(_studentAddress);\n    }\n\n    function deleteStudent(address _studentAddress) external {\n        require(!students[_studentAddress].isDeleted, \"Teacher does not exist\");\n        Student storage student = students[_studentAddress];\n        student.isDeleted = true;\n        delete(student.studentAddress);\n        // students[_studentAddress] = student;\n        emit deletedStudent(_studentAddress);\n    }\n\n    function  studentLogin(address _studentAddress, string memory _password) external {\n        require(students[_studentAddress].isRegistered == true, \"Your not registered yet!\");\n        // require(students[_studentAddress].isLogin == false, \"Your Already login\");\n        require(compareString(students[_studentAddress].password, _password), \"Invalid address or password\");\n        \n        students[_studentAddress].isLogin = true;\n    }\n\n    // function addTermResult(address _studentAddress, uint8 _term, uint256 _biology, uint256 _physics, uint256 _mathematics, uint256 _chemistry, uint256 _geography, uint256 _history, uint256 _civics, uint256 _english, uint256 _kiswahili) public {\n    //     SubjectScores memory scores = SubjectScores({\n    //         biology: _biology,\n    //         physics: _physics,\n    //         mathematics: _mathematics,\n    //         chemistry: _chemistry,\n    //         geography: _geography,\n    //         history: _history,\n    //         civics: _civics,\n    //         english: _english,\n    //         kiswahili: _kiswahili,\n    //         average: 0,\n    //         grade: \"\"\n    //     });\n\n    //     students[_studentAddress].termResults[_term] = scores;\n    //     calculateAverageAndGrade(_studentAddress, _term);\n    // }\n\n    function getStudentArray() external view returns(address[] memory) {\n        return studentAddressArray;\n    }\n\n    function getStudent(address _studentAddress) external view returns(\n        address studentAddress, \n        string memory firstName, \n        string memory middleName, \n        string memory lastName, \n        string memory examNumber, \n        string memory gender, \n        string memory religion, \n        string memory dob, \n        string memory classLevel, \n        string memory combination, \n        string memory studentLocation, \n        uint256 year, \n        bool isDeleted \n        ) {\n        Student storage student = students[_studentAddress];\n        studentAddress = student.studentAddress;\n        firstName = student.firstName;\n        middleName = student.middleName;\n        lastName = student.lastName;\n        examNumber = student.examNumber;\n        gender = student.gender;\n        religion = student.religion;\n        dob = student.dob;\n        classLevel = student.classLevel;\n        combination = student.combination;\n        studentLocation = student.studentLocation;\n        year = student.year;\n        isDeleted = student.isDeleted;\n    }\n\n    // function calculateAverageAndGrade(address _studentAddress, uint8 _term) private {\n    //     Student storage student = students[_studentAddress];\n    //     SubjectScores storage scores = student.termResults[_term];\n\n    //     uint256 totalScore = scores.biology + scores.physics + scores.mathematics + scores.chemistry + scores.geography + scores.history + scores.civics + scores.english + scores.kiswahili;\n    //     uint256 numberOfSubjects = 9; // Total number of subjects\n\n    //     scores.average = totalScore / numberOfSubjects;\n\n    //     if (scores.average >= 80) {\n    //         scores.grade = \"A\";\n    //     } else if (scores.average >= 70) {\n    //         scores.grade = \"B\";\n    //     } else if (scores.average >= 50) {\n    //         scores.grade = \"C\";\n    //     } else if (scores.average >= 35) {\n    //         scores.grade = \"D\";\n    //     } else {\n    //         scores.grade = \"F\";\n    //     }\n    // }\n}\n",
  "sourcePath": "/home/zeflojujo/school_management_system/Eazy_School/contracts/students.sol",
  "compiler": {
    "name": "solc",
    "version": "0.8.19+commit.7dd6d404.Emscripten.clang"
  },
  "schemaVersion": "3.4.16",
  "updatedAt": "2024-05-03T08:49:22.986Z",
  "networkType": "ethereum",
  "devdoc": {
    "kind": "dev",
    "methods": {},
    "version": 1
  },
  "userdoc": {
    "kind": "user",
    "methods": {},
    "version": 1
  }
}