{
  "contractName": "Students",
  "abi": [
    {
      "inputs": [
        {
          "internalType": "uint256",
          "name": "",
          "type": "uint256"
        }
      ],
      "name": "studentAddressArray",
      "outputs": [
        {
          "internalType": "address",
          "name": "",
          "type": "address"
        }
      ],
      "stateMutability": "view",
      "type": "function",
      "constant": true
    },
    {
      "inputs": [
        {
          "internalType": "address",
          "name": "",
          "type": "address"
        }
      ],
      "name": "students",
      "outputs": [
        {
          "internalType": "enum Students.Combination",
          "name": "combination",
          "type": "uint8"
        },
        {
          "internalType": "address",
          "name": "studentAddress",
          "type": "address"
        },
        {
          "internalType": "string",
          "name": "fullName",
          "type": "string"
        },
        {
          "internalType": "string",
          "name": "examNumber",
          "type": "string"
        },
        {
          "internalType": "string",
          "name": "standardLevel",
          "type": "string"
        },
        {
          "internalType": "uint256",
          "name": "age",
          "type": "uint256"
        },
        {
          "internalType": "string",
          "name": "phoneNumber",
          "type": "string"
        },
        {
          "internalType": "string",
          "name": "password",
          "type": "string"
        },
        {
          "internalType": "bool",
          "name": "isRegistered",
          "type": "bool"
        },
        {
          "internalType": "bool",
          "name": "isLogin",
          "type": "bool"
        },
        {
          "internalType": "bool",
          "name": "isDeleted",
          "type": "bool"
        }
      ],
      "stateMutability": "view",
      "type": "function",
      "constant": true
    },
    {
      "inputs": [
        {
          "internalType": "address",
          "name": "_studentAddress",
          "type": "address"
        },
        {
          "internalType": "string",
          "name": "_fullName",
          "type": "string"
        },
        {
          "internalType": "string",
          "name": "_examNumber",
          "type": "string"
        },
        {
          "internalType": "string",
          "name": "_standardLevel",
          "type": "string"
        },
        {
          "internalType": "uint256",
          "name": "_age",
          "type": "uint256"
        },
        {
          "internalType": "string",
          "name": "_phoneNumber",
          "type": "string"
        },
        {
          "internalType": "string",
          "name": "_password",
          "type": "string"
        }
      ],
      "name": "registerStudent",
      "outputs": [],
      "stateMutability": "nonpayable",
      "type": "function"
    },
    {
      "inputs": [
        {
          "internalType": "address",
          "name": "_studentAddress",
          "type": "address"
        },
        {
          "internalType": "string",
          "name": "_password",
          "type": "string"
        }
      ],
      "name": "studentLogin",
      "outputs": [],
      "stateMutability": "nonpayable",
      "type": "function"
    },
    {
      "inputs": [
        {
          "internalType": "address",
          "name": "_studentAddress",
          "type": "address"
        },
        {
          "internalType": "uint8",
          "name": "_term",
          "type": "uint8"
        },
        {
          "internalType": "uint256",
          "name": "_biology",
          "type": "uint256"
        },
        {
          "internalType": "uint256",
          "name": "_physics",
          "type": "uint256"
        },
        {
          "internalType": "uint256",
          "name": "_mathematics",
          "type": "uint256"
        },
        {
          "internalType": "uint256",
          "name": "_chemistry",
          "type": "uint256"
        },
        {
          "internalType": "uint256",
          "name": "_geography",
          "type": "uint256"
        },
        {
          "internalType": "uint256",
          "name": "_history",
          "type": "uint256"
        },
        {
          "internalType": "uint256",
          "name": "_civics",
          "type": "uint256"
        },
        {
          "internalType": "uint256",
          "name": "_english",
          "type": "uint256"
        },
        {
          "internalType": "uint256",
          "name": "_kiswahili",
          "type": "uint256"
        }
      ],
      "name": "addTermResult",
      "outputs": [],
      "stateMutability": "nonpayable",
      "type": "function"
    },
    {
      "inputs": [],
      "name": "getStudentArray",
      "outputs": [
        {
          "internalType": "address[]",
          "name": "",
          "type": "address[]"
        }
      ],
      "stateMutability": "view",
      "type": "function",
      "constant": true
    },
    {
      "inputs": [
        {
          "internalType": "address",
          "name": "_studentAddress",
          "type": "address"
        }
      ],
      "name": "getStudent",
      "outputs": [
        {
          "internalType": "address",
          "name": "studentAddress",
          "type": "address"
        },
        {
          "internalType": "string",
          "name": "fullName",
          "type": "string"
        },
        {
          "internalType": "string",
          "name": "examNumber",
          "type": "string"
        },
        {
          "internalType": "string",
          "name": "classLevel",
          "type": "string"
        },
        {
          "internalType": "uint256",
          "name": "age",
          "type": "uint256"
        },
        {
          "internalType": "string",
          "name": "phoneNumber",
          "type": "string"
        }
      ],
      "stateMutability": "view",
      "type": "function",
      "constant": true
    }
  ],
  "bytecode": "0x60a08060405234610020573360805261121290816100268239608051815050f35b600080fdfe6080604052600436101561001257600080fd5b7c010000000000000000000000000000000000000000000000000000000060003504806336fdc8ea14610d815780636b7b44d714610cba5780638f23be8c14610bf2578063a6c807a914610ab0578063dd2e58fc146104ed578063f9920d5b146104a85763fb7ff0f51461008557600080fd5b346104a357610160806003193601126104a3576100a0610f29565b6024359060ff821682036104a35760405192830183811067ffffffffffffffff82111761048a5760405260443583526064356020840152608435604084015260a435606084015260c435608084015260e43560a08401526101043560c08401526101243560e084015261014435610100840152600061012084015260405180602081011067ffffffffffffffff60208301111761048a576020810160405260008152610140840152600160a060020a0381166000526001602052600860406000200160ff8316600052602052610140604060002093805185556020810151600186015560408101516002860155606081015160038601556080810151600486015560a0810151600586015560c0810151600686015560e0810151600786015561010081015160088601556101208101516009860155015192835167ffffffffffffffff811161048a57610203816101fa600a850154611000565b600a8501611171565b6020601f821160011461040f579080600a92600160a060020a039697600092610404575b5050816002029160080260020a600019041916179101555b16600052600160205260ff60086040600020019116600052602052600a604060002060096102d56102ca6102bf6102b46102a961029e610293610288895460018b0154906111b6565b60028a0154906111b6565b6003890154906111b6565b6004880154906111b6565b6005870154906111b6565b6006860154906111b6565b6007850154906111b6565b6008840154906111b6565b04600982018190556050811061031f5750016102fa6102f48254611000565b8261114a565b7f41000000000000000000000000000000000000000000000000000000000000029055005b6046811061035b5750016103366102f48254611000565b7f42000000000000000000000000000000000000000000000000000000000000029055005b603281106103975750016103726102f48254611000565b7f43000000000000000000000000000000000000000000000000000000000000029055005b6023116103d157016103ac6102f48254611000565b7f44000000000000000000000000000000000000000000000000000000000000029055005b016103df6102f48254611000565b7f46000000000000000000000000000000000000000000000000000000000000029055005b015190503880610227565b600a830160005260206000209560005b601f1984168110610472575082600160a060020a039697600193600293600a96601f19811610610457575b505050020191015561023f565b01516008601f841602840a600019041916905538808061044a565b8282015188556001909701966020928301920161041f565b60e060020a634e487b7102600052604160045260246000fd5b600080fd5b346104a35760203660031901126104a3576004356002548110156104a357600160a060020a036104d96020926110e3565b9190546008604051930260020a9004168152f35b346104a35760e03660031901126104a357610506610f29565b60243567ffffffffffffffff81116104a357610526903690600401610f61565b9060443567ffffffffffffffff81116104a357610547903690600401610f61565b9160643567ffffffffffffffff81116104a357610568903690600401610f61565b60a43567ffffffffffffffff81116104a357610588903690600401610f61565b9060c43567ffffffffffffffff81116104a3576105a9903690600401610f61565b94600160a060020a03851660005260016020526040600020936003855474ffffffffffffffffffffffffffffffffffffffff00610100600160a060020a038a1602169074ffffffffffffffffffffffffffffffffffffffffff19161717855580519067ffffffffffffffff821161048a5781906106368261062d60018a0154611000565b60018a01611171565b602090601f8311600114610a3c57600092610a31575b5050816002029160080260020a6000190419161760018501555b80519067ffffffffffffffff821161048a5781906106948261068b6002890154611000565b60028901611171565b602090601f83116001146109bd576000926109b2575b5050816002029160080260020a6000190419161760028401555b80519067ffffffffffffffff821161048a5781906106f2826106e96003880154611000565b60038801611171565b602090601f831160011461093e57600092610933575b5050816002029160080260020a6000190419161760038301555b608435600483015580519067ffffffffffffffff821161048a5781906107588261074f6005870154611000565b60058701611171565b602090601f83116001146108bf576000926108b4575b5050816002029160080260020a6000190419161760058201555b60068101835167ffffffffffffffff811161048a576107b1816107ab8454611000565b84611171565b6020601f82116001146108475781906007959660009261083c575b5050816002029160080260020a6000190419161790555b01805462ffffff191660011790556002546801000000000000000081101561048a5761081d816001600160a060020a0393016002556110e3565b909260088454920260020a808402938492160216911916179055600080f35b0151905086806107cc565b601f198216958360005260206000209660005b81811061089c57509660029284926001956007999a10610881575b505050020190556107e3565b01516008601f841602840a6000190419169055878080610875565b8383015189556001909801976020938401930161085a565b01519050858061076e565b91506005840160005260206000209160005b601f198516811061091b5750918391600293600195601f19811610610900575b50505002016005820155610788565b01516008601f841602840a60001904191690558680806108f1565b919260206001819286850151815501940192016108d1565b015190508680610708565b91506003850160005260206000209160005b601f198516811061099a5750918391600293600195601f1981161061097f575b50505002016003830155610722565b01516008601f841602840a6000190419169055878080610970565b91926020600181928685015181550194019201610950565b0151905087806106aa565b91506002860160005260206000209160005b601f1985168110610a195750918391600293600195601f198116106109fe575b505050020160028401556106c4565b01516008601f841602840a60001904191690558880806109ef565b919260206001819286850151815501940192016109cf565b01519050888061064c565b91506001870160005260206000209160005b601f1985168110610a985750918391600293600195601f19811610610a7d575b50505002016001850155610666565b01516008601f841602840a6000190419169055898080610a6e565b91926020600181928685015181550194019201610a4e565b346104a35760203660031901126104a357600160a060020a0380610ad2610f29565b1660005260016020526040600020805460ff811691610af36001820161103e565b90610b006002820161103e565b610b0c6003830161103e565b600483015490610b1e6005850161103e565b926007610b2d6006870161103e565b950154956040519960048a1015610bd9578a998a526101008099041660208a01526101608060408b01528901610b6291610fdb565b88810360608a0152610b7391610fdb565b8781036080890152610b8491610fdb565b9060a087015285810360c0870152610b9b91610fdb565b84810360e0860152610bac91610fdb565b9160ff8216151581850152810460ff16151561012084015262010000900460ff1615156101408301520390f35b60e060020a634e487b7102600052602160045260246000fd5b346104a35760003660031901126104a357604051806002548083526020809301809160026000527f405787fa12a823e0f2b7631cc41b3ba8828b3321ca811111fa75cd3aa3bb5ace9060005b86828210610c9d578686610c5482880383610f3f565b604051928392818401908285525180915260408401929160005b828110610c7d57505050500390f35b8351600160a060020a031685528695509381019392810192600101610c6e565b8354600160a060020a031685529093019260019283019201610c3e565b346104a35760203660031901126104a357600160a060020a0380610cdc610f29565b16600052600160205260406000209061010082540416610d7d610d016001840161103e565b92610d0e6002820161103e565b610d6a610d1d6003840161103e565b610d5c610d3160056004870154960161103e565b93610d4e604051998a998a5260c060208b015260c08a0190610fdb565b9088820360408a0152610fdb565b908682036060880152610fdb565b91608085015283820360a0850152610fdb565b0390f35b346104a35760403660031901126104a357610d9a610f29565b60243567ffffffffffffffff81116104a357610dc2600160a060020a03913690600401610f61565b9116908160005260209060018252600160ff60076040600020015416151503610ecb578260005260018252610dfd600660406000200161103e565b604051610e26848281610e198183019687815193849201610fb8565b8101038084520182610f3f565b51902090604051610e46848281610e198183019687815193849201610fb8565b51902003610e6d5760009182526001905260409020600701805461ff001916610100179055005b606490604051907f08c379a00000000000000000000000000000000000000000000000000000000082526004820152601b60248201527f496e76616c69642061646472657373206f722070617373776f726400000000006044820152fd5b606482604051907f08c379a00000000000000000000000000000000000000000000000000000000082526004820152601860248201527f596f7572206e6f742072656769737465726564207965742100000000000000006044820152fd5b60043590600160a060020a03821682036104a357565b90601f8019910116810190811067ffffffffffffffff82111761048a57604052565b81601f820112156104a35780359067ffffffffffffffff821161048a5760405192610f96601f8401601f191660200185610f3f565b828452602083830101116104a357816000926020809301838601378301015290565b60005b838110610fcb5750506000910152565b8181015183820152602001610fbb565b90602091610ff481518092818552858086019101610fb8565b601f01601f1916010190565b9060016002830492168015611034575b602083101461101b57565b60e060020a634e487b7102600052602260045260246000fd5b91607f1691611010565b906040519182600082549261105284611000565b9081845260019485811690816000146110c1575060011461107e575b505061107c92500383610f3f565b565b9093915060005260209081600020936000915b8183106110a957505061107c9350820101388061106e565b85548884018501529485019487945091830191611091565b91505061107c94506020925060ff19168284015215158102820101388061106e565b60025481101561111a5760026000527f405787fa12a823e0f2b7631cc41b3ba8828b3321ca811111fa75cd3aa3bb5ace0190600090565b60e060020a634e487b7102600052603260045260246000fd5b81811061113e575050565b60008155600101611133565b90601f8111611157575050565b61107c916000526020601f81600020920104810190611133565b9190601f811161118057505050565b61107c92600052602060002090602080601f850104830193106111ac575b601f60209101040190611133565b909150819061119e565b919082018092116111c357565b60e060020a634e487b7102600052601160045260246000fdfea2646970667358221220a69861bba4227a1d1261568e3cc9e5e443d66a4836bb72aacdd40d549ff56f8764736f6c63430008130033",
  "immutableReferences": {},
  "source": "// SPDX-License-Identifier: MIT\npragma solidity ^0.8.19;\nimport \"./AccessControl.sol\";\n\ncontract Students is AccessControl {\n    \n    enum Combination {Science, Arts, Business, None}\n    \n    struct SubjectScores {\n        uint256 biology;\n        uint256 physics;\n        uint256 mathematics;\n        uint256 chemistry;\n        uint256 geography;\n        uint256 history;\n        uint256 civics;\n        uint256 english;\n        uint256 kiswahili;\n        uint256 average;\n        string grade;\n    }\n\n    struct Student {\n        Combination combination;\n        address studentAddress;\n        string fullName;\n        string examNumber;\n        string standardLevel;\n        uint256 age;\n        string phoneNumber;\n        string password;\n        bool isRegistered;\n        bool isLogin;\n        bool isDeleted;\n        mapping(uint8 => SubjectScores) termResults; // 1: First Term, 2: Mid Term, 3: Third Term\n    }\n\n    mapping(address => Student) public students;\n    address[] public studentAddressArray;\n\n    function registerStudent(address _studentAddress, string memory _fullName, string memory _examNumber, string memory _standardLevel, uint256 _age, string memory _phoneNumber, string memory _password) public {\n        Student storage student = students[_studentAddress];\n        student.combination = Combination.None;\n        student.studentAddress = _studentAddress;\n        student.fullName = _fullName;\n        student.examNumber = _examNumber;\n        student.standardLevel = _standardLevel;\n        student.age = _age;\n        student.phoneNumber = _phoneNumber;\n        student.password = _password;\n        student.isRegistered = true;\n        student.isLogin = false;\n        student.isDeleted = false;\n\n        studentAddressArray.push(_studentAddress);\n    }\n\n    function  studentLogin(address _studentAddress, string memory _password) external {\n        require(students[_studentAddress].isRegistered == true, \"Your not registered yet!\");\n        // require(students[_studentAddress].isLogin == false, \"Your Already login\");\n        require(compareString(students[_studentAddress].password, _password), \"Invalid address or password\");\n        \n        students[_studentAddress].isLogin = true;\n    }\n\n    function addTermResult(address _studentAddress, uint8 _term, uint256 _biology, uint256 _physics, uint256 _mathematics, uint256 _chemistry, uint256 _geography, uint256 _history, uint256 _civics, uint256 _english, uint256 _kiswahili) public {\n        SubjectScores memory scores = SubjectScores({\n            biology: _biology,\n            physics: _physics,\n            mathematics: _mathematics,\n            chemistry: _chemistry,\n            geography: _geography,\n            history: _history,\n            civics: _civics,\n            english: _english,\n            kiswahili: _kiswahili,\n            average: 0,\n            grade: \"\"\n        });\n\n        students[_studentAddress].termResults[_term] = scores;\n        calculateAverageAndGrade(_studentAddress, _term);\n    }\n\n    function getStudentArray() external view returns(address[] memory) {\n        return studentAddressArray;\n    }\n\n    function getStudent(address _studentAddress) external view returns(address studentAddress, string memory fullName, string memory examNumber, string memory classLevel, uint256 age, string memory phoneNumber ) {\n        Student storage student = students[_studentAddress];\n        studentAddress = student.studentAddress;\n        fullName = student.fullName;\n        examNumber = student.examNumber;\n        classLevel = student.standardLevel;\n        age = student.age;\n        phoneNumber = student.phoneNumber;\n    }\n\n    function calculateAverageAndGrade(address _studentAddress, uint8 _term) private {\n        Student storage student = students[_studentAddress];\n        SubjectScores storage scores = student.termResults[_term];\n\n        uint256 totalScore = scores.biology + scores.physics + scores.mathematics + scores.chemistry + scores.geography + scores.history + scores.civics + scores.english + scores.kiswahili;\n        uint256 numberOfSubjects = 9; // Total number of subjects\n\n        scores.average = totalScore / numberOfSubjects;\n\n        if (scores.average >= 80) {\n            scores.grade = \"A\";\n        } else if (scores.average >= 70) {\n            scores.grade = \"B\";\n        } else if (scores.average >= 50) {\n            scores.grade = \"C\";\n        } else if (scores.average >= 35) {\n            scores.grade = \"D\";\n        } else {\n            scores.grade = \"F\";\n        }\n    }\n\n    function parseCombination(string memory _combination) private pure returns (Combination) {\n        if (keccak256(bytes(_combination)) == keccak256(bytes(\"Science\"))) {\n            return Combination.Science;\n        } else if (keccak256(bytes(_combination)) == keccak256(bytes(\"Arts\"))) {\n            return Combination.Arts;\n        } else if (keccak256(bytes(_combination)) == keccak256(bytes(\"Business\"))) {\n            return Combination.Business;\n        }else{\n            return Combination.None;\n        }\n    }\n}\n",
  "sourcePath": "/home/zeflojujo/school_management_system/client/contracts/students.sol",
  "compiler": {
    "name": "solc",
    "version": "0.8.19+commit.7dd6d404.Emscripten.clang"
  },
  "schemaVersion": "3.4.16",
  "updatedAt": "2024-04-23T14:11:51.964Z",
  "networkType": "ethereum",
  "devdoc": {
    "kind": "dev",
    "methods": {},
    "version": 1
  },
  "userdoc": {
    "kind": "user",
    "methods": {},
    "version": 1
  }
}