{
  "contractName": "Studentss",
  "abi": [
    {
      "anonymous": false,
      "inputs": [
        {
          "indexed": true,
          "internalType": "address",
          "name": "teacherAddress",
          "type": "address"
        },
        {
          "indexed": true,
          "internalType": "address",
          "name": "studentAddress",
          "type": "address"
        },
        {
          "indexed": false,
          "internalType": "uint8",
          "name": "term",
          "type": "uint8"
        },
        {
          "indexed": false,
          "internalType": "uint256",
          "name": "average",
          "type": "uint256"
        },
        {
          "indexed": false,
          "internalType": "string",
          "name": "grade",
          "type": "string"
        }
      ],
      "name": "StudentResultUploaded",
      "type": "event"
    },
    {
      "anonymous": false,
      "inputs": [
        {
          "indexed": true,
          "internalType": "address",
          "name": "teacherAddress",
          "type": "address"
        }
      ],
      "name": "deletedStudent",
      "type": "event"
    },
    {
      "inputs": [
        {
          "internalType": "uint256",
          "name": "",
          "type": "uint256"
        }
      ],
      "name": "studentAddressArray",
      "outputs": [
        {
          "internalType": "address",
          "name": "",
          "type": "address"
        }
      ],
      "stateMutability": "view",
      "type": "function"
    },
    {
      "inputs": [
        {
          "internalType": "address",
          "name": "_studentAddress",
          "type": "address"
        },
        {
          "internalType": "string",
          "name": "_firstName",
          "type": "string"
        },
        {
          "internalType": "string",
          "name": "_middleName",
          "type": "string"
        },
        {
          "internalType": "string",
          "name": "_lastName",
          "type": "string"
        },
        {
          "internalType": "string",
          "name": "_gender",
          "type": "string"
        },
        {
          "internalType": "string",
          "name": "_religion",
          "type": "string"
        },
        {
          "internalType": "string",
          "name": "_dob",
          "type": "string"
        },
        {
          "internalType": "string",
          "name": "_classLevel",
          "type": "string"
        },
        {
          "internalType": "string",
          "name": "_combination",
          "type": "string"
        },
        {
          "internalType": "string",
          "name": "_studentLocation",
          "type": "string"
        },
        {
          "internalType": "uint256",
          "name": "_year",
          "type": "uint256"
        },
        {
          "internalType": "string",
          "name": "_password",
          "type": "string"
        }
      ],
      "name": "registerStudent",
      "outputs": [],
      "stateMutability": "nonpayable",
      "type": "function"
    },
    {
      "inputs": [
        {
          "internalType": "address",
          "name": "_studentAddress",
          "type": "address"
        }
      ],
      "name": "deleteStudent",
      "outputs": [],
      "stateMutability": "nonpayable",
      "type": "function"
    },
    {
      "inputs": [
        {
          "internalType": "address",
          "name": "_studentAddress",
          "type": "address"
        },
        {
          "internalType": "string",
          "name": "_password",
          "type": "string"
        }
      ],
      "name": "studentLogin",
      "outputs": [],
      "stateMutability": "nonpayable",
      "type": "function"
    },
    {
      "inputs": [
        {
          "internalType": "address",
          "name": "_studentAddress",
          "type": "address"
        },
        {
          "internalType": "uint8",
          "name": "_term",
          "type": "uint8"
        },
        {
          "internalType": "uint256",
          "name": "_biology",
          "type": "uint256"
        },
        {
          "internalType": "uint256",
          "name": "_physics",
          "type": "uint256"
        },
        {
          "internalType": "uint256",
          "name": "_mathematics",
          "type": "uint256"
        },
        {
          "internalType": "uint256",
          "name": "_chemistry",
          "type": "uint256"
        },
        {
          "internalType": "uint256",
          "name": "_geography",
          "type": "uint256"
        },
        {
          "internalType": "uint256",
          "name": "_history",
          "type": "uint256"
        },
        {
          "internalType": "uint256",
          "name": "_civics",
          "type": "uint256"
        },
        {
          "internalType": "uint256",
          "name": "_english",
          "type": "uint256"
        },
        {
          "internalType": "uint256",
          "name": "_kiswahili",
          "type": "uint256"
        }
      ],
      "name": "addTermResult",
      "outputs": [],
      "stateMutability": "nonpayable",
      "type": "function"
    },
    {
      "inputs": [],
      "name": "getStudentArray",
      "outputs": [
        {
          "internalType": "address[]",
          "name": "",
          "type": "address[]"
        }
      ],
      "stateMutability": "view",
      "type": "function"
    },
    {
      "inputs": [
        {
          "internalType": "address",
          "name": "_studentAddress",
          "type": "address"
        }
      ],
      "name": "getStudent",
      "outputs": [
        {
          "internalType": "address",
          "name": "studentAddress",
          "type": "address"
        },
        {
          "internalType": "string",
          "name": "firstName",
          "type": "string"
        },
        {
          "internalType": "string",
          "name": "middleName",
          "type": "string"
        },
        {
          "internalType": "string",
          "name": "lastName",
          "type": "string"
        },
        {
          "internalType": "string",
          "name": "examNumber",
          "type": "string"
        },
        {
          "internalType": "string",
          "name": "gender",
          "type": "string"
        },
        {
          "internalType": "string",
          "name": "religion",
          "type": "string"
        },
        {
          "internalType": "string",
          "name": "dob",
          "type": "string"
        },
        {
          "internalType": "string",
          "name": "classLevel",
          "type": "string"
        },
        {
          "internalType": "string",
          "name": "combination",
          "type": "string"
        },
        {
          "internalType": "string",
          "name": "studentLocation",
          "type": "string"
        },
        {
          "internalType": "uint256",
          "name": "year",
          "type": "uint256"
        },
        {
          "internalType": "bool",
          "name": "isDeleted",
          "type": "bool"
        }
      ],
      "stateMutability": "view",
      "type": "function"
    }
  ],
  "bytecode": "0x608080604052346100285760008054600160a060020a03191633179055611a1b908161002e8239f35b600080fdfe6080604052600436101561001257600080fd5b7c010000000000000000000000000000000000000000000000000000000060003504806336fdc8ea146115d25780636b7b44d71461139f578063730bcc5d146112c35780638f23be8c146111fb578063b89eb61a146105ed578063f9920d5b146105a85763fb7ff0f51461008557600080fd5b346105a357610160806003193601126105a3576100a0611759565b60243560ff811681036105a357600160a060020a038216600052600160205260ff600e60406000200154161561055c5760405192830183811067ffffffffffffffff8211176105435760405260443583526064356020840152608435604084015260a435606084015260c435608084015260e43560a08401526101043560c08401526101243560e084015261014435610100840152600061012084015260405180602081011067ffffffffffffffff602083011117610543576020810160405260008152610140840152600160a060020a0382166000526001602052601160406000200160ff8216600052602052604060002091835183556020840151600184015560408401519360029485850155606081015160038501556080810151600485015560a0810151600585015560c0810151600685015560e0810151600785015561010081015160088501556101208101516009850155610140600a80950191015180519067ffffffffffffffff821161054357610228826102228554611880565b856118fe565b602090601f83116001146104a357937f1f64048b59688461be7b96fea53c67a330e6bc900baa334088d3f447f94fc08395938361039294600160a060020a039460ff98600092610498575b5050600882028b0a600019041916908a021790555b81811660005260016020526011604060002001858516600052602052604060002097600961031e6103136103088c60066102ff6102f46102e96102de6102d486546001880154906119d8565b8b870154906119d8565b6003860154906119d8565b6004850154906119d8565b6005840154906119d8565b910154906119d8565b60078d0154906119d8565b60088c0154906119d8565b0460098a018181559190605081106103975750888a01906103486103428354611880565b836118d5565b7f41000000000000000000000000000000000000000000000000000000000000000190555b5460405195869516855260208501526060604085015216953395606084019101611943565b0390a3005b604681106103da5750888a01906103b16103428354611880565b7f420000000000000000000000000000000000000000000000000000000000000001905561036d565b6032811061041d5750888a01906103f46103428354611880565b7f430000000000000000000000000000000000000000000000000000000000000001905561036d565b60231161045e57888a01906104356103428354611880565b7f440000000000000000000000000000000000000000000000000000000000000001905561036d565b888a019061046f6103428354611880565b7f460000000000000000000000000000000000000000000000000000000000000001905561036d565b015190503880610273565b879291601f198316918560005260206000209260005b8181106105285750948460ff98947f1f64048b59688461be7b96fea53c67a330e6bc900baa334088d3f447f94fc0839a9894600194600160a060020a03986103929a1061050d575b50505002019055610288565b01516008601f841602840a6000190419169055388080610501565b8284015185558b9650600190940193602093840193016104b9565b60e060020a634e487b7102600052604160045260246000fd5b606460405160e560020a62461bcd02815260206004820152601960248201527f53747564656e74206973206e6f742072656769737465726564000000000000006044820152fd5b600080fd5b346105a35760203660031901126105a3576004356002548110156105a357600160a060020a036105d9602092611830565b9190546008604051930260020a9004168152f35b346105a3576101803660031901126105a357610607611759565b60243567ffffffffffffffff81116105a357610627903690600401611791565b60443567ffffffffffffffff81116105a357610647903690600401611791565b60643567ffffffffffffffff81116105a357610667903690600401611791565b60843567ffffffffffffffff81116105a357610687903690600401611791565b60a43567ffffffffffffffff81116105a3576106a7903690600401611791565b60c43567ffffffffffffffff81116105a3576106c7903690600401611791565b60e43567ffffffffffffffff81116105a3576106e7903690600401611791565b916101043567ffffffffffffffff81116105a357610709903690600401611791565b936101243567ffffffffffffffff81116105a35761072b903690600401611791565b956101643567ffffffffffffffff81116105a35761074d903690600401611791565b9760035460001981146111e257600101600355600160a060020a038b166000526001602052604060002099600160a060020a038c16600160a060020a03198c5416178b5580519067ffffffffffffffff82116105435781906107bf828e60016107b881830154611880565b91016118fe565b602090601f831160011461116e57600092611163575b5050816002029160080260020a6000190419161760018b01555b80519067ffffffffffffffff8211610543578190610816828d60026107b881830154611880565b602090601f83116001146110ef576000926110e4575b5050816002029160080260020a6000190419161760028a01555b80519067ffffffffffffffff821161054357819061086d828c60036107b881830154611880565b602090601f831160011461107057600092611065575b5050816002029160080260020a6000190419161760038901555b600354604051907f73313235332d000000000000000000000000000000000000000000000000000060208301526101443560268301527f2d0000000000000000000000000000000000000000000000000000000000000060468301526047820152604781526080810181811067ffffffffffffffff8211176105435760405280519067ffffffffffffffff8211610543578190610943828c60046107b881830154611880565b602090601f8311600114610ff157600092610fe6575b5050816002029160080260020a6000190419161760048901555b80519067ffffffffffffffff82116105435781906109a18261099860058d0154611880565b60058d016118fe565b602090601f8311600114610f7257600092610f67575b5050816002029160080260020a6000190419161760058801555b80519067ffffffffffffffff82116105435781906109ff826109f660068c0154611880565b60068c016118fe565b602090601f8311600114610ef357600092610ee8575b5050816002029160080260020a6000190419161760068701555b80519067ffffffffffffffff8211610543578190610a5d82610a5460078b0154611880565b60078b016118fe565b602090601f8311600114610e7457600092610e69575b5050816002029160080260020a6000190419161760078601555b80519067ffffffffffffffff8211610543578190610abb82610ab260088a0154611880565b60088a016118fe565b602090601f8311600114610df557600092610dea575b5050816002029160080260020a6000190419161760088501555b80519067ffffffffffffffff8211610543578190610b1982610b106009890154611880565b600989016118fe565b602090601f8311600114610d7657600092610d6b575b5050816002029160080260020a6000190419161760098401555b80519067ffffffffffffffff8211610543578190610b7782610b6e600b880154611880565b600b88016118fe565b602090601f8311600114610cf757600092610cec575b5050816002029160080260020a60001904191617600b8301555b61014435600c83015580519067ffffffffffffffff821161054357610bdc82610bd3600d860154611880565b600d86016118fe565b602090601f8311600114610c7657600e93929160009183610c6b575b5050816002029160080260020a60001904191617600d8201555b01805462ffffff191660011790556002546801000000000000000081101561054357610c4c816001600160a060020a039301600255611830565b909260088454920260020a808402938492160216911916179055600080f35b015190508580610bf8565b90600d840160005260206000209160005b601f1985168110610cd4575092600192600292600e969583601f19811610610cb9575b5050500201600d820155610c12565b01516008601f841602840a6000190419169055868080610caa565b91926020600181928685015181550194019201610c87565b015190508580610b8d565b9150600b850160005260206000209160005b601f1985168110610d535750918391600293600195601f19811610610d38575b5050500201600b830155610ba7565b01516008601f841602840a6000190419169055868080610d29565b91926020600181928685015181550194019201610d09565b015190508680610b2f565b91506009860160005260206000209160005b601f1985168110610dd25750918391600293600195601f19811610610db7575b50505002016009840155610b49565b01516008601f841602840a6000190419169055878080610da8565b91926020600181928685015181550194019201610d88565b015190508780610ad1565b91506008870160005260206000209160005b601f1985168110610e515750918391600293600195601f19811610610e36575b50505002016008850155610aeb565b01516008601f841602840a6000190419169055888080610e27565b91926020600181928685015181550194019201610e07565b015190508880610a73565b91506007880160005260206000209160005b601f1985168110610ed05750918391600293600195601f19811610610eb5575b50505002016007860155610a8d565b01516008601f841602840a6000190419169055898080610ea6565b91926020600181928685015181550194019201610e86565b015190508980610a15565b91506006890160005260206000209160005b601f1985168110610f4f5750918391600293600195601f19811610610f34575b50505002016006870155610a2f565b01516008601f841602840a60001904191690558a8080610f25565b91926020600181928685015181550194019201610f05565b015190508a806109b7565b915060058a0160005260206000209160005b601f1985168110610fce5750918391600293600195601f19811610610fb3575b505050020160058801556109d1565b01516008601f841602840a60001904191690558b8080610fa4565b91926020600181928685015181550194019201610f84565b015190508b80610959565b915060048b0160005260206000209160005b601f198516811061104d5750918391600293600195601f19811610611032575b50505002016004890155610973565b01516008601f841602840a60001904191690558c8080611023565b91926020600181928685015181550194019201611003565b015190508b80610883565b915060038b0160005260206000209160005b601f19851681106110cc5750918391600293600195601f198116106110b1575b5050500201600389015561089d565b01516008601f841602840a60001904191690558c80806110a2565b91926020600181928685015181550194019201611082565b015190508c8061082c565b915060028c0160005260206000209160005b601f198516811061114b5750918391600293600195601f19811610611130575b505050020160028a0155610846565b01516008601f841602840a60001904191690558d8080611121565b91926020600181928685015181550194019201611101565b015190508d806107d5565b915060018d0160005260206000209160005b601f19851681106111ca5750918391600293600195601f198116106111af575b505050020160018b01556107ef565b01516008601f841602840a60001904191690558e80806111a0565b91926020600181928685015181550194019201611180565b60e060020a634e487b7102600052601160045260246000fd5b346105a35760003660031901126105a357604051806002548083526020809301809160026000527f405787fa12a823e0f2b7631cc41b3ba8828b3321ca811111fa75cd3aa3bb5ace9060005b868282106112a657868661125d8288038361176f565b604051928392818401908285525180915260408401929160005b82811061128657505050500390f35b8351600160a060020a031685528695509381019392810192600101611277565b8354600160a060020a031685529093019260019283019201611247565b346105a35760203660031901126105a357600160a060020a036112e4611759565b168060005260016020526201000060ff81600e60406000200154041661135857816000526001602052604060002090600e82019062ff000019825416179055600160a060020a031981541690557f3b45ab09dae70c048ef52fb6150674531559cb10dadcbee9cb7d8b4d8a00e658600080a2005b606460405160e560020a62461bcd02815260206004820152601660248201527f53747564656e7420646f6573206e6f74206578697374000000000000000000006044820152fd5b346105a35760203660031901126105a357600160a060020a03806113c1611759565b16600052600160205260406000209081541660405191828060018301906113e791611943565b036113f2908461176f565b604051806114038160028501611943565b0361140e908261176f565b6040518061141f8160038601611943565b0361142a908261176f565b6040518061143b8160048701611943565b03611446908261176f565b604051806114578160058801611943565b03611462908261176f565b604051806114738160068901611943565b0361147e908261176f565b60405190816114908160078a01611943565b0361149b908361176f565b60405192836114ad8160088b01611943565b036114b8908561176f565b60405194856114ca8160098c01611943565b036114d5908761176f565b60405196876114e781600b8d01611943565b036114f2908961176f565b600c8a015499600e015462010000900460ff16986040519c8d9c8d528c6101a06020819201528d016115239161180b565b8c810360408e01526115349161180b565b8b810360608d01526115459161180b565b8a810360808c01526115569161180b565b89810360a08b01526115679161180b565b88810360c08a01526115789161180b565b87810360e08901526115899161180b565b86810361010088015261159b9161180b565b8581036101208701526115ad9161180b565b8481036101408601526115bf9161180b565b9161016084015215156101808301520390f35b346105a35760403660031901126105a3576115eb611759565b60243567ffffffffffffffff81116105a357611613600160a060020a03913690600401611791565b911690816000526020906001825260ff600e60406000200154161561171257826000526001825261165461165b600d60406000200160405192838092611943565b038261176f565b60405161168484828161167781830196878151938492016117e8565b810103808452018261176f565b519020906040516116a484828161167781830196878151938492016117e8565b519020036116cb5760009182526001905260409020600e01805461ff001916610100179055005b6064906040519060e560020a62461bcd0282526004820152601b60248201527f496e76616c69642061646472657373206f722070617373776f726400000000006044820152fd5b6064826040519060e560020a62461bcd0282526004820152601b60248201527f596f7520617265206e6f742072656769737465726564207965742100000000006044820152fd5b60043590600160a060020a03821682036105a357565b90601f8019910116810190811067ffffffffffffffff82111761054357604052565b81601f820112156105a35780359067ffffffffffffffff821161054357604051926117c6601f8401601f19166020018561176f565b828452602083830101116105a357816000926020809301838601378301015290565b60005b8381106117fb5750506000910152565b81810151838201526020016117eb565b90602091611824815180928185528580860191016117e8565b601f01601f1916010190565b6002548110156118675760026000527f405787fa12a823e0f2b7631cc41b3ba8828b3321ca811111fa75cd3aa3bb5ace0190600090565b60e060020a634e487b7102600052603260045260246000fd5b90600160028304921680156118b4575b602083101461189b57565b60e060020a634e487b7102600052602260045260246000fd5b91607f1691611890565b8181106118c9575050565b600081556001016118be565b90601f81116118e2575050565b6118fc916000526020601f816000209201048101906118be565b565b9190601f811161190d57505050565b6118fc92600052602060002090602080601f85010483019310611939575b601f602091010401906118be565b909150819061192b565b906000929180549161195483611880565b9182825260019384811690816000146119b65750600114611976575b50505050565b90919394506000526020928360002092846000945b8386106119a2575050505001019038808080611970565b80548587018301529401938590820161198b565b9294505050602093945060ff1916838301521515820201019038808080611970565b919082018092116111e25756fea2646970667358221220a3bd0a4e006190f0673b2a53d9e00767389f04d2078ebfb006057c237671c38d64736f6c63430008130033",
  "immutableReferences": {},
  "source": "// SPDX-License-Identifier: MIT\npragma solidity ^0.8.19;\nimport \"./AccessControl.sol\";\n\ncontract Studentss is AccessControl {\n\n    event deletedStudent(address indexed teacherAddress);\n    event StudentResultUploaded(address indexed teacherAddress, address indexed studentAddress, uint8 term, uint256 average, string grade);\n\n    struct SubjectScores {\n        uint256 biology;\n        uint256 physics;\n        uint256 mathematics;\n        uint256 chemistry;\n        uint256 geography;\n        uint256 history;\n        uint256 civics;\n        uint256 english;\n        uint256 kiswahili;\n        uint256 average;\n        string grade;\n    }\n\n    struct Student {\n        address studentAddress;\n        string firstName;\n        string middleName;\n        string lastName;\n        string examNumber;\n        string gender;\n        string religion;\n        string dob;\n        string classLevel;\n        string combination;\n        string phoneNumber;\n        string studentLocation;\n        uint year;\n        string password;\n        bool isRegistered;\n        bool isLogin;\n        bool isDeleted;\n        uint256 schoolFee;\n        uint256 accomodationFee;\n        mapping(uint8 => SubjectScores) termResults; // 1: First Term, 2: Mid Term, 3: Third Term\n    }\n\n    mapping(address => Student) students;\n    address[] public studentAddressArray;\n\n    uint256 studentId;\n\n    function registerStudent(\n        address _studentAddress, \n        string memory _firstName, \n        string memory _middleName,\n        string memory _lastName,\n        string memory _gender,\n        string memory _religion,\n        string memory _dob, \n        string memory _classLevel,\n        string memory _combination,\n        string memory _studentLocation,\n        uint256 _year,\n        string memory _password\n    ) public {\n        studentId++;\n        Student storage student = students[_studentAddress];\n        student.studentAddress = _studentAddress;\n        student.firstName = _firstName;\n        student.middleName = _middleName;\n        student.lastName = _lastName;\n        student.examNumber = string(abi.encodePacked(\"s1253-\", _year, \"-\", studentId));\n        student.gender = _gender;\n        student.religion = _religion;\n        student.dob = _dob;\n        student.classLevel = _classLevel;\n        student.combination = _combination;\n        student.studentLocation = _studentLocation;\n        student.year = _year;\n        student.password = _password;\n        student.isRegistered = true;\n        student.isLogin = false;\n        student.isDeleted = false;\n\n        studentAddressArray.push(_studentAddress);\n    }\n\n    function deleteStudent(address _studentAddress) external {\n        require(!students[_studentAddress].isDeleted, \"Student does not exist\");\n        Student storage student = students[_studentAddress];\n        student.isDeleted = true;\n        delete(student.studentAddress);\n        emit deletedStudent(_studentAddress);\n    }\n\n    function studentLogin(address _studentAddress, string memory _password) external {\n        require(students[_studentAddress].isRegistered, \"You are not registered yet!\");\n        require(compareString(students[_studentAddress].password, _password), \"Invalid address or password\");\n        students[_studentAddress].isLogin = true;\n    }\n\n    function addTermResult(\n        address _studentAddress, \n        uint8 _term, \n        uint256 _biology, \n        uint256 _physics, \n        uint256 _mathematics, \n        uint256 _chemistry, \n        uint256 _geography, \n        uint256 _history, \n        uint256 _civics, \n        uint256 _english, \n        uint256 _kiswahili\n    ) public {\n        require(students[_studentAddress].isRegistered, \"Student is not registered\");\n\n        SubjectScores memory scores = SubjectScores({\n            biology: _biology,\n            physics: _physics,\n            mathematics: _mathematics,\n            chemistry: _chemistry,\n            geography: _geography,\n            history: _history,\n            civics: _civics,\n            english: _english,\n            kiswahili: _kiswahili,\n            average: 0,\n            grade: \"\"\n        });\n\n        students[_studentAddress].termResults[_term] = scores;\n        calculateAverageAndGrade(_studentAddress, _term);\n    }\n\n    function calculateAverageAndGrade(address _studentAddress, uint8 _term) private {\n        Student storage student = students[_studentAddress];\n        SubjectScores storage scores = student.termResults[_term];\n\n        uint256 totalScore = scores.biology + scores.physics + scores.mathematics + scores.chemistry + scores.geography + scores.history + scores.civics + scores.english + scores.kiswahili;\n        uint256 numberOfSubjects = 9; // Total number of subjects\n\n        scores.average = totalScore / numberOfSubjects;\n\n        if (scores.average >= 80) {\n            scores.grade = \"A\";\n        } else if (scores.average >= 70) {\n            scores.grade = \"B\";\n        } else if (scores.average >= 50) {\n            scores.grade = \"C\";\n        } else if (scores.average >= 35) {\n            scores.grade = \"D\";\n        } else {\n            scores.grade = \"F\";\n        }\n\n        emit StudentResultUploaded(msg.sender, _studentAddress, _term, scores.average, scores.grade);\n    }\n\n    function getStudentArray() external view returns(address[] memory) {\n        return studentAddressArray;\n    }\n\n    function getStudent(address _studentAddress) external view returns(\n        address studentAddress, \n        string memory firstName, \n        string memory middleName, \n        string memory lastName, \n        string memory examNumber, \n        string memory gender, \n        string memory religion, \n        string memory dob, \n        string memory classLevel, \n        string memory combination, \n        string memory studentLocation, \n        uint256 year, \n        bool isDeleted \n    ) {\n        Student storage student = students[_studentAddress];\n        studentAddress = student.studentAddress;\n        firstName = student.firstName;\n        middleName = student.middleName;\n        lastName = student.lastName;\n        examNumber = student.examNumber;\n        gender = student.gender;\n        religion = student.religion;\n        dob = student.dob;\n        classLevel = student.classLevel;\n        combination = student.combination;\n        studentLocation = student.studentLocation;\n        year = student.year;\n        isDeleted = student.isDeleted;\n    }\n\n    // function compareString(string memory a, string memory b) private pure returns (bool) {\n    //     return keccak256(abi.encodePacked(a)) == keccak256(abi.encodePacked(b));\n    // }\n}\n",
  "sourcePath": "/home/zeflojujo/school_management_system/Eazy_School/contracts/students0.sol",
  "compiler": {
    "name": "solc",
    "version": "0.8.19+commit.7dd6d404.Emscripten.clang"
  },
  "schemaVersion": "3.4.16",
  "updatedAt": "2024-06-17T18:54:26.253Z",
  "devdoc": {
    "kind": "dev",
    "methods": {},
    "version": 1
  },
  "userdoc": {
    "kind": "user",
    "methods": {},
    "version": 1
  }
}