{
  "contractName": "Students",
  "abi": [
    {
      "anonymous": false,
      "inputs": [
        {
          "indexed": true,
          "internalType": "address",
          "name": "teacherAddress",
          "type": "address"
        }
      ],
      "name": "deletedStudent",
      "type": "event"
    },
    {
      "inputs": [
        {
          "internalType": "uint256",
          "name": "",
          "type": "uint256"
        }
      ],
      "name": "studentAddressArray",
      "outputs": [
        {
          "internalType": "address",
          "name": "",
          "type": "address"
        }
      ],
      "stateMutability": "view",
      "type": "function",
      "constant": true
    },
    {
      "inputs": [
        {
          "internalType": "address",
          "name": "",
          "type": "address"
        }
      ],
      "name": "students",
      "outputs": [
        {
          "internalType": "enum Students.Combination",
          "name": "combination",
          "type": "uint8"
        },
        {
          "internalType": "address",
          "name": "studentAddress",
          "type": "address"
        },
        {
          "internalType": "string",
          "name": "fullName",
          "type": "string"
        },
        {
          "internalType": "string",
          "name": "examNumber",
          "type": "string"
        },
        {
          "internalType": "string",
          "name": "standardLevel",
          "type": "string"
        },
        {
          "internalType": "uint256",
          "name": "age",
          "type": "uint256"
        },
        {
          "internalType": "string",
          "name": "phoneNumber",
          "type": "string"
        },
        {
          "internalType": "string",
          "name": "password",
          "type": "string"
        },
        {
          "internalType": "bool",
          "name": "isRegistered",
          "type": "bool"
        },
        {
          "internalType": "bool",
          "name": "isLogin",
          "type": "bool"
        },
        {
          "internalType": "bool",
          "name": "isDeleted",
          "type": "bool"
        }
      ],
      "stateMutability": "view",
      "type": "function",
      "constant": true
    },
    {
      "inputs": [
        {
          "internalType": "address",
          "name": "_studentAddress",
          "type": "address"
        },
        {
          "internalType": "string",
          "name": "_fullName",
          "type": "string"
        },
        {
          "internalType": "string",
          "name": "_examNumber",
          "type": "string"
        },
        {
          "internalType": "string",
          "name": "_standardLevel",
          "type": "string"
        },
        {
          "internalType": "uint256",
          "name": "_age",
          "type": "uint256"
        },
        {
          "internalType": "string",
          "name": "_phoneNumber",
          "type": "string"
        },
        {
          "internalType": "string",
          "name": "_password",
          "type": "string"
        }
      ],
      "name": "registerStudent",
      "outputs": [],
      "stateMutability": "nonpayable",
      "type": "function"
    },
    {
      "inputs": [
        {
          "internalType": "address",
          "name": "_studentAddress",
          "type": "address"
        }
      ],
      "name": "deleteStudent",
      "outputs": [],
      "stateMutability": "nonpayable",
      "type": "function"
    },
    {
      "inputs": [
        {
          "internalType": "address",
          "name": "_studentAddress",
          "type": "address"
        },
        {
          "internalType": "string",
          "name": "_password",
          "type": "string"
        }
      ],
      "name": "studentLogin",
      "outputs": [],
      "stateMutability": "nonpayable",
      "type": "function"
    },
    {
      "inputs": [
        {
          "internalType": "address",
          "name": "_studentAddress",
          "type": "address"
        },
        {
          "internalType": "uint8",
          "name": "_term",
          "type": "uint8"
        },
        {
          "internalType": "uint256",
          "name": "_biology",
          "type": "uint256"
        },
        {
          "internalType": "uint256",
          "name": "_physics",
          "type": "uint256"
        },
        {
          "internalType": "uint256",
          "name": "_mathematics",
          "type": "uint256"
        },
        {
          "internalType": "uint256",
          "name": "_chemistry",
          "type": "uint256"
        },
        {
          "internalType": "uint256",
          "name": "_geography",
          "type": "uint256"
        },
        {
          "internalType": "uint256",
          "name": "_history",
          "type": "uint256"
        },
        {
          "internalType": "uint256",
          "name": "_civics",
          "type": "uint256"
        },
        {
          "internalType": "uint256",
          "name": "_english",
          "type": "uint256"
        },
        {
          "internalType": "uint256",
          "name": "_kiswahili",
          "type": "uint256"
        }
      ],
      "name": "addTermResult",
      "outputs": [],
      "stateMutability": "nonpayable",
      "type": "function"
    },
    {
      "inputs": [],
      "name": "getStudentArray",
      "outputs": [
        {
          "internalType": "address[]",
          "name": "",
          "type": "address[]"
        }
      ],
      "stateMutability": "view",
      "type": "function",
      "constant": true
    },
    {
      "inputs": [
        {
          "internalType": "address",
          "name": "_studentAddress",
          "type": "address"
        }
      ],
      "name": "getStudent",
      "outputs": [
        {
          "internalType": "address",
          "name": "studentAddress",
          "type": "address"
        },
        {
          "internalType": "string",
          "name": "fullName",
          "type": "string"
        },
        {
          "internalType": "string",
          "name": "examNumber",
          "type": "string"
        },
        {
          "internalType": "string",
          "name": "classLevel",
          "type": "string"
        },
        {
          "internalType": "uint256",
          "name": "age",
          "type": "uint256"
        },
        {
          "internalType": "string",
          "name": "phoneNumber",
          "type": "string"
        },
        {
          "internalType": "bool",
          "name": "isDeleted",
          "type": "bool"
        }
      ],
      "stateMutability": "view",
      "type": "function",
      "constant": true
    }
  ],
  "bytecode": "0x60a08060405234610020573360805261133690816100268239608051815050f35b600080fdfe6080604052600436101561001257600080fd5b7c010000000000000000000000000000000000000000000000000000000060003504806336fdc8ea14610ea55780636b7b44d714610dc6578063730bcc5d14610cc55780638f23be8c14610bfd578063a6c807a914610abb578063dd2e58fc146104f8578063f9920d5b146104b35763fb7ff0f51461009057600080fd5b346104ae57610160806003193601126104ae576100ab61104d565b6024359060ff821682036104ae5760405192830183811067ffffffffffffffff8211176104955760405260443583526064356020840152608435604084015260a435606084015260c435608084015260e43560a08401526101043560c08401526101243560e084015261014435610100840152600061012084015260405180602081011067ffffffffffffffff602083011117610495576020810160405260008152610140840152600160a060020a0381166000526001602052600860406000200160ff8316600052602052610140604060002093805185556020810151600186015560408101516002860155606081015160038601556080810151600486015560a0810151600586015560c0810151600686015560e0810151600786015561010081015160088601556101208101516009860155015192835167ffffffffffffffff81116104955761020e81610205600a850154611124565b600a8501611295565b6020601f821160011461041a579080600a92600160a060020a03969760009261040f575b5050816002029160080260020a600019041916179101555b16600052600160205260ff60086040600020019116600052602052600a604060002060096102e06102d56102ca6102bf6102b46102a961029e610293895460018b0154906112da565b60028a0154906112da565b6003890154906112da565b6004880154906112da565b6005870154906112da565b6006860154906112da565b6007850154906112da565b6008840154906112da565b04600982018190556050811061032a5750016103056102ff8254611124565b8261126e565b7f41000000000000000000000000000000000000000000000000000000000000029055005b604681106103665750016103416102ff8254611124565b7f42000000000000000000000000000000000000000000000000000000000000029055005b603281106103a257500161037d6102ff8254611124565b7f43000000000000000000000000000000000000000000000000000000000000029055005b6023116103dc57016103b76102ff8254611124565b7f44000000000000000000000000000000000000000000000000000000000000029055005b016103ea6102ff8254611124565b7f46000000000000000000000000000000000000000000000000000000000000029055005b015190503880610232565b600a830160005260206000209560005b601f198416811061047d575082600160a060020a039697600193600293600a96601f19811610610462575b505050020191015561024a565b01516008601f841602840a6000190419169055388080610455565b8282015188556001909701966020928301920161042a565b60e060020a634e487b7102600052604160045260246000fd5b600080fd5b346104ae5760203660031901126104ae576004356002548110156104ae57600160a060020a036104e4602092611207565b9190546008604051930260020a9004168152f35b346104ae5760e03660031901126104ae5761051161104d565b60243567ffffffffffffffff81116104ae57610531903690600401611085565b9060443567ffffffffffffffff81116104ae57610552903690600401611085565b9160643567ffffffffffffffff81116104ae57610573903690600401611085565b60a43567ffffffffffffffff81116104ae57610593903690600401611085565b9060c43567ffffffffffffffff81116104ae576105b4903690600401611085565b94600160a060020a03851660005260016020526040600020936003855474ffffffffffffffffffffffffffffffffffffffff00610100600160a060020a038a1602169074ffffffffffffffffffffffffffffffffffffffffff19161717855580519067ffffffffffffffff82116104955781906106418261063860018a0154611124565b60018a01611295565b602090601f8311600114610a4757600092610a3c575b5050816002029160080260020a6000190419161760018501555b80519067ffffffffffffffff821161049557819061069f826106966002890154611124565b60028901611295565b602090601f83116001146109c8576000926109bd575b5050816002029160080260020a6000190419161760028401555b80519067ffffffffffffffff82116104955781906106fd826106f46003880154611124565b60038801611295565b602090601f83116001146109495760009261093e575b5050816002029160080260020a6000190419161760038301555b608435600483015580519067ffffffffffffffff82116104955781906107638261075a6005870154611124565b60058701611295565b602090601f83116001146108ca576000926108bf575b5050816002029160080260020a6000190419161760058201555b60068101835167ffffffffffffffff8111610495576107bc816107b68454611124565b84611295565b6020601f821160011461085257819060079596600092610847575b5050816002029160080260020a6000190419161790555b01805462ffffff191660011790556002546801000000000000000081101561049557610828816001600160a060020a039301600255611207565b909260088454920260020a808402938492160216911916179055600080f35b0151905086806107d7565b601f198216958360005260206000209660005b8181106108a757509660029284926001956007999a1061088c575b505050020190556107ee565b01516008601f841602840a6000190419169055878080610880565b83830151895560019098019760209384019301610865565b015190508580610779565b91506005840160005260206000209160005b601f19851681106109265750918391600293600195601f1981161061090b575b50505002016005820155610793565b01516008601f841602840a60001904191690558680806108fc565b919260206001819286850151815501940192016108dc565b015190508680610713565b91506003850160005260206000209160005b601f19851681106109a55750918391600293600195601f1981161061098a575b5050500201600383015561072d565b01516008601f841602840a600019041916905587808061097b565b9192602060018192868501518155019401920161095b565b0151905087806106b5565b91506002860160005260206000209160005b601f1985168110610a245750918391600293600195601f19811610610a09575b505050020160028401556106cf565b01516008601f841602840a60001904191690558880806109fa565b919260206001819286850151815501940192016109da565b015190508880610657565b91506001870160005260206000209160005b601f1985168110610aa35750918391600293600195601f19811610610a88575b50505002016001850155610671565b01516008601f841602840a6000190419169055898080610a79565b91926020600181928685015181550194019201610a59565b346104ae5760203660031901126104ae57600160a060020a0380610add61104d565b1660005260016020526040600020805460ff811691610afe60018201611162565b90610b0b60028201611162565b610b1760038301611162565b600483015490610b2960058501611162565b926007610b3860068701611162565b950154956040519960048a1015610be4578a998a526101008099041660208a01526101608060408b01528901610b6d916110ff565b88810360608a0152610b7e916110ff565b8781036080890152610b8f916110ff565b9060a087015285810360c0870152610ba6916110ff565b84810360e0860152610bb7916110ff565b9160ff8216151581850152810460ff16151561012084015262010000900460ff1615156101408301520390f35b60e060020a634e487b7102600052602160045260246000fd5b346104ae5760003660031901126104ae57604051806002548083526020809301809160026000527f405787fa12a823e0f2b7631cc41b3ba8828b3321ca811111fa75cd3aa3bb5ace9060005b86828210610ca8578686610c5f82880383611063565b604051928392818401908285525180915260408401929160005b828110610c8857505050500390f35b8351600160a060020a031685528695509381019392810192600101610c79565b8354600160a060020a031685529093019260019283019201610c49565b346104ae5760203660031901126104ae57600160a060020a03610ce661104d565b168060005260016020526201000060ff816007604060002001540416610d6857816000526001602052604060002090600782019062ff00001982541617905574ffffffffffffffffffffffffffffffffffffffff001981541690557f3b45ab09dae70c048ef52fb6150674531559cb10dadcbee9cb7d8b4d8a00e658600080a2005b60646040517f08c379a000000000000000000000000000000000000000000000000000000000815260206004820152601660248201527f5465616368657220646f6573206e6f74206578697374000000000000000000006044820152fd5b346104ae5760203660031901126104ae57600160a060020a0380610de861104d565b16600052600160205260406000209061010082540416610e0a60018301611162565b91610e99610e1a60028301611162565b91610e2760038201611162565b90610e86600482015492610e7860ff620100006007610e4860058801611162565b960154041696610e6a6040519a8b9a8b5260e060208c015260e08b01906110ff565b9089820360408b01526110ff565b9087820360608901526110ff565b91608086015284820360a08601526110ff565b90151560c08301520390f35b346104ae5760403660031901126104ae57610ebe61104d565b60243567ffffffffffffffff81116104ae57610ee6600160a060020a03913690600401611085565b9116908160005260209060018252600160ff60076040600020015416151503610fef578260005260018252610f216006604060002001611162565b604051610f4a848281610f3d81830196878151938492016110dc565b8101038084520182611063565b51902090604051610f6a848281610f3d81830196878151938492016110dc565b51902003610f915760009182526001905260409020600701805461ff001916610100179055005b606490604051907f08c379a00000000000000000000000000000000000000000000000000000000082526004820152601b60248201527f496e76616c69642061646472657373206f722070617373776f726400000000006044820152fd5b606482604051907f08c379a00000000000000000000000000000000000000000000000000000000082526004820152601860248201527f596f7572206e6f742072656769737465726564207965742100000000000000006044820152fd5b60043590600160a060020a03821682036104ae57565b90601f8019910116810190811067ffffffffffffffff82111761049557604052565b81601f820112156104ae5780359067ffffffffffffffff821161049557604051926110ba601f8401601f191660200185611063565b828452602083830101116104ae57816000926020809301838601378301015290565b60005b8381106110ef5750506000910152565b81810151838201526020016110df565b90602091611118815180928185528580860191016110dc565b601f01601f1916010190565b9060016002830492168015611158575b602083101461113f57565b60e060020a634e487b7102600052602260045260246000fd5b91607f1691611134565b906040519182600082549261117684611124565b9081845260019485811690816000146111e557506001146111a2575b50506111a092500383611063565b565b9093915060005260209081600020936000915b8183106111cd5750506111a093508201013880611192565b855488840185015294850194879450918301916111b5565b9150506111a094506020925060ff191682840152151581028201013880611192565b60025481101561123e5760026000527f405787fa12a823e0f2b7631cc41b3ba8828b3321ca811111fa75cd3aa3bb5ace0190600090565b60e060020a634e487b7102600052603260045260246000fd5b818110611262575050565b60008155600101611257565b90601f811161127b575050565b6111a0916000526020601f81600020920104810190611257565b9190601f81116112a457505050565b6111a092600052602060002090602080601f850104830193106112d0575b601f60209101040190611257565b90915081906112c2565b919082018092116112e757565b60e060020a634e487b7102600052601160045260246000fdfea2646970667358221220ccc75814b5c1eebb91dfeeb39fcb0d056a01c2cf746c2ef144e3902ddcc1ff5f64736f6c63430008130033",
  "immutableReferences": {},
  "source": "// SPDX-License-Identifier: MIT\npragma solidity ^0.8.19;\nimport \"./AccessControl.sol\";\n\ncontract Students is AccessControl {\n    \n    enum Combination {Science, Arts, Business, None}\n\n    event deletedStudent(address indexed teacherAddress);\n    \n    struct SubjectScores {\n        uint256 biology;\n        uint256 physics;\n        uint256 mathematics;\n        uint256 chemistry;\n        uint256 geography;\n        uint256 history;\n        uint256 civics;\n        uint256 english;\n        uint256 kiswahili;\n        uint256 average;\n        string grade;\n    }\n\n    struct Student {\n        Combination combination;\n        address studentAddress;\n        string fullName;\n        string examNumber;\n        string standardLevel;\n        uint256 age;\n        string phoneNumber;\n        string password;\n        bool isRegistered;\n        bool isLogin;\n        bool isDeleted;\n        mapping(uint8 => SubjectScores) termResults; // 1: First Term, 2: Mid Term, 3: Third Term\n    }\n\n    mapping(address => Student) public students;\n    address[] public studentAddressArray;\n\n    function registerStudent(address _studentAddress, string memory _fullName, string memory _examNumber, string memory _standardLevel, uint256 _age, string memory _phoneNumber, string memory _password) public {\n        Student storage student = students[_studentAddress];\n        student.combination = Combination.None;\n        student.studentAddress = _studentAddress;\n        student.fullName = _fullName;\n        student.examNumber = _examNumber;\n        student.standardLevel = _standardLevel;\n        student.age = _age;\n        student.phoneNumber = _phoneNumber;\n        student.password = _password;\n        student.isRegistered = true;\n        student.isLogin = false;\n        student.isDeleted = false;\n\n        studentAddressArray.push(_studentAddress);\n    }\n\n    function deleteStudent(address _studentAddress) external {\n        require(!students[_studentAddress].isDeleted, \"Teacher does not exist\");\n        Student storage student = students[_studentAddress];\n        student.isDeleted = true;\n        delete(student.studentAddress);\n        // students[_studentAddress] = student;\n        emit deletedStudent(_studentAddress);\n    }\n\n    function  studentLogin(address _studentAddress, string memory _password) external {\n        require(students[_studentAddress].isRegistered == true, \"Your not registered yet!\");\n        // require(students[_studentAddress].isLogin == false, \"Your Already login\");\n        require(compareString(students[_studentAddress].password, _password), \"Invalid address or password\");\n        \n        students[_studentAddress].isLogin = true;\n    }\n\n    function addTermResult(address _studentAddress, uint8 _term, uint256 _biology, uint256 _physics, uint256 _mathematics, uint256 _chemistry, uint256 _geography, uint256 _history, uint256 _civics, uint256 _english, uint256 _kiswahili) public {\n        SubjectScores memory scores = SubjectScores({\n            biology: _biology,\n            physics: _physics,\n            mathematics: _mathematics,\n            chemistry: _chemistry,\n            geography: _geography,\n            history: _history,\n            civics: _civics,\n            english: _english,\n            kiswahili: _kiswahili,\n            average: 0,\n            grade: \"\"\n        });\n\n        students[_studentAddress].termResults[_term] = scores;\n        calculateAverageAndGrade(_studentAddress, _term);\n    }\n\n    function getStudentArray() external view returns(address[] memory) {\n        return studentAddressArray;\n    }\n\n    function getStudent(address _studentAddress) external view returns(\n        address studentAddress, \n        string memory fullName, \n        string memory examNumber, \n        string memory classLevel, \n        uint256 age, \n        string memory phoneNumber,\n        bool isDeleted \n        ) {\n        Student storage student = students[_studentAddress];\n        studentAddress = student.studentAddress;\n        fullName = student.fullName;\n        examNumber = student.examNumber;\n        classLevel = student.standardLevel;\n        age = student.age;\n        phoneNumber = student.phoneNumber;\n        isDeleted = student.isDeleted;\n\n    }\n\n    function calculateAverageAndGrade(address _studentAddress, uint8 _term) private {\n        Student storage student = students[_studentAddress];\n        SubjectScores storage scores = student.termResults[_term];\n\n        uint256 totalScore = scores.biology + scores.physics + scores.mathematics + scores.chemistry + scores.geography + scores.history + scores.civics + scores.english + scores.kiswahili;\n        uint256 numberOfSubjects = 9; // Total number of subjects\n\n        scores.average = totalScore / numberOfSubjects;\n\n        if (scores.average >= 80) {\n            scores.grade = \"A\";\n        } else if (scores.average >= 70) {\n            scores.grade = \"B\";\n        } else if (scores.average >= 50) {\n            scores.grade = \"C\";\n        } else if (scores.average >= 35) {\n            scores.grade = \"D\";\n        } else {\n            scores.grade = \"F\";\n        }\n    }\n\n    function parseCombination(string memory _combination) private pure returns (Combination) {\n        if (keccak256(bytes(_combination)) == keccak256(bytes(\"Science\"))) {\n            return Combination.Science;\n        } else if (keccak256(bytes(_combination)) == keccak256(bytes(\"Arts\"))) {\n            return Combination.Arts;\n        } else if (keccak256(bytes(_combination)) == keccak256(bytes(\"Business\"))) {\n            return Combination.Business;\n        }else{\n            return Combination.None;\n        }\n    }\n}\n",
  "sourcePath": "/home/zeflojujo/school_management_system/Eazy_School/contracts/students.sol",
  "compiler": {
    "name": "solc",
    "version": "0.8.19+commit.7dd6d404.Emscripten.clang"
  },
  "schemaVersion": "3.4.16",
  "updatedAt": "2024-04-24T14:55:20.391Z",
  "networkType": "ethereum",
  "devdoc": {
    "kind": "dev",
    "methods": {},
    "version": 1
  },
  "userdoc": {
    "kind": "user",
    "methods": {},
    "version": 1
  }
}