{
  "contractName": "Teachers",
  "abi": [
    {
      "anonymous": false,
      "inputs": [
        {
          "indexed": true,
          "internalType": "address",
          "name": "teacherAddress",
          "type": "address"
        }
      ],
      "name": "deletedTeacher",
      "type": "event"
    },
    {
      "inputs": [
        {
          "internalType": "address",
          "name": "",
          "type": "address"
        }
      ],
      "name": "teachers",
      "outputs": [
        {
          "internalType": "address",
          "name": "teacherAddress",
          "type": "address"
        },
        {
          "internalType": "string",
          "name": "name",
          "type": "string"
        },
        {
          "internalType": "string",
          "name": "subjects",
          "type": "string"
        },
        {
          "internalType": "string",
          "name": "email",
          "type": "string"
        },
        {
          "internalType": "string",
          "name": "phoneNumber",
          "type": "string"
        },
        {
          "internalType": "string",
          "name": "password",
          "type": "string"
        },
        {
          "internalType": "bool",
          "name": "isRegistered",
          "type": "bool"
        },
        {
          "internalType": "bool",
          "name": "isLogin",
          "type": "bool"
        },
        {
          "internalType": "bool",
          "name": "isDeleted",
          "type": "bool"
        }
      ],
      "stateMutability": "view",
      "type": "function",
      "constant": true
    },
    {
      "inputs": [
        {
          "internalType": "address",
          "name": "_teacherAddress",
          "type": "address"
        },
        {
          "internalType": "string",
          "name": "_name",
          "type": "string"
        },
        {
          "internalType": "string",
          "name": "_subjects",
          "type": "string"
        },
        {
          "internalType": "string",
          "name": "_email",
          "type": "string"
        },
        {
          "internalType": "string",
          "name": "_phoneNumber",
          "type": "string"
        },
        {
          "internalType": "string",
          "name": "_password",
          "type": "string"
        }
      ],
      "name": "registerTeacher",
      "outputs": [],
      "stateMutability": "nonpayable",
      "type": "function"
    },
    {
      "inputs": [
        {
          "internalType": "address",
          "name": "_teacherAddress",
          "type": "address"
        }
      ],
      "name": "deleteTeacher",
      "outputs": [],
      "stateMutability": "nonpayable",
      "type": "function"
    },
    {
      "inputs": [
        {
          "internalType": "address",
          "name": "_teacherAddress",
          "type": "address"
        },
        {
          "internalType": "string",
          "name": "_password",
          "type": "string"
        }
      ],
      "name": "teacherLogin",
      "outputs": [],
      "stateMutability": "nonpayable",
      "type": "function"
    },
    {
      "inputs": [],
      "name": "getTeacherArray",
      "outputs": [
        {
          "internalType": "address[]",
          "name": "",
          "type": "address[]"
        }
      ],
      "stateMutability": "view",
      "type": "function",
      "constant": true
    },
    {
      "inputs": [
        {
          "internalType": "address",
          "name": "_teacherAddress",
          "type": "address"
        }
      ],
      "name": "getTeacher",
      "outputs": [
        {
          "internalType": "address",
          "name": "teacherAddress",
          "type": "address"
        },
        {
          "internalType": "string",
          "name": "name",
          "type": "string"
        },
        {
          "internalType": "string",
          "name": "subjects",
          "type": "string"
        },
        {
          "internalType": "string",
          "name": "email",
          "type": "string"
        },
        {
          "internalType": "string",
          "name": "phoneNumber",
          "type": "string"
        },
        {
          "internalType": "bool",
          "name": "isDeleted",
          "type": "bool"
        }
      ],
      "stateMutability": "view",
      "type": "function",
      "constant": true
    }
  ],
  "bytecode": "0x608080604052346100285760008054600160a060020a03191633179055610f21908161002e8239f35b600080fdfe6080604090808252600436101561001557600080fd5b7c010000000000000000000000000000000000000000000000000000000060003504908163558c470b14610be757508063bd43981d14610a48578063c7736878146103b2578063f0a47f78146102a9578063f4d3191e146101b75763fb4326fa1461007f57600080fd5b346101b25760203660031901126101b257600160a060020a03806100a1610caa565b16600052600160205281600020906101a88351916100be83610cc0565b80845416835261019a6100d360018601610daa565b946020850195865261018c6100ea60028301610daa565b978087019889526100fd60038401610daa565b9460608801958652600661011360048601610daa565b9460808a0195865261012760058201610daa565b60a08b015201549760ff8916151560c082015260ff620100006101009a828c820416151560e0850152041615158099820152511697519851945192519461017f82519a8b9a8b5260c060208c015260c08b0190610e72565b91898303908a0152610e72565b908682036060880152610e72565b908482036080860152610e72565b9060a08301520390f35b600080fd5b50346101b25760203660031901126101b257600160a060020a036101d9610caa565b1690816000526001602052620100009060ff826006836000200154041661024c5782600052600160205260002090600682019062ff000019825416179055600160a060020a031981541690557f77e0e7b6a42a5a94a0f4302f4e7451a296cfa2f982029c088f6984b94001b15a600080a2005b606490517f08c379a000000000000000000000000000000000000000000000000000000000815260206004820152601660248201527f5465616368657220646f6573206e6f74206578697374000000000000000000006044820152fd5b50346101b25760203660031901126101b257600160a060020a0390816102cd610caa565b1660005260016020528060002091825416906103846102ee60018501610daa565b936103766102fe60028301610daa565b9361036861030e60038501610daa565b61035a61031d60048701610daa565b93600661032c60058901610daa565b9701549861034d82519c8d9c8d5260208d61012091829101528d0190610e72565b918b8303908c0152610e72565b9088820360608a0152610e72565b908682036080880152610e72565b9084820360a0860152610e72565b9060ff8116151560c084015260ff62010000610100928284820416151560e087015204161515908301520390f35b50346101b25760c03660031901126101b2576103cc610caa565b9060243567ffffffffffffffff81116101b2576103ed903690600401610cff565b9060443567ffffffffffffffff81116101b25761040e903690600401610cff565b9160643567ffffffffffffffff81116101b25761042f903690600401610cff565b9160843567ffffffffffffffff81116101b257610450903690600401610cff565b60a43567ffffffffffffffff81116101b257610470903690600401610cff565b9082519461047d86610cc0565b600160a060020a0396878916875260208701958652848701526060860152608085015260a0840152600160c0840152600060e084015260006101008401528385166000526001602052806000209184845116600160a060020a03198454161783555180519067ffffffffffffffff821161079c57819061050d826105046001880154610d56565b60018801610e97565b602090601f83116001146109d4576000926109c9575b5050816002029160080260020a6000190419161760018301555b82015180519067ffffffffffffffff821161079c57819061056e826105656002870154610d56565b60028701610e97565b602090601f83116001146109555760009261094a575b5050816002029160080260020a6000190419161760028201555b606082015180519067ffffffffffffffff821161079c5781906105d1826105c86003870154610d56565b60038701610e97565b602090601f83116001146108d6576000926108cb575b5050816002029160080260020a6000190419161760038201555b608082015180519067ffffffffffffffff821161079c5781906106348261062b6004870154610d56565b60048701610e97565b602090601f83116001146108575760009261084c575b5050816002029160080260020a6000190419161760048201555b60a082015180519067ffffffffffffffff821161079c576106958261068c6005860154610d56565b60058601610e97565b602090601f83116001146107d6576006939291600091836107cb575b5050816002029160080260020a6000190419161760058201555b019060c0810151151590825460ff62ff00006201000061010061ff008160e0880151151502169501511515021693169062ffffff191617171790556002546801000000000000000081101561079c57600181018060025581101561076d577f405787fa12a823e0f2b7631cc41b3ba8828b3321ca811111fa75cd3aa3bb5ace01805473ffffffffffffffffffffffffffffffffffffffff191691909216179055005b7f4e487b7100000000000000000000000000000000000000000000000000000000600052603260045260246000fd5b7f4e487b7100000000000000000000000000000000000000000000000000000000600052604160045260246000fd5b0151905038806106b1565b906005840160005260206000209160005b601f19851681106108345750926001926002926006969583601f19811610610819575b505050020160058201556106cb565b01516008601f841602840a600019041916905538808061080a565b919260206001819286850151815501940192016107e7565b01519050388061064a565b91506004840160005260206000209160005b601f19851681106108b35750918391600293600195601f19811610610898575b50505002016004820155610664565b01516008601f841602840a6000190419169055388080610889565b91926020600181928685015181550194019201610869565b0151905038806105e7565b91506003840160005260206000209160005b601f19851681106109325750918391600293600195601f19811610610917575b50505002016003820155610601565b01516008601f841602840a6000190419169055388080610908565b919260206001819286850151815501940192016108e8565b015190503880610584565b91506002840160005260206000209160005b601f19851681106109b15750918391600293600195601f19811610610996575b5050500201600282015561059e565b01516008601f841602840a6000190419169055388080610987565b91926020600181928685015181550194019201610967565b015190503880610523565b91506001850160005260206000209160005b601f1985168110610a305750918391600293600195601f19811610610a15575b5050500201600183015561053d565b01516008601f841602840a6000190419169055388080610a06565b919260206001819286850151815501940192016109e6565b50346101b257806003193601126101b257610a61610caa565b60243567ffffffffffffffff81116101b257610a89600160a060020a03913690600401610cff565b91168060005260209160018352600160ff600686600020015416151503610b8a578160005260018352610ac160058560002001610daa565b8451610ae9858281610adc8183019687815193849201610e4f565b8101038084520182610cdd565b519020908451610b08858281610adc8183019687815193849201610e4f565b51902003610b2d576000908152600190915220600601805461ff001916610100179055005b5060649151907f08c379a00000000000000000000000000000000000000000000000000000000082526004820152601b60248201527f496e76616c69642061646472657373206f722070617373776f726400000000006044820152fd5b6064838551907f08c379a00000000000000000000000000000000000000000000000000000000082526004820152601860248201527f596f7572206e6f742072656769737465726564207965742100000000000000006044820152fd5b9050346101b25760003660031901126101b257906002548083526020808401809260026000527f405787fa12a823e0f2b7631cc41b3ba8828b3321ca811111fa75cd3aa3bb5ace9060005b818110610c8d5750505084610c48910385610cdd565b8251818152935181850181905284938401929160005b828110610c6d57505050500390f35b8351600160a060020a031685528695509381019392810192600101610c5e565b8254600160a060020a031684529284019260019283019201610c32565b60043590600160a060020a03821682036101b257565b610120810190811067ffffffffffffffff82111761079c57604052565b90601f8019910116810190811067ffffffffffffffff82111761079c57604052565b81601f820112156101b25780359067ffffffffffffffff821161079c5760405192610d34601f8401601f191660200185610cdd565b828452602083830101116101b257816000926020809301838601378301015290565b9060016002830492168015610da0575b6020831014610d7157565b7f4e487b7100000000000000000000000000000000000000000000000000000000600052602260045260246000fd5b91607f1691610d66565b9060405191826000825492610dbe84610d56565b908184526001948581169081600014610e2d5750600114610dea575b5050610de892500383610cdd565b565b9093915060005260209081600020936000915b818310610e15575050610de893508201013880610dda565b85548884018501529485019487945091830191610dfd565b915050610de894506020925060ff191682840152151581028201013880610dda565b60005b838110610e625750506000910152565b8181015183820152602001610e52565b90602091610e8b81518092818552858086019101610e4f565b601f01601f1916010190565b90601f8111610ea557505050565b60009182526020822090602080601f86010483019410610ee1575b601f602091010401915b828110610ed657505050565b818155600101610eca565b9092508290610ec056fea264697066735822122099a2a5ea1195597ddb5c59c24866633a13efbdc6a2e0ac23cbc6db5409fa0fb264736f6c63430008130033",
  "immutableReferences": {},
  "source": "// SPDX-License-Identifier: MIT\npragma solidity ^0.8.19;\nimport \"./AccessControl.sol\";\n\ncontract Teachers is AccessControl{\n\n    event deletedTeacher(address indexed teacherAddress);\n\n    struct Teacher {\n        address teacherAddress;\n        string name;\n        string subjects;\n        string email;\n        string phoneNumber;\n        string password;\n        bool isRegistered;\n        bool isLogin;\n        bool isDeleted;\n    }\n\n    mapping(address => Teacher) public teachers;\n\n    address[] private teacherAddressArray;\n\n    function registerTeacher(address _teacherAddress, string memory _name, string memory _subjects, string memory _email, string memory _phoneNumber, string memory _password) public {\n        teachers[_teacherAddress] = Teacher({\n            teacherAddress: _teacherAddress,\n            name: _name,\n            subjects: _subjects,\n            email: _email,\n            phoneNumber: _phoneNumber,\n            password: _password,\n            isRegistered: true,\n            isLogin: false,\n            isDeleted: false\n        });\n        teacherAddressArray.push(_teacherAddress);\n    }\n\n    function deleteTeacher(address _teacherAddress) external {\n        require(!teachers[_teacherAddress].isDeleted, \"Teacher does not exist\");\n        Teacher storage teacher = teachers[_teacherAddress];\n        teacher.isDeleted = true;\n        delete(teacher.teacherAddress);\n        teachers[_teacherAddress] = teacher;\n        emit deletedTeacher(_teacherAddress);\n    }\n\n    function  teacherLogin(address _teacherAddress, string memory _password) external {\n        require(teachers[_teacherAddress].isRegistered == true, \"Your not registered yet!\");\n        // require(teachers[_teacherAddress].isLogin == false, \"Your Already login\");\n        require(compareString(teachers[_teacherAddress].password, _password), \"Invalid address or password\");\n        \n        teachers[_teacherAddress].isLogin = true;\n    }\n\n    function getTeacherArray() external view returns(address[] memory) {\n        return teacherAddressArray;\n    }\n\n    function getTeacher(address _teacherAddress) external view returns(\n        address teacherAddress,\n        string memory name,\n        string memory subjects,\n        string memory email,\n        string memory phoneNumber,\n        bool isDeleted\n    ) {\n        Teacher memory teacher = teachers[_teacherAddress];\n        teacherAddress = teacher.teacherAddress;\n        name = teacher.name;\n        subjects = teacher.subjects;\n        email = teacher.email;\n        phoneNumber = teacher.phoneNumber;\n        isDeleted = teacher.isDeleted;\n    }\n}",
  "sourcePath": "/home/zeflojujo/school_management_system/Eazy_School/contracts/Teachers.sol",
  "compiler": {
    "name": "solc",
    "version": "0.8.19+commit.7dd6d404.Emscripten.clang"
  },
  "schemaVersion": "3.4.16",
  "updatedAt": "2024-05-03T08:49:22.994Z",
  "networkType": "ethereum",
  "devdoc": {
    "kind": "dev",
    "methods": {},
    "version": 1
  },
  "userdoc": {
    "kind": "user",
    "methods": {},
    "version": 1
  }
}