{
  "contractName": "Teachers",
  "abi": [
    {
      "inputs": [
        {
          "internalType": "address",
          "name": "",
          "type": "address"
        }
      ],
      "name": "teachers",
      "outputs": [
        {
          "internalType": "address",
          "name": "teacherAddress",
          "type": "address"
        },
        {
          "internalType": "string",
          "name": "name",
          "type": "string"
        },
        {
          "internalType": "string",
          "name": "email",
          "type": "string"
        },
        {
          "internalType": "string",
          "name": "phoneNumber",
          "type": "string"
        },
        {
          "internalType": "string",
          "name": "password",
          "type": "string"
        },
        {
          "internalType": "bool",
          "name": "isRegistered",
          "type": "bool"
        },
        {
          "internalType": "bool",
          "name": "isLogin",
          "type": "bool"
        },
        {
          "internalType": "bool",
          "name": "isDeleted",
          "type": "bool"
        }
      ],
      "stateMutability": "view",
      "type": "function",
      "constant": true
    },
    {
      "inputs": [
        {
          "internalType": "address",
          "name": "_teacherAddress",
          "type": "address"
        },
        {
          "internalType": "string",
          "name": "_name",
          "type": "string"
        },
        {
          "internalType": "string[]",
          "name": "_subjects",
          "type": "string[]"
        },
        {
          "internalType": "string",
          "name": "_email",
          "type": "string"
        },
        {
          "internalType": "string",
          "name": "_phoneNumber",
          "type": "string"
        },
        {
          "internalType": "string",
          "name": "_password",
          "type": "string"
        }
      ],
      "name": "registerTeacher",
      "outputs": [],
      "stateMutability": "nonpayable",
      "type": "function"
    },
    {
      "inputs": [
        {
          "internalType": "address",
          "name": "_teacherAddress",
          "type": "address"
        },
        {
          "internalType": "string",
          "name": "_password",
          "type": "string"
        }
      ],
      "name": "teacherLogin",
      "outputs": [],
      "stateMutability": "nonpayable",
      "type": "function"
    },
    {
      "inputs": [],
      "name": "getTeacherArray",
      "outputs": [
        {
          "internalType": "address[]",
          "name": "",
          "type": "address[]"
        }
      ],
      "stateMutability": "view",
      "type": "function",
      "constant": true
    },
    {
      "inputs": [
        {
          "internalType": "address",
          "name": "_teacherAddress",
          "type": "address"
        }
      ],
      "name": "getTeacher",
      "outputs": [
        {
          "internalType": "address",
          "name": "teacherAddress",
          "type": "address"
        },
        {
          "internalType": "string",
          "name": "name",
          "type": "string"
        },
        {
          "internalType": "string[]",
          "name": "subjects",
          "type": "string[]"
        },
        {
          "internalType": "string",
          "name": "email",
          "type": "string"
        },
        {
          "internalType": "string",
          "name": "phoneNumber",
          "type": "string"
        }
      ],
      "stateMutability": "view",
      "type": "function",
      "constant": true
    }
  ],
  "bytecode": "0x60a08060405234610020573360805261100490816100268239608051815050f35b600080fdfe608080604052600436101561001357600080fd5b7c010000000000000000000000000000000000000000000000000000000060003504908163558c470b14610cec575080636fe75800146104da578063bd43981d14610332578063f0a47f781461024a5763fb4326fa1461007257600080fd5b346102455760208060031936011261024557600160a060020a039081610096610db2565b1660005260018082526040600020604051906100b182610dc8565b8481541682526100c2838201610eca565b93808301948552600282019586546100d981610e5e565b976100e7604051998a610de5565b8189526000908152838120848a015b83831061021d57505050506040840196875261011460038401610eca565b9360608101948552600661012a60048601610eca565b946080830195865261013e60058201610eca565b60a0840152015460ff8116151560c083015260ff62010000610100928284820416151560e086015204161515908201525116945195519251915193610194604051978897885260a08489015260a0880190610f92565b9186830360408801528451908184528084019381808085028301019701946000915b8483106101e7578a806101e38c6101d58d8d8582036060870152610f92565b908382036080850152610f92565b0390f35b9193959899509193848061020783999a601f198682030187528c51610f92565b9a019301930190928a99989796949295936101b6565b9780868198999a610230859e9d9e610eca565b815201920192019190999899979695976100f6565b600080fd5b34610245576020366003190112610245576102e6600160a060020a038061026f610db2565b16600052600160205260406000209081541660ff6201000061029360018501610eca565b93826103106102a460038401610eca565b926103026102b460048301610eca565b6102f460066102c560058601610eca565b940154966040519c8d9c8d9c8d526101008d819e6020839101520190610f92565b8c810360408e015290610f92565b908a820360608c0152610f92565b9088820360808a0152610f92565b94818316151560a0880152820416151560c08601520416151560e08301520390f35b346102455760403660031901126102455761034b610db2565b60243567ffffffffffffffff811161024557610373600160a060020a03913690600401610e07565b9116908160005260209060018252600160ff6006604060002001541615150361047c5782600052600182526103ae6005604060002001610eca565b6040516103d78482816103ca8183019687815193849201610f6f565b8101038084520182610de5565b519020906040516103f78482816103ca8183019687815193849201610f6f565b5190200361041e5760009182526001905260409020600601805461ff001916610100179055005b606490604051907f08c379a00000000000000000000000000000000000000000000000000000000082526004820152601b60248201527f496e76616c69642061646472657373206f722070617373776f726400000000006044820152fd5b606482604051907f08c379a00000000000000000000000000000000000000000000000000000000082526004820152601860248201527f596f7572206e6f742072656769737465726564207965742100000000000000006044820152fd5b346102455760c0366003190112610245576104f3610db2565b60243567ffffffffffffffff811161024557610513903690600401610e07565b906044359067ffffffffffffffff8211610245573660238301121561024557816004013561054081610e5e565b9261054e6040519485610de5565b818452602460208086019302820101903682116102455760248101925b828410610cbc575050505060643567ffffffffffffffff811161024557610596903690600401610e07565b9160843567ffffffffffffffff8111610245576105b7903690600401610e07565b60a4359367ffffffffffffffff8511610245576105e0600160a060020a03953690600401610e07565b92604051966105ee88610dc8565b8686168852602088015260408701526060860152608085015260a0840152600160c0840152600060e08401526000610100840152166000526001602052604060002090600160a060020a03815116600160a060020a03198354161782556020810151805167ffffffffffffffff8111610904578060018501926106718454610e76565b601f8111610c89575b50602090601f8311600114610c2057600092610c15575b5050816002029160080260020a6000190419161790555b6040810151805190680100000000000000008211610904576002840154826002860155808310610b9e575b5060200190600284016000526020600020916000905b828210610a815785856060810151805167ffffffffffffffff8111610904578060038501926107188454610e76565b601f8111610a4e575b50602090601f83116001146109e5576000926109da575b5050816002029160080260020a6000190419161790555b6080810151805167ffffffffffffffff8111610904578060048501926107758454610e76565b601f81116109a7575b50602090601f831160011461093e57600092610933575b5050816002029160080260020a6000190419161790555b600582019160a082015192835167ffffffffffffffff8111610904576107d28254610e76565b601f81116108c6575b506020601f82116001146108595781906006959660009261084e575b5050816002029160080260020a6000190419161790555b019060c0810151151590825460ff62ff00006201000061010061ff008160e0880151151502169501511515021693169062ffffff19161717179055600080f35b0151905086806107f7565b601f198216958360005260206000209660005b8181106108ae57509660029284926001956006999a10610893575b5050500201905561080e565b01516008601f841602840a6000190419169055878080610887565b8383015189556001909801976020938401930161086c565b6108f4908360005260206000206020601f850104810191602085106108fa575b601f60209101040190610fb7565b856107db565b90915081906108e6565b7f4e487b7100000000000000000000000000000000000000000000000000000000600052604160045260246000fd5b015190508580610795565b6000858152602081209350601f198516905b81811061098f57509160029391856001969410610974575b505050020190556107ac565b01516008601f841602840a6000190419169055868080610968565b92936020600181928786015181550195019301610950565b6109d4908560005260206000206020601f860104810191602086106108fa57601f60209101040190610fb7565b8661077e565b015190508580610738565b6000858152602081209350601f198516905b818110610a3657509160029391856001969410610a1b575b5050500201905561074f565b01516008601f841602840a6000190419169055868080610a0f565b929360206001819287860151815501950193016109f7565b610a7b908560005260206000206020601f860104810191602086106108fa57601f60209101040190610fb7565b86610721565b805180519067ffffffffffffffff821161090457610a9f8654610e76565b601f8111610b6b575b50602090601f8311600114610af8579282600194936020938695600092610aed575b5050816002029160080260020a6000190419161787555b019401910190926106e9565b015190508b80610aca565b908660005260206000209160005b601f1985168110610b535750600284602094600197948897948895601f19811610610b38575b50505002018755610ae1565b01516008601f841602840a60001904191690558c8080610b2c565b91926020600181928685015181550194019201610b06565b610b98908760005260206000206020601f860104810191602086106108fa57601f60209101040190610fb7565b88610aa8565b600285016000526020600020908382015b8183018110610bbf5750506106d3565b80610bcc60019254610e76565b80610bd9575b5001610baf565b601f81118314610bef5750600081555b88610bd2565b600090828252610c0c6020601f8185209301048201858301610fb7565b81835555610be9565b015190508580610691565b6000858152602081209350601f198516905b818110610c7157509160029391856001969410610c56575b505050020190556106a8565b01516008601f841602840a6000190419169055868080610c4a565b92936020600181928786015181550195019301610c32565b610cb6908560005260206000206020601f860104810191602086106108fa57601f60209101040190610fb7565b8661067a565b833567ffffffffffffffff811161024557602091610ce1839260243691870101610e07565b81520193019261056b565b346102455760003660031901126102455760025490818152602091828201809160026000527f405787fa12a823e0f2b7631cc41b3ba8828b3321ca811111fa75cd3aa3bb5ace9060005b86828210610d95578686610d4c82880383610de5565b604051928392818401908285525180915260408401929160005b828110610d7557505050500390f35b8351600160a060020a031685528695509381019392810192600101610d66565b8354600160a060020a031685529093019260019283019201610d36565b60043590600160a060020a038216820361024557565b610120810190811067ffffffffffffffff82111761090457604052565b90601f8019910116810190811067ffffffffffffffff82111761090457604052565b81601f820112156102455780359067ffffffffffffffff82116109045760405192610e3c601f8401601f191660200185610de5565b8284526020838301011161024557816000926020809301838601378301015290565b67ffffffffffffffff81116109045760208091020190565b9060016002830492168015610ec0575b6020831014610e9157565b7f4e487b7100000000000000000000000000000000000000000000000000000000600052602260045260246000fd5b91607f1691610e86565b9060405191826000825492610ede84610e76565b908184526001948581169081600014610f4d5750600114610f0a575b5050610f0892500383610de5565b565b9093915060005260209081600020936000915b818310610f35575050610f0893508201013880610efa565b85548884018501529485019487945091830191610f1d565b915050610f0894506020925060ff191682840152151581028201013880610efa565b60005b838110610f825750506000910152565b8181015183820152602001610f72565b90602091610fab81518092818552858086019101610f6f565b601f01601f1916010190565b818110610fc2575050565b60008155600101610fb756fea2646970667358221220c25072a746564d1e75e58838008daa497f76ff485e0fc8610939f4a5f969b74664736f6c63430008130033",
  "immutableReferences": {},
  "source": "// SPDX-License-Identifier: MIT\npragma solidity ^0.8.19;\nimport \"./AccessControl.sol\";\n\ncontract Teachers is AccessControl{\n    struct Teacher {\n        address teacherAddress;\n        string name;\n        string[] subjects;\n        string email;\n        string phoneNumber;\n        string password;\n        bool isRegistered;\n        bool isLogin;\n        bool isDeleted;\n    }\n\n    mapping(address => Teacher) public teachers;\n\n    address[] private teacherAddressArray;\n\n    function registerTeacher(address _teacherAddress, string memory _name, string[] memory _subjects, string memory _email, string memory _phoneNumber, string memory _password) public {\n        teachers[_teacherAddress] = Teacher({\n            teacherAddress: _teacherAddress,\n            name: _name,\n            subjects: _subjects,\n            email: _email,\n            phoneNumber: _phoneNumber,\n            password: _password,\n            isRegistered: true,\n            isLogin: false,\n            isDeleted: false\n        });\n    }\n\n    function  teacherLogin(address _teacherAddress, string memory _password) external {\n        require(teachers[_teacherAddress].isRegistered == true, \"Your not registered yet!\");\n        // require(donors[_teacherAddress].isLogin == false, \"Your Already login\");\n        require(compareString(teachers[_teacherAddress].password, _password), \"Invalid address or password\");\n        \n        teachers[_teacherAddress].isLogin = true;\n    }\n\n    function getTeacherArray() external view returns(address[] memory) {\n        return teacherAddressArray;\n    }\n\n    function getTeacher(address _teacherAddress) external view returns(\n        address teacherAddress,\n        string memory name,\n        string[] memory subjects,\n        string memory email,\n        string memory phoneNumber\n    ) {\n        Teacher memory teacher = teachers[_teacherAddress];\n        teacherAddress = teacher.teacherAddress;\n        name = teacher.name;\n        subjects = teacher.subjects;\n        email = teacher.email;\n        phoneNumber = teacher.phoneNumber;\n    }\n}",
  "sourcePath": "/home/zeflojujo/school_management_system/client/contracts/Teachers.sol",
  "compiler": {
    "name": "solc",
    "version": "0.8.19+commit.7dd6d404.Emscripten.clang"
  },
  "schemaVersion": "3.4.16",
  "updatedAt": "2024-04-23T14:11:51.972Z",
  "networkType": "ethereum",
  "devdoc": {
    "kind": "dev",
    "methods": {},
    "version": 1
  },
  "userdoc": {
    "kind": "user",
    "methods": {},
    "version": 1
  }
}